{
	"Voting.sol": {
		"Voting": {
			"abi": [
				{
					"anonymous": false,
					"inputs": [
						{
							"indexed": false,
							"internalType": "uint256",
							"name": "orgId",
							"type": "uint256"
						},
						{
							"indexed": false,
							"internalType": "string",
							"name": "name",
							"type": "string"
						}
					],
					"name": "OrganizationCreated",
					"type": "event"
				},
				{
					"anonymous": false,
					"inputs": [
						{
							"indexed": false,
							"internalType": "uint256",
							"name": "pollId",
							"type": "uint256"
						},
						{
							"indexed": false,
							"internalType": "uint256",
							"name": "orgId",
							"type": "uint256"
						},
						{
							"indexed": false,
							"internalType": "string",
							"name": "title",
							"type": "string"
						}
					],
					"name": "PollCreated",
					"type": "event"
				},
				{
					"anonymous": false,
					"inputs": [
						{
							"indexed": false,
							"internalType": "uint256",
							"name": "pollId",
							"type": "uint256"
						},
						{
							"indexed": false,
							"internalType": "uint256",
							"name": "optionId",
							"type": "uint256"
						},
						{
							"indexed": false,
							"internalType": "address",
							"name": "voter",
							"type": "address"
						}
					],
					"name": "Voted",
					"type": "event"
				},
				{
					"inputs": [
						{
							"internalType": "string",
							"name": "_name",
							"type": "string"
						}
					],
					"name": "createOrganization",
					"outputs": [],
					"stateMutability": "nonpayable",
					"type": "function"
				},
				{
					"inputs": [
						{
							"internalType": "uint256",
							"name": "_orgId",
							"type": "uint256"
						},
						{
							"internalType": "string",
							"name": "_title",
							"type": "string"
						},
						{
							"internalType": "string",
							"name": "_description",
							"type": "string"
						},
						{
							"internalType": "string[]",
							"name": "_options",
							"type": "string[]"
						},
						{
							"internalType": "string[]",
							"name": "_imageHashes",
							"type": "string[]"
						},
						{
							"internalType": "uint256",
							"name": "_startTime",
							"type": "uint256"
						},
						{
							"internalType": "uint256",
							"name": "_endTime",
							"type": "uint256"
						}
					],
					"name": "createPoll",
					"outputs": [],
					"stateMutability": "nonpayable",
					"type": "function"
				},
				{
					"inputs": [
						{
							"internalType": "uint256",
							"name": "_pollId",
							"type": "uint256"
						}
					],
					"name": "getPollResults",
					"outputs": [
						{
							"internalType": "uint256[]",
							"name": "",
							"type": "uint256[]"
						}
					],
					"stateMutability": "view",
					"type": "function"
				},
				{
					"inputs": [
						{
							"internalType": "uint256",
							"name": "",
							"type": "uint256"
						}
					],
					"name": "organizations",
					"outputs": [
						{
							"internalType": "uint256",
							"name": "id",
							"type": "uint256"
						},
						{
							"internalType": "string",
							"name": "name",
							"type": "string"
						},
						{
							"internalType": "bool",
							"name": "exists",
							"type": "bool"
						}
					],
					"stateMutability": "view",
					"type": "function"
				},
				{
					"inputs": [
						{
							"internalType": "uint256",
							"name": "",
							"type": "uint256"
						}
					],
					"name": "polls",
					"outputs": [
						{
							"internalType": "uint256",
							"name": "id",
							"type": "uint256"
						},
						{
							"internalType": "uint256",
							"name": "orgId",
							"type": "uint256"
						},
						{
							"internalType": "string",
							"name": "title",
							"type": "string"
						},
						{
							"internalType": "string",
							"name": "description",
							"type": "string"
						},
						{
							"internalType": "uint256",
							"name": "startTime",
							"type": "uint256"
						},
						{
							"internalType": "uint256",
							"name": "endTime",
							"type": "uint256"
						},
						{
							"internalType": "bool",
							"name": "exists",
							"type": "bool"
						}
					],
					"stateMutability": "view",
					"type": "function"
				},
				{
					"inputs": [
						{
							"internalType": "uint256",
							"name": "_pollId",
							"type": "uint256"
						},
						{
							"internalType": "uint256",
							"name": "_optionId",
							"type": "uint256"
						}
					],
					"name": "vote",
					"outputs": [],
					"stateMutability": "nonpayable",
					"type": "function"
				}
			],
			"devdoc": {
				"kind": "dev",
				"methods": {},
				"version": 1
			},
			"evm": {
				"assembly": "    /* \"Voting.sol\":58:3053  contract Voting {... */\n  mstore(0x40, 0x80)\n    /* \"Voting.sol\":573:574  0 */\n  0x00\n    /* \"Voting.sol\":549:574  uint private orgCount = 0 */\n  0x00\n  sstore\n    /* \"Voting.sol\":605:606  0 */\n  0x00\n    /* \"Voting.sol\":580:606  uint private pollCount = 0 */\n  0x01\n  sstore\n    /* \"Voting.sol\":58:3053  contract Voting {... */\n  callvalue\n  dup1\n  iszero\n  tag_1\n  jumpi\n  revert(0x00, 0x00)\ntag_1:\n  pop\n  dataSize(sub_0)\n  dup1\n  dataOffset(sub_0)\n  0x00\n  codecopy\n  0x00\n  return\nstop\n\nsub_0: assembly {\n        /* \"Voting.sol\":58:3053  contract Voting {... */\n      mstore(0x40, 0x80)\n      callvalue\n      dup1\n      iszero\n      tag_1\n      jumpi\n      revert(0x00, 0x00)\n    tag_1:\n      pop\n      jumpi(tag_2, lt(calldatasize, 0x04))\n      shr(0xe0, calldataload(0x00))\n      dup1\n      0x33b4097b\n      eq\n      tag_3\n      jumpi\n      dup1\n      0x6427acca\n      eq\n      tag_4\n      jumpi\n      dup1\n      0xab518eae\n      eq\n      tag_5\n      jumpi\n      dup1\n      0xac2f0074\n      eq\n      tag_6\n      jumpi\n      dup1\n      0xb384abef\n      eq\n      tag_7\n      jumpi\n      dup1\n      0xe792dd8a\n      eq\n      tag_8\n      jumpi\n    tag_2:\n      revert(0x00, 0x00)\n        /* \"Voting.sol\":2564:2963  function getPollResults(uint _pollId) external view returns (uint[] memory) {... */\n    tag_3:\n      tag_9\n      0x04\n      dup1\n      calldatasize\n      sub\n      dup2\n      add\n      swap1\n      tag_10\n      swap2\n      swap1\n      tag_11\n      jump\t// in\n    tag_10:\n      tag_12\n      jump\t// in\n    tag_9:\n      mload(0x40)\n      tag_13\n      swap2\n      swap1\n      tag_14\n      jump\t// in\n    tag_13:\n      mload(0x40)\n      dup1\n      swap2\n      sub\n      swap1\n      return\n        /* \"Voting.sol\":922:1129  function createOrganization(string memory _name) external {... */\n    tag_4:\n      tag_15\n      0x04\n      dup1\n      calldatasize\n      sub\n      dup2\n      add\n      swap1\n      tag_16\n      swap2\n      swap1\n      tag_17\n      jump\t// in\n    tag_16:\n      tag_18\n      jump\t// in\n    tag_15:\n      stop\n        /* \"Voting.sol\":1160:1939  function createPoll(... */\n    tag_5:\n      tag_19\n      0x04\n      dup1\n      calldatasize\n      sub\n      dup2\n      add\n      swap1\n      tag_20\n      swap2\n      swap1\n      tag_21\n      jump\t// in\n    tag_20:\n      tag_22\n      jump\t// in\n    tag_19:\n      stop\n        /* \"Voting.sol\":669:703  mapping(uint => Poll) public polls */\n    tag_6:\n      tag_23\n      0x04\n      dup1\n      calldatasize\n      sub\n      dup2\n      add\n      swap1\n      tag_24\n      swap2\n      swap1\n      tag_11\n      jump\t// in\n    tag_24:\n      tag_25\n      jump\t// in\n    tag_23:\n      mload(0x40)\n      tag_26\n      swap8\n      swap7\n      swap6\n      swap5\n      swap4\n      swap3\n      swap2\n      swap1\n      tag_27\n      jump\t// in\n    tag_26:\n      mload(0x40)\n      dup1\n      swap2\n      sub\n      swap1\n      return\n        /* \"Voting.sol\":1981:2520  function vote(uint _pollId, uint _optionId) external {... */\n    tag_7:\n      tag_28\n      0x04\n      dup1\n      calldatasize\n      sub\n      dup2\n      add\n      swap1\n      tag_29\n      swap2\n      swap1\n      tag_30\n      jump\t// in\n    tag_29:\n      tag_31\n      jump\t// in\n    tag_28:\n      stop\n        /* \"Voting.sol\":613:663  mapping(uint => Organization) public organizations */\n    tag_8:\n      tag_32\n      0x04\n      dup1\n      calldatasize\n      sub\n      dup2\n      add\n      swap1\n      tag_33\n      swap2\n      swap1\n      tag_11\n      jump\t// in\n    tag_33:\n      tag_34\n      jump\t// in\n    tag_32:\n      mload(0x40)\n      tag_35\n      swap4\n      swap3\n      swap2\n      swap1\n      tag_36\n      jump\t// in\n    tag_35:\n      mload(0x40)\n      dup1\n      swap2\n      sub\n      swap1\n      return\n        /* \"Voting.sol\":2564:2963  function getPollResults(uint _pollId) external view returns (uint[] memory) {... */\n    tag_12:\n        /* \"Voting.sol\":2625:2638  uint[] memory */\n      0x60\n        /* \"Voting.sol\":2650:2664  Poll storage p */\n      0x00\n        /* \"Voting.sol\":2667:2672  polls */\n      0x03\n        /* \"Voting.sol\":2667:2681  polls[_pollId] */\n      0x00\n        /* \"Voting.sol\":2673:2680  _pollId */\n      dup5\n        /* \"Voting.sol\":2667:2681  polls[_pollId] */\n      dup2\n      mstore\n      0x20\n      add\n      swap1\n      dup2\n      mstore\n      0x20\n      add\n      0x00\n      keccak256\n        /* \"Voting.sol\":2650:2681  Poll storage p = polls[_pollId] */\n      swap1\n      pop\n        /* \"Voting.sol\":2699:2700  p */\n      dup1\n        /* \"Voting.sol\":2699:2707  p.exists */\n      0x08\n      add\n      0x00\n      swap1\n      sload\n      swap1\n      0x0100\n      exp\n      swap1\n      div\n      0xff\n      and\n        /* \"Voting.sol\":2691:2731  require(p.exists, \"Poll does not exist\") */\n      tag_38\n      jumpi\n      mload(0x40)\n      0x08c379a000000000000000000000000000000000000000000000000000000000\n      dup2\n      mstore\n      0x04\n      add\n      tag_39\n      swap1\n      tag_40\n      jump\t// in\n    tag_39:\n      mload(0x40)\n      dup1\n      swap2\n      sub\n      swap1\n      revert\n    tag_38:\n        /* \"Voting.sol\":2741:2758  uint optionsCount */\n      0x00\n        /* \"Voting.sol\":2761:2762  p */\n      dup2\n        /* \"Voting.sol\":2761:2770  p.options */\n      0x04\n      add\n        /* \"Voting.sol\":2761:2777  p.options.length */\n      dup1\n      sload\n      swap1\n      pop\n        /* \"Voting.sol\":2741:2777  uint optionsCount = p.options.length */\n      swap1\n      pop\n        /* \"Voting.sol\":2787:2808  uint[] memory results */\n      0x00\n        /* \"Voting.sol\":2822:2834  optionsCount */\n      dup2\n        /* \"Voting.sol\":2811:2835  new uint[](optionsCount) */\n      0xffffffffffffffff\n      dup2\n      gt\n      iszero\n      tag_41\n      jumpi\n      tag_42\n      tag_43\n      jump\t// in\n    tag_42:\n    tag_41:\n      mload(0x40)\n      swap1\n      dup1\n      dup3\n      mstore\n      dup1\n      0x20\n      mul\n      0x20\n      add\n      dup3\n      add\n      0x40\n      mstore\n      dup1\n      iszero\n      tag_44\n      jumpi\n      dup2\n      0x20\n      add\n      0x20\n      dup3\n      mul\n      dup1\n      calldatasize\n      dup4\n      calldatacopy\n      dup1\n      dup3\n      add\n      swap2\n      pop\n      pop\n      swap1\n      pop\n    tag_44:\n      pop\n        /* \"Voting.sol\":2787:2835  uint[] memory results = new uint[](optionsCount) */\n      swap1\n      pop\n        /* \"Voting.sol\":2850:2856  uint i */\n      0x00\n        /* \"Voting.sol\":2859:2860  0 */\n      0x00\n        /* \"Voting.sol\":2850:2860  uint i = 0 */\n      swap1\n      pop\n        /* \"Voting.sol\":2845:2933  for (uint i = 0; i < optionsCount; i++) {... */\n    tag_45:\n        /* \"Voting.sol\":2866:2878  optionsCount */\n      dup3\n        /* \"Voting.sol\":2862:2863  i */\n      dup2\n        /* \"Voting.sol\":2862:2878  i < optionsCount */\n      lt\n        /* \"Voting.sol\":2845:2933  for (uint i = 0; i < optionsCount; i++) {... */\n      iszero\n      tag_46\n      jumpi\n        /* \"Voting.sol\":2912:2913  p */\n      dup4\n        /* \"Voting.sol\":2912:2919  p.votes */\n      0x09\n      add\n        /* \"Voting.sol\":2912:2922  p.votes[i] */\n      0x00\n        /* \"Voting.sol\":2920:2921  i */\n      dup3\n        /* \"Voting.sol\":2912:2922  p.votes[i] */\n      dup2\n      mstore\n      0x20\n      add\n      swap1\n      dup2\n      mstore\n      0x20\n      add\n      0x00\n      keccak256\n      sload\n        /* \"Voting.sol\":2899:2906  results */\n      dup3\n        /* \"Voting.sol\":2907:2908  i */\n      dup3\n        /* \"Voting.sol\":2899:2909  results[i] */\n      dup2\n      mload\n      dup2\n      lt\n      tag_48\n      jumpi\n      tag_49\n      tag_50\n      jump\t// in\n    tag_49:\n    tag_48:\n      0x20\n      mul\n      0x20\n      add\n      add\n        /* \"Voting.sol\":2899:2922  results[i] = p.votes[i] */\n      dup2\n      dup2\n      mstore\n      pop\n      pop\n        /* \"Voting.sol\":2880:2883  i++ */\n      dup1\n      dup1\n      0x01\n      add\n      swap2\n      pop\n      pop\n        /* \"Voting.sol\":2845:2933  for (uint i = 0; i < optionsCount; i++) {... */\n      jump(tag_45)\n    tag_46:\n      pop\n        /* \"Voting.sol\":2949:2956  results */\n      dup1\n        /* \"Voting.sol\":2942:2956  return results */\n      swap4\n      pop\n      pop\n      pop\n      pop\n        /* \"Voting.sol\":2564:2963  function getPollResults(uint _pollId) external view returns (uint[] memory) {... */\n      swap2\n      swap1\n      pop\n      jump\t// out\n        /* \"Voting.sol\":922:1129  function createOrganization(string memory _name) external {... */\n    tag_18:\n        /* \"Voting.sol\":990:998  orgCount */\n      0x00\n      0x00\n        /* \"Voting.sol\":990:1000  orgCount++ */\n      dup2\n      sload\n      dup1\n      swap3\n      swap2\n      swap1\n      tag_52\n      swap1\n      tag_53\n      jump\t// in\n    tag_52:\n      swap2\n      swap1\n      pop\n      sstore\n      pop\n        /* \"Voting.sol\":1036:1071  Organization(orgCount, _name, true) */\n      mload(0x40)\n      dup1\n      0x60\n      add\n      0x40\n      mstore\n      dup1\n        /* \"Voting.sol\":1049:1057  orgCount */\n      sload(0x00)\n        /* \"Voting.sol\":1036:1071  Organization(orgCount, _name, true) */\n      dup2\n      mstore\n      0x20\n      add\n        /* \"Voting.sol\":1059:1064  _name */\n      dup3\n        /* \"Voting.sol\":1036:1071  Organization(orgCount, _name, true) */\n      dup2\n      mstore\n      0x20\n      add\n        /* \"Voting.sol\":1066:1070  true */\n      0x01\n        /* \"Voting.sol\":1036:1071  Organization(orgCount, _name, true) */\n      iszero\n      iszero\n      dup2\n      mstore\n      pop\n        /* \"Voting.sol\":1010:1023  organizations */\n      0x02\n        /* \"Voting.sol\":1010:1033  organizations[orgCount] */\n      0x00\n        /* \"Voting.sol\":1024:1032  orgCount */\n      sload(0x00)\n        /* \"Voting.sol\":1010:1033  organizations[orgCount] */\n      dup2\n      mstore\n      0x20\n      add\n      swap1\n      dup2\n      mstore\n      0x20\n      add\n      0x00\n      keccak256\n        /* \"Voting.sol\":1010:1071  organizations[orgCount] = Organization(orgCount, _name, true) */\n      0x00\n      dup3\n      add\n      mload\n      dup2\n      0x00\n      add\n      sstore\n      0x20\n      dup3\n      add\n      mload\n      dup2\n      0x01\n      add\n      swap1\n      dup2\n      tag_54\n      swap2\n      swap1\n      tag_55\n      jump\t// in\n    tag_54:\n      pop\n      0x40\n      dup3\n      add\n      mload\n      dup2\n      0x02\n      add\n      exp(0x0100, 0x00)\n      dup2\n      sload\n      dup2\n      0xff\n      mul\n      not\n      and\n      swap1\n      dup4\n      iszero\n      iszero\n      mul\n      or\n      swap1\n      sstore\n      pop\n      swap1\n      pop\n      pop\n        /* \"Voting.sol\":1086:1122  OrganizationCreated(orgCount, _name) */\n      0xc80c020e707dc135a0cfab12e04e26a3ec7ed662ecaa0b12fd49d1dc05fc5853\n        /* \"Voting.sol\":1106:1114  orgCount */\n      sload(0x00)\n        /* \"Voting.sol\":1116:1121  _name */\n      dup3\n        /* \"Voting.sol\":1086:1122  OrganizationCreated(orgCount, _name) */\n      mload(0x40)\n      tag_56\n      swap3\n      swap2\n      swap1\n      tag_57\n      jump\t// in\n    tag_56:\n      mload(0x40)\n      dup1\n      swap2\n      sub\n      swap1\n      log1\n        /* \"Voting.sol\":922:1129  function createOrganization(string memory _name) external {... */\n      pop\n      jump\t// out\n        /* \"Voting.sol\":1160:1939  function createPoll(... */\n    tag_22:\n        /* \"Voting.sol\":1420:1433  organizations */\n      0x02\n        /* \"Voting.sol\":1420:1441  organizations[_orgId] */\n      0x00\n        /* \"Voting.sol\":1434:1440  _orgId */\n      dup9\n        /* \"Voting.sol\":1420:1441  organizations[_orgId] */\n      dup2\n      mstore\n      0x20\n      add\n      swap1\n      dup2\n      mstore\n      0x20\n      add\n      0x00\n      keccak256\n        /* \"Voting.sol\":1420:1448  organizations[_orgId].exists */\n      0x02\n      add\n      0x00\n      swap1\n      sload\n      swap1\n      0x0100\n      exp\n      swap1\n      div\n      0xff\n      and\n        /* \"Voting.sol\":1412:1480  require(organizations[_orgId].exists, \"Organization does not exist\") */\n      tag_59\n      jumpi\n      mload(0x40)\n      0x08c379a000000000000000000000000000000000000000000000000000000000\n      dup2\n      mstore\n      0x04\n      add\n      tag_60\n      swap1\n      tag_61\n      jump\t// in\n    tag_60:\n      mload(0x40)\n      dup1\n      swap2\n      sub\n      swap1\n      revert\n    tag_59:\n        /* \"Voting.sol\":1511:1519  _endTime */\n      dup1\n        /* \"Voting.sol\":1498:1508  _startTime */\n      dup3\n        /* \"Voting.sol\":1498:1519  _startTime < _endTime */\n      lt\n        /* \"Voting.sol\":1490:1541  require(_startTime < _endTime, \"Invalid timeframe\") */\n      tag_62\n      jumpi\n      mload(0x40)\n      0x08c379a000000000000000000000000000000000000000000000000000000000\n      dup2\n      mstore\n      0x04\n      add\n      tag_63\n      swap1\n      tag_64\n      jump\t// in\n    tag_63:\n      mload(0x40)\n      dup1\n      swap2\n      sub\n      swap1\n      revert\n    tag_62:\n        /* \"Voting.sol\":1551:1560  pollCount */\n      0x01\n      0x00\n        /* \"Voting.sol\":1551:1562  pollCount++ */\n      dup2\n      sload\n      dup1\n      swap3\n      swap2\n      swap1\n      tag_65\n      swap1\n      tag_53\n      jump\t// in\n    tag_65:\n      swap2\n      swap1\n      pop\n      sstore\n      pop\n        /* \"Voting.sol\":1572:1586  Poll storage p */\n      0x00\n        /* \"Voting.sol\":1589:1594  polls */\n      0x03\n        /* \"Voting.sol\":1589:1605  polls[pollCount] */\n      0x00\n        /* \"Voting.sol\":1595:1604  pollCount */\n      sload(0x01)\n        /* \"Voting.sol\":1589:1605  polls[pollCount] */\n      dup2\n      mstore\n      0x20\n      add\n      swap1\n      dup2\n      mstore\n      0x20\n      add\n      0x00\n      keccak256\n        /* \"Voting.sol\":1572:1605  Poll storage p = polls[pollCount] */\n      swap1\n      pop\n        /* \"Voting.sol\":1622:1631  pollCount */\n      sload(0x01)\n        /* \"Voting.sol\":1615:1616  p */\n      dup2\n        /* \"Voting.sol\":1615:1619  p.id */\n      0x00\n      add\n        /* \"Voting.sol\":1615:1631  p.id = pollCount */\n      dup2\n      swap1\n      sstore\n      pop\n        /* \"Voting.sol\":1651:1657  _orgId */\n      dup8\n        /* \"Voting.sol\":1641:1642  p */\n      dup2\n        /* \"Voting.sol\":1641:1648  p.orgId */\n      0x01\n      add\n        /* \"Voting.sol\":1641:1657  p.orgId = _orgId */\n      dup2\n      swap1\n      sstore\n      pop\n        /* \"Voting.sol\":1677:1683  _title */\n      dup7\n        /* \"Voting.sol\":1667:1668  p */\n      dup2\n        /* \"Voting.sol\":1667:1674  p.title */\n      0x02\n      add\n        /* \"Voting.sol\":1667:1683  p.title = _title */\n      swap1\n      dup2\n      tag_66\n      swap2\n      swap1\n      tag_55\n      jump\t// in\n    tag_66:\n      pop\n        /* \"Voting.sol\":1709:1721  _description */\n      dup6\n        /* \"Voting.sol\":1693:1694  p */\n      dup2\n        /* \"Voting.sol\":1693:1706  p.description */\n      0x03\n      add\n        /* \"Voting.sol\":1693:1721  p.description = _description */\n      swap1\n      dup2\n      tag_67\n      swap2\n      swap1\n      tag_55\n      jump\t// in\n    tag_67:\n      pop\n        /* \"Voting.sol\":1743:1751  _options */\n      dup5\n        /* \"Voting.sol\":1731:1732  p */\n      dup2\n        /* \"Voting.sol\":1731:1740  p.options */\n      0x04\n      add\n        /* \"Voting.sol\":1731:1751  p.options = _options */\n      swap1\n      dup1\n      mload\n      swap1\n      0x20\n      add\n      swap1\n      tag_68\n      swap3\n      swap2\n      swap1\n      tag_69\n      jump\t// in\n    tag_68:\n      pop\n        /* \"Voting.sol\":1777:1789  _imageHashes */\n      dup4\n        /* \"Voting.sol\":1761:1762  p */\n      dup2\n        /* \"Voting.sol\":1761:1774  p.imageHashes */\n      0x05\n      add\n        /* \"Voting.sol\":1761:1789  p.imageHashes = _imageHashes */\n      swap1\n      dup1\n      mload\n      swap1\n      0x20\n      add\n      swap1\n      tag_70\n      swap3\n      swap2\n      swap1\n      tag_69\n      jump\t// in\n    tag_70:\n      pop\n        /* \"Voting.sol\":1813:1823  _startTime */\n      dup3\n        /* \"Voting.sol\":1799:1800  p */\n      dup2\n        /* \"Voting.sol\":1799:1810  p.startTime */\n      0x06\n      add\n        /* \"Voting.sol\":1799:1823  p.startTime = _startTime */\n      dup2\n      swap1\n      sstore\n      pop\n        /* \"Voting.sol\":1845:1853  _endTime */\n      dup2\n        /* \"Voting.sol\":1833:1834  p */\n      dup2\n        /* \"Voting.sol\":1833:1842  p.endTime */\n      0x07\n      add\n        /* \"Voting.sol\":1833:1853  p.endTime = _endTime */\n      dup2\n      swap1\n      sstore\n      pop\n        /* \"Voting.sol\":1874:1878  true */\n      0x01\n        /* \"Voting.sol\":1863:1864  p */\n      dup2\n        /* \"Voting.sol\":1863:1871  p.exists */\n      0x08\n      add\n      0x00\n        /* \"Voting.sol\":1863:1878  p.exists = true */\n      0x0100\n      exp\n      dup2\n      sload\n      dup2\n      0xff\n      mul\n      not\n      and\n      swap1\n      dup4\n      iszero\n      iszero\n      mul\n      or\n      swap1\n      sstore\n      pop\n        /* \"Voting.sol\":1894:1932  PollCreated(pollCount, _orgId, _title) */\n      0x87b11e68a16f482c7abcd786b549381647901857698ac775bffbbb09975fccdf\n        /* \"Voting.sol\":1906:1915  pollCount */\n      sload(0x01)\n        /* \"Voting.sol\":1917:1923  _orgId */\n      dup10\n        /* \"Voting.sol\":1925:1931  _title */\n      dup10\n        /* \"Voting.sol\":1894:1932  PollCreated(pollCount, _orgId, _title) */\n      mload(0x40)\n      tag_71\n      swap4\n      swap3\n      swap2\n      swap1\n      tag_72\n      jump\t// in\n    tag_71:\n      mload(0x40)\n      dup1\n      swap2\n      sub\n      swap1\n      log1\n        /* \"Voting.sol\":1402:1939  {... */\n      pop\n        /* \"Voting.sol\":1160:1939  function createPoll(... */\n      pop\n      pop\n      pop\n      pop\n      pop\n      pop\n      pop\n      jump\t// out\n        /* \"Voting.sol\":669:703  mapping(uint => Poll) public polls */\n    tag_25:\n      mstore(0x20, 0x03)\n      dup1\n      0x00\n      mstore\n      keccak256(0x00, 0x40)\n      0x00\n      swap2\n      pop\n      swap1\n      pop\n      dup1\n      0x00\n      add\n      sload\n      swap1\n      dup1\n      0x01\n      add\n      sload\n      swap1\n      dup1\n      0x02\n      add\n      dup1\n      sload\n      tag_73\n      swap1\n      tag_74\n      jump\t// in\n    tag_73:\n      dup1\n      0x1f\n      add\n      0x20\n      dup1\n      swap2\n      div\n      mul\n      0x20\n      add\n      mload(0x40)\n      swap1\n      dup2\n      add\n      0x40\n      mstore\n      dup1\n      swap3\n      swap2\n      swap1\n      dup2\n      dup2\n      mstore\n      0x20\n      add\n      dup3\n      dup1\n      sload\n      tag_75\n      swap1\n      tag_74\n      jump\t// in\n    tag_75:\n      dup1\n      iszero\n      tag_76\n      jumpi\n      dup1\n      0x1f\n      lt\n      tag_77\n      jumpi\n      0x0100\n      dup1\n      dup4\n      sload\n      div\n      mul\n      dup4\n      mstore\n      swap2\n      0x20\n      add\n      swap2\n      jump(tag_76)\n    tag_77:\n      dup3\n      add\n      swap2\n      swap1\n      0x00\n      mstore\n      keccak256(0x00, 0x20)\n      swap1\n    tag_78:\n      dup2\n      sload\n      dup2\n      mstore\n      swap1\n      0x01\n      add\n      swap1\n      0x20\n      add\n      dup1\n      dup4\n      gt\n      tag_78\n      jumpi\n      dup3\n      swap1\n      sub\n      0x1f\n      and\n      dup3\n      add\n      swap2\n    tag_76:\n      pop\n      pop\n      pop\n      pop\n      pop\n      swap1\n      dup1\n      0x03\n      add\n      dup1\n      sload\n      tag_79\n      swap1\n      tag_74\n      jump\t// in\n    tag_79:\n      dup1\n      0x1f\n      add\n      0x20\n      dup1\n      swap2\n      div\n      mul\n      0x20\n      add\n      mload(0x40)\n      swap1\n      dup2\n      add\n      0x40\n      mstore\n      dup1\n      swap3\n      swap2\n      swap1\n      dup2\n      dup2\n      mstore\n      0x20\n      add\n      dup3\n      dup1\n      sload\n      tag_80\n      swap1\n      tag_74\n      jump\t// in\n    tag_80:\n      dup1\n      iszero\n      tag_81\n      jumpi\n      dup1\n      0x1f\n      lt\n      tag_82\n      jumpi\n      0x0100\n      dup1\n      dup4\n      sload\n      div\n      mul\n      dup4\n      mstore\n      swap2\n      0x20\n      add\n      swap2\n      jump(tag_81)\n    tag_82:\n      dup3\n      add\n      swap2\n      swap1\n      0x00\n      mstore\n      keccak256(0x00, 0x20)\n      swap1\n    tag_83:\n      dup2\n      sload\n      dup2\n      mstore\n      swap1\n      0x01\n      add\n      swap1\n      0x20\n      add\n      dup1\n      dup4\n      gt\n      tag_83\n      jumpi\n      dup3\n      swap1\n      sub\n      0x1f\n      and\n      dup3\n      add\n      swap2\n    tag_81:\n      pop\n      pop\n      pop\n      pop\n      pop\n      swap1\n      dup1\n      0x06\n      add\n      sload\n      swap1\n      dup1\n      0x07\n      add\n      sload\n      swap1\n      dup1\n      0x08\n      add\n      0x00\n      swap1\n      sload\n      swap1\n      0x0100\n      exp\n      swap1\n      div\n      0xff\n      and\n      swap1\n      pop\n      dup8\n      jump\t// out\n        /* \"Voting.sol\":1981:2520  function vote(uint _pollId, uint _optionId) external {... */\n    tag_31:\n        /* \"Voting.sol\":2044:2058  Poll storage p */\n      0x00\n        /* \"Voting.sol\":2061:2066  polls */\n      0x03\n        /* \"Voting.sol\":2061:2075  polls[_pollId] */\n      0x00\n        /* \"Voting.sol\":2067:2074  _pollId */\n      dup5\n        /* \"Voting.sol\":2061:2075  polls[_pollId] */\n      dup2\n      mstore\n      0x20\n      add\n      swap1\n      dup2\n      mstore\n      0x20\n      add\n      0x00\n      keccak256\n        /* \"Voting.sol\":2044:2075  Poll storage p = polls[_pollId] */\n      swap1\n      pop\n        /* \"Voting.sol\":2093:2094  p */\n      dup1\n        /* \"Voting.sol\":2093:2101  p.exists */\n      0x08\n      add\n      0x00\n      swap1\n      sload\n      swap1\n      0x0100\n      exp\n      swap1\n      div\n      0xff\n      and\n        /* \"Voting.sol\":2085:2125  require(p.exists, \"Poll does not exist\") */\n      tag_85\n      jumpi\n      mload(0x40)\n      0x08c379a000000000000000000000000000000000000000000000000000000000\n      dup2\n      mstore\n      0x04\n      add\n      tag_86\n      swap1\n      tag_40\n      jump\t// in\n    tag_86:\n      mload(0x40)\n      dup1\n      swap2\n      sub\n      swap1\n      revert\n    tag_85:\n        /* \"Voting.sol\":2162:2163  p */\n      dup1\n        /* \"Voting.sol\":2162:2173  p.startTime */\n      0x06\n      add\n      sload\n        /* \"Voting.sol\":2143:2158  block.timestamp */\n      timestamp\n        /* \"Voting.sol\":2143:2173  block.timestamp >= p.startTime */\n      lt\n      iszero\n        /* \"Voting.sol\":2135:2199  require(block.timestamp >= p.startTime, \"Voting hasn't started\") */\n      tag_87\n      jumpi\n      mload(0x40)\n      0x08c379a000000000000000000000000000000000000000000000000000000000\n      dup2\n      mstore\n      0x04\n      add\n      tag_88\n      swap1\n      tag_89\n      jump\t// in\n    tag_88:\n      mload(0x40)\n      dup1\n      swap2\n      sub\n      swap1\n      revert\n    tag_87:\n        /* \"Voting.sol\":2236:2237  p */\n      dup1\n        /* \"Voting.sol\":2236:2245  p.endTime */\n      0x07\n      add\n      sload\n        /* \"Voting.sol\":2217:2232  block.timestamp */\n      timestamp\n        /* \"Voting.sol\":2217:2245  block.timestamp <= p.endTime */\n      gt\n      iszero\n        /* \"Voting.sol\":2209:2266  require(block.timestamp <= p.endTime, \"Voting has ended\") */\n      tag_90\n      jumpi\n      mload(0x40)\n      0x08c379a000000000000000000000000000000000000000000000000000000000\n      dup2\n      mstore\n      0x04\n      add\n      tag_91\n      swap1\n      tag_92\n      jump\t// in\n    tag_91:\n      mload(0x40)\n      dup1\n      swap2\n      sub\n      swap1\n      revert\n    tag_90:\n        /* \"Voting.sol\":2296:2297  p */\n      dup1\n        /* \"Voting.sol\":2296:2305  p.options */\n      0x04\n      add\n        /* \"Voting.sol\":2296:2312  p.options.length */\n      dup1\n      sload\n      swap1\n      pop\n        /* \"Voting.sol\":2284:2293  _optionId */\n      dup3\n        /* \"Voting.sol\":2284:2312  _optionId < p.options.length */\n      lt\n        /* \"Voting.sol\":2276:2331  require(_optionId < p.options.length, \"Invalid option\") */\n      tag_93\n      jumpi\n      mload(0x40)\n      0x08c379a000000000000000000000000000000000000000000000000000000000\n      dup2\n      mstore\n      0x04\n      add\n      tag_94\n      swap1\n      tag_95\n      jump\t// in\n    tag_94:\n      mload(0x40)\n      dup1\n      swap2\n      sub\n      swap1\n      revert\n    tag_93:\n        /* \"Voting.sol\":2350:2351  p */\n      dup1\n        /* \"Voting.sol\":2350:2360  p.hasVoted */\n      0x0a\n      add\n        /* \"Voting.sol\":2350:2372  p.hasVoted[msg.sender] */\n      0x00\n        /* \"Voting.sol\":2361:2371  msg.sender */\n      caller\n        /* \"Voting.sol\":2350:2372  p.hasVoted[msg.sender] */\n      0xffffffffffffffffffffffffffffffffffffffff\n      and\n      0xffffffffffffffffffffffffffffffffffffffff\n      and\n      dup2\n      mstore\n      0x20\n      add\n      swap1\n      dup2\n      mstore\n      0x20\n      add\n      0x00\n      keccak256\n      0x00\n      swap1\n      sload\n      swap1\n      0x0100\n      exp\n      swap1\n      div\n      0xff\n      and\n        /* \"Voting.sol\":2349:2372  !p.hasVoted[msg.sender] */\n      iszero\n        /* \"Voting.sol\":2341:2390  require(!p.hasVoted[msg.sender], \"Already voted\") */\n      tag_96\n      jumpi\n      mload(0x40)\n      0x08c379a000000000000000000000000000000000000000000000000000000000\n      dup2\n      mstore\n      0x04\n      add\n      tag_97\n      swap1\n      tag_98\n      jump\t// in\n    tag_97:\n      mload(0x40)\n      dup1\n      swap2\n      sub\n      swap1\n      revert\n    tag_96:\n        /* \"Voting.sol\":2401:2402  p */\n      dup1\n        /* \"Voting.sol\":2401:2408  p.votes */\n      0x09\n      add\n        /* \"Voting.sol\":2401:2419  p.votes[_optionId] */\n      0x00\n        /* \"Voting.sol\":2409:2418  _optionId */\n      dup4\n        /* \"Voting.sol\":2401:2419  p.votes[_optionId] */\n      dup2\n      mstore\n      0x20\n      add\n      swap1\n      dup2\n      mstore\n      0x20\n      add\n      0x00\n      keccak256\n      0x00\n        /* \"Voting.sol\":2401:2421  p.votes[_optionId]++ */\n      dup2\n      sload\n      dup1\n      swap3\n      swap2\n      swap1\n      tag_99\n      swap1\n      tag_53\n      jump\t// in\n    tag_99:\n      swap2\n      swap1\n      pop\n      sstore\n      pop\n        /* \"Voting.sol\":2456:2460  true */\n      0x01\n        /* \"Voting.sol\":2431:2432  p */\n      dup2\n        /* \"Voting.sol\":2431:2441  p.hasVoted */\n      0x0a\n      add\n        /* \"Voting.sol\":2431:2453  p.hasVoted[msg.sender] */\n      0x00\n        /* \"Voting.sol\":2442:2452  msg.sender */\n      caller\n        /* \"Voting.sol\":2431:2453  p.hasVoted[msg.sender] */\n      0xffffffffffffffffffffffffffffffffffffffff\n      and\n      0xffffffffffffffffffffffffffffffffffffffff\n      and\n      dup2\n      mstore\n      0x20\n      add\n      swap1\n      dup2\n      mstore\n      0x20\n      add\n      0x00\n      keccak256\n      0x00\n        /* \"Voting.sol\":2431:2460  p.hasVoted[msg.sender] = true */\n      0x0100\n      exp\n      dup2\n      sload\n      dup2\n      0xff\n      mul\n      not\n      and\n      swap1\n      dup4\n      iszero\n      iszero\n      mul\n      or\n      swap1\n      sstore\n      pop\n        /* \"Voting.sol\":2476:2513  Voted(_pollId, _optionId, msg.sender) */\n      0xd91ecafccf238642dccd41161308b3eebe62a12bc5819daf5164780c221ec95b\n        /* \"Voting.sol\":2482:2489  _pollId */\n      dup4\n        /* \"Voting.sol\":2491:2500  _optionId */\n      dup4\n        /* \"Voting.sol\":2502:2512  msg.sender */\n      caller\n        /* \"Voting.sol\":2476:2513  Voted(_pollId, _optionId, msg.sender) */\n      mload(0x40)\n      tag_100\n      swap4\n      swap3\n      swap2\n      swap1\n      tag_101\n      jump\t// in\n    tag_100:\n      mload(0x40)\n      dup1\n      swap2\n      sub\n      swap1\n      log1\n        /* \"Voting.sol\":2034:2520  {... */\n      pop\n        /* \"Voting.sol\":1981:2520  function vote(uint _pollId, uint _optionId) external {... */\n      pop\n      pop\n      jump\t// out\n        /* \"Voting.sol\":613:663  mapping(uint => Organization) public organizations */\n    tag_34:\n      mstore(0x20, 0x02)\n      dup1\n      0x00\n      mstore\n      keccak256(0x00, 0x40)\n      0x00\n      swap2\n      pop\n      swap1\n      pop\n      dup1\n      0x00\n      add\n      sload\n      swap1\n      dup1\n      0x01\n      add\n      dup1\n      sload\n      tag_102\n      swap1\n      tag_74\n      jump\t// in\n    tag_102:\n      dup1\n      0x1f\n      add\n      0x20\n      dup1\n      swap2\n      div\n      mul\n      0x20\n      add\n      mload(0x40)\n      swap1\n      dup2\n      add\n      0x40\n      mstore\n      dup1\n      swap3\n      swap2\n      swap1\n      dup2\n      dup2\n      mstore\n      0x20\n      add\n      dup3\n      dup1\n      sload\n      tag_103\n      swap1\n      tag_74\n      jump\t// in\n    tag_103:\n      dup1\n      iszero\n      tag_104\n      jumpi\n      dup1\n      0x1f\n      lt\n      tag_105\n      jumpi\n      0x0100\n      dup1\n      dup4\n      sload\n      div\n      mul\n      dup4\n      mstore\n      swap2\n      0x20\n      add\n      swap2\n      jump(tag_104)\n    tag_105:\n      dup3\n      add\n      swap2\n      swap1\n      0x00\n      mstore\n      keccak256(0x00, 0x20)\n      swap1\n    tag_106:\n      dup2\n      sload\n      dup2\n      mstore\n      swap1\n      0x01\n      add\n      swap1\n      0x20\n      add\n      dup1\n      dup4\n      gt\n      tag_106\n      jumpi\n      dup3\n      swap1\n      sub\n      0x1f\n      and\n      dup3\n      add\n      swap2\n    tag_104:\n      pop\n      pop\n      pop\n      pop\n      pop\n      swap1\n      dup1\n      0x02\n      add\n      0x00\n      swap1\n      sload\n      swap1\n      0x0100\n      exp\n      swap1\n      div\n      0xff\n      and\n      swap1\n      pop\n      dup4\n      jump\t// out\n    tag_69:\n      dup3\n      dup1\n      sload\n      dup3\n      dup3\n      sstore\n      swap1\n      0x00\n      mstore\n      keccak256(0x00, 0x20)\n      swap1\n      dup2\n      add\n      swap3\n      dup3\n      iszero\n      tag_107\n      jumpi\n      swap2\n      0x20\n      mul\n      dup3\n      add\n    tag_108:\n      dup3\n      dup2\n      gt\n      iszero\n      tag_109\n      jumpi\n      dup3\n      mload\n      dup3\n      swap1\n      dup2\n      tag_110\n      swap2\n      swap1\n      tag_55\n      jump\t// in\n    tag_110:\n      pop\n      swap2\n      0x20\n      add\n      swap2\n      swap1\n      0x01\n      add\n      swap1\n      jump(tag_108)\n    tag_109:\n    tag_107:\n      pop\n      swap1\n      pop\n      tag_111\n      swap2\n      swap1\n      tag_112\n      jump\t// in\n    tag_111:\n      pop\n      swap1\n      jump\t// out\n    tag_112:\n    tag_113:\n      dup1\n      dup3\n      gt\n      iszero\n      tag_114\n      jumpi\n      0x00\n      dup2\n      dup2\n      tag_115\n      swap2\n      swap1\n      tag_116\n      jump\t// in\n    tag_115:\n      pop\n      0x01\n      add\n      jump(tag_113)\n    tag_114:\n      pop\n      swap1\n      jump\t// out\n    tag_116:\n      pop\n      dup1\n      sload\n      tag_117\n      swap1\n      tag_74\n      jump\t// in\n    tag_117:\n      0x00\n      dup3\n      sstore\n      dup1\n      0x1f\n      lt\n      tag_119\n      jumpi\n      pop\n      jump(tag_118)\n    tag_119:\n      0x1f\n      add\n      0x20\n      swap1\n      div\n      swap1\n      0x00\n      mstore\n      keccak256(0x00, 0x20)\n      swap1\n      dup2\n      add\n      swap1\n      tag_120\n      swap2\n      swap1\n      tag_121\n      jump\t// in\n    tag_120:\n    tag_118:\n      pop\n      jump\t// out\n    tag_121:\n    tag_122:\n      dup1\n      dup3\n      gt\n      iszero\n      tag_123\n      jumpi\n      0x00\n      dup2\n      0x00\n      swap1\n      sstore\n      pop\n      0x01\n      add\n      jump(tag_122)\n    tag_123:\n      pop\n      swap1\n      jump\t// out\n        /* \"#utility.yul\":7:82   */\n    tag_124:\n        /* \"#utility.yul\":40:46   */\n      0x00\n        /* \"#utility.yul\":73:75   */\n      0x40\n        /* \"#utility.yul\":67:76   */\n      mload\n        /* \"#utility.yul\":57:76   */\n      swap1\n      pop\n        /* \"#utility.yul\":7:82   */\n      swap1\n      jump\t// out\n        /* \"#utility.yul\":88:205   */\n    tag_125:\n        /* \"#utility.yul\":197:198   */\n      0x00\n        /* \"#utility.yul\":194:195   */\n      0x00\n        /* \"#utility.yul\":187:199   */\n      revert\n        /* \"#utility.yul\":211:328   */\n    tag_126:\n        /* \"#utility.yul\":320:321   */\n      0x00\n        /* \"#utility.yul\":317:318   */\n      0x00\n        /* \"#utility.yul\":310:322   */\n      revert\n        /* \"#utility.yul\":334:411   */\n    tag_127:\n        /* \"#utility.yul\":371:378   */\n      0x00\n        /* \"#utility.yul\":400:405   */\n      dup2\n        /* \"#utility.yul\":389:405   */\n      swap1\n      pop\n        /* \"#utility.yul\":334:411   */\n      swap2\n      swap1\n      pop\n      jump\t// out\n        /* \"#utility.yul\":417:539   */\n    tag_128:\n        /* \"#utility.yul\":490:514   */\n      tag_197\n        /* \"#utility.yul\":508:513   */\n      dup2\n        /* \"#utility.yul\":490:514   */\n      tag_127\n      jump\t// in\n    tag_197:\n        /* \"#utility.yul\":483:488   */\n      dup2\n        /* \"#utility.yul\":480:515   */\n      eq\n        /* \"#utility.yul\":470:533   */\n      tag_198\n      jumpi\n        /* \"#utility.yul\":529:530   */\n      0x00\n        /* \"#utility.yul\":526:527   */\n      0x00\n        /* \"#utility.yul\":519:531   */\n      revert\n        /* \"#utility.yul\":470:533   */\n    tag_198:\n        /* \"#utility.yul\":417:539   */\n      pop\n      jump\t// out\n        /* \"#utility.yul\":545:684   */\n    tag_129:\n        /* \"#utility.yul\":591:596   */\n      0x00\n        /* \"#utility.yul\":629:635   */\n      dup2\n        /* \"#utility.yul\":616:636   */\n      calldataload\n        /* \"#utility.yul\":607:636   */\n      swap1\n      pop\n        /* \"#utility.yul\":645:678   */\n      tag_200\n        /* \"#utility.yul\":672:677   */\n      dup2\n        /* \"#utility.yul\":645:678   */\n      tag_128\n      jump\t// in\n    tag_200:\n        /* \"#utility.yul\":545:684   */\n      swap3\n      swap2\n      pop\n      pop\n      jump\t// out\n        /* \"#utility.yul\":690:1019   */\n    tag_11:\n        /* \"#utility.yul\":749:755   */\n      0x00\n        /* \"#utility.yul\":798:800   */\n      0x20\n        /* \"#utility.yul\":786:795   */\n      dup3\n        /* \"#utility.yul\":777:784   */\n      dup5\n        /* \"#utility.yul\":773:796   */\n      sub\n        /* \"#utility.yul\":769:801   */\n      slt\n        /* \"#utility.yul\":766:885   */\n      iszero\n      tag_202\n      jumpi\n        /* \"#utility.yul\":804:883   */\n      tag_203\n      tag_125\n      jump\t// in\n    tag_203:\n        /* \"#utility.yul\":766:885   */\n    tag_202:\n        /* \"#utility.yul\":924:925   */\n      0x00\n        /* \"#utility.yul\":949:1002   */\n      tag_204\n        /* \"#utility.yul\":994:1001   */\n      dup5\n        /* \"#utility.yul\":985:991   */\n      dup3\n        /* \"#utility.yul\":974:983   */\n      dup6\n        /* \"#utility.yul\":970:992   */\n      add\n        /* \"#utility.yul\":949:1002   */\n      tag_129\n      jump\t// in\n    tag_204:\n        /* \"#utility.yul\":939:1002   */\n      swap2\n      pop\n        /* \"#utility.yul\":895:1012   */\n      pop\n        /* \"#utility.yul\":690:1019   */\n      swap3\n      swap2\n      pop\n      pop\n      jump\t// out\n        /* \"#utility.yul\":1025:1139   */\n    tag_130:\n        /* \"#utility.yul\":1092:1098   */\n      0x00\n        /* \"#utility.yul\":1126:1131   */\n      dup2\n        /* \"#utility.yul\":1120:1132   */\n      mload\n        /* \"#utility.yul\":1110:1132   */\n      swap1\n      pop\n        /* \"#utility.yul\":1025:1139   */\n      swap2\n      swap1\n      pop\n      jump\t// out\n        /* \"#utility.yul\":1145:1329   */\n    tag_131:\n        /* \"#utility.yul\":1244:1255   */\n      0x00\n        /* \"#utility.yul\":1278:1284   */\n      dup3\n        /* \"#utility.yul\":1273:1276   */\n      dup3\n        /* \"#utility.yul\":1266:1285   */\n      mstore\n        /* \"#utility.yul\":1318:1322   */\n      0x20\n        /* \"#utility.yul\":1313:1316   */\n      dup3\n        /* \"#utility.yul\":1309:1323   */\n      add\n        /* \"#utility.yul\":1294:1323   */\n      swap1\n      pop\n        /* \"#utility.yul\":1145:1329   */\n      swap3\n      swap2\n      pop\n      pop\n      jump\t// out\n        /* \"#utility.yul\":1335:1467   */\n    tag_132:\n        /* \"#utility.yul\":1402:1406   */\n      0x00\n        /* \"#utility.yul\":1425:1428   */\n      dup2\n        /* \"#utility.yul\":1417:1428   */\n      swap1\n      pop\n        /* \"#utility.yul\":1455:1459   */\n      0x20\n        /* \"#utility.yul\":1450:1453   */\n      dup3\n        /* \"#utility.yul\":1446:1460   */\n      add\n        /* \"#utility.yul\":1438:1460   */\n      swap1\n      pop\n        /* \"#utility.yul\":1335:1467   */\n      swap2\n      swap1\n      pop\n      jump\t// out\n        /* \"#utility.yul\":1473:1581   */\n    tag_133:\n        /* \"#utility.yul\":1550:1574   */\n      tag_209\n        /* \"#utility.yul\":1568:1573   */\n      dup2\n        /* \"#utility.yul\":1550:1574   */\n      tag_127\n      jump\t// in\n    tag_209:\n        /* \"#utility.yul\":1545:1548   */\n      dup3\n        /* \"#utility.yul\":1538:1575   */\n      mstore\n        /* \"#utility.yul\":1473:1581   */\n      pop\n      pop\n      jump\t// out\n        /* \"#utility.yul\":1587:1766   */\n    tag_134:\n        /* \"#utility.yul\":1656:1666   */\n      0x00\n        /* \"#utility.yul\":1677:1723   */\n      tag_211\n        /* \"#utility.yul\":1719:1722   */\n      dup4\n        /* \"#utility.yul\":1711:1717   */\n      dup4\n        /* \"#utility.yul\":1677:1723   */\n      tag_133\n      jump\t// in\n    tag_211:\n        /* \"#utility.yul\":1755:1759   */\n      0x20\n        /* \"#utility.yul\":1750:1753   */\n      dup4\n        /* \"#utility.yul\":1746:1760   */\n      add\n        /* \"#utility.yul\":1732:1760   */\n      swap1\n      pop\n        /* \"#utility.yul\":1587:1766   */\n      swap3\n      swap2\n      pop\n      pop\n      jump\t// out\n        /* \"#utility.yul\":1772:1885   */\n    tag_135:\n        /* \"#utility.yul\":1842:1846   */\n      0x00\n        /* \"#utility.yul\":1874:1878   */\n      0x20\n        /* \"#utility.yul\":1869:1872   */\n      dup3\n        /* \"#utility.yul\":1865:1879   */\n      add\n        /* \"#utility.yul\":1857:1879   */\n      swap1\n      pop\n        /* \"#utility.yul\":1772:1885   */\n      swap2\n      swap1\n      pop\n      jump\t// out\n        /* \"#utility.yul\":1921:2653   */\n    tag_136:\n        /* \"#utility.yul\":2040:2043   */\n      0x00\n        /* \"#utility.yul\":2069:2123   */\n      tag_214\n        /* \"#utility.yul\":2117:2122   */\n      dup3\n        /* \"#utility.yul\":2069:2123   */\n      tag_130\n      jump\t// in\n    tag_214:\n        /* \"#utility.yul\":2139:2225   */\n      tag_215\n        /* \"#utility.yul\":2218:2224   */\n      dup2\n        /* \"#utility.yul\":2213:2216   */\n      dup6\n        /* \"#utility.yul\":2139:2225   */\n      tag_131\n      jump\t// in\n    tag_215:\n        /* \"#utility.yul\":2132:2225   */\n      swap4\n      pop\n        /* \"#utility.yul\":2249:2305   */\n      tag_216\n        /* \"#utility.yul\":2299:2304   */\n      dup4\n        /* \"#utility.yul\":2249:2305   */\n      tag_132\n      jump\t// in\n    tag_216:\n        /* \"#utility.yul\":2328:2335   */\n      dup1\n        /* \"#utility.yul\":2359:2360   */\n      0x00\n        /* \"#utility.yul\":2344:2628   */\n    tag_217:\n        /* \"#utility.yul\":2369:2375   */\n      dup4\n        /* \"#utility.yul\":2366:2367   */\n      dup2\n        /* \"#utility.yul\":2363:2376   */\n      lt\n        /* \"#utility.yul\":2344:2628   */\n      iszero\n      tag_219\n      jumpi\n        /* \"#utility.yul\":2445:2451   */\n      dup2\n        /* \"#utility.yul\":2439:2452   */\n      mload\n        /* \"#utility.yul\":2472:2535   */\n      tag_220\n        /* \"#utility.yul\":2531:2534   */\n      dup9\n        /* \"#utility.yul\":2516:2529   */\n      dup3\n        /* \"#utility.yul\":2472:2535   */\n      tag_134\n      jump\t// in\n    tag_220:\n        /* \"#utility.yul\":2465:2535   */\n      swap8\n      pop\n        /* \"#utility.yul\":2558:2618   */\n      tag_221\n        /* \"#utility.yul\":2611:2617   */\n      dup4\n        /* \"#utility.yul\":2558:2618   */\n      tag_135\n      jump\t// in\n    tag_221:\n        /* \"#utility.yul\":2548:2618   */\n      swap3\n      pop\n        /* \"#utility.yul\":2404:2628   */\n      pop\n        /* \"#utility.yul\":2391:2392   */\n      0x01\n        /* \"#utility.yul\":2388:2389   */\n      dup2\n        /* \"#utility.yul\":2384:2393   */\n      add\n        /* \"#utility.yul\":2379:2393   */\n      swap1\n      pop\n        /* \"#utility.yul\":2344:2628   */\n      jump(tag_217)\n    tag_219:\n        /* \"#utility.yul\":2348:2362   */\n      pop\n        /* \"#utility.yul\":2644:2647   */\n      dup6\n        /* \"#utility.yul\":2637:2647   */\n      swap4\n      pop\n        /* \"#utility.yul\":2045:2653   */\n      pop\n      pop\n      pop\n        /* \"#utility.yul\":1921:2653   */\n      swap3\n      swap2\n      pop\n      pop\n      jump\t// out\n        /* \"#utility.yul\":2659:3032   */\n    tag_14:\n        /* \"#utility.yul\":2802:2806   */\n      0x00\n        /* \"#utility.yul\":2840:2842   */\n      0x20\n        /* \"#utility.yul\":2829:2838   */\n      dup3\n        /* \"#utility.yul\":2825:2843   */\n      add\n        /* \"#utility.yul\":2817:2843   */\n      swap1\n      pop\n        /* \"#utility.yul\":2889:2898   */\n      dup2\n        /* \"#utility.yul\":2883:2887   */\n      dup2\n        /* \"#utility.yul\":2879:2899   */\n      sub\n        /* \"#utility.yul\":2875:2876   */\n      0x00\n        /* \"#utility.yul\":2864:2873   */\n      dup4\n        /* \"#utility.yul\":2860:2877   */\n      add\n        /* \"#utility.yul\":2853:2900   */\n      mstore\n        /* \"#utility.yul\":2917:3025   */\n      tag_223\n        /* \"#utility.yul\":3020:3024   */\n      dup2\n        /* \"#utility.yul\":3011:3017   */\n      dup5\n        /* \"#utility.yul\":2917:3025   */\n      tag_136\n      jump\t// in\n    tag_223:\n        /* \"#utility.yul\":2909:3025   */\n      swap1\n      pop\n        /* \"#utility.yul\":2659:3032   */\n      swap3\n      swap2\n      pop\n      pop\n      jump\t// out\n        /* \"#utility.yul\":3038:3155   */\n    tag_137:\n        /* \"#utility.yul\":3147:3148   */\n      0x00\n        /* \"#utility.yul\":3144:3145   */\n      0x00\n        /* \"#utility.yul\":3137:3149   */\n      revert\n        /* \"#utility.yul\":3161:3278   */\n    tag_138:\n        /* \"#utility.yul\":3270:3271   */\n      0x00\n        /* \"#utility.yul\":3267:3268   */\n      0x00\n        /* \"#utility.yul\":3260:3272   */\n      revert\n        /* \"#utility.yul\":3284:3386   */\n    tag_139:\n        /* \"#utility.yul\":3325:3331   */\n      0x00\n        /* \"#utility.yul\":3376:3378   */\n      0x1f\n        /* \"#utility.yul\":3372:3379   */\n      not\n        /* \"#utility.yul\":3367:3369   */\n      0x1f\n        /* \"#utility.yul\":3360:3365   */\n      dup4\n        /* \"#utility.yul\":3356:3370   */\n      add\n        /* \"#utility.yul\":3352:3380   */\n      and\n        /* \"#utility.yul\":3342:3380   */\n      swap1\n      pop\n        /* \"#utility.yul\":3284:3386   */\n      swap2\n      swap1\n      pop\n      jump\t// out\n        /* \"#utility.yul\":3392:3572   */\n    tag_43:\n        /* \"#utility.yul\":3440:3517   */\n      0x4e487b7100000000000000000000000000000000000000000000000000000000\n        /* \"#utility.yul\":3437:3438   */\n      0x00\n        /* \"#utility.yul\":3430:3518   */\n      mstore\n        /* \"#utility.yul\":3537:3541   */\n      0x41\n        /* \"#utility.yul\":3534:3535   */\n      0x04\n        /* \"#utility.yul\":3527:3542   */\n      mstore\n        /* \"#utility.yul\":3561:3565   */\n      0x24\n        /* \"#utility.yul\":3558:3559   */\n      0x00\n        /* \"#utility.yul\":3551:3566   */\n      revert\n        /* \"#utility.yul\":3578:3859   */\n    tag_140:\n        /* \"#utility.yul\":3661:3688   */\n      tag_229\n        /* \"#utility.yul\":3683:3687   */\n      dup3\n        /* \"#utility.yul\":3661:3688   */\n      tag_139\n      jump\t// in\n    tag_229:\n        /* \"#utility.yul\":3653:3659   */\n      dup2\n        /* \"#utility.yul\":3649:3689   */\n      add\n        /* \"#utility.yul\":3791:3797   */\n      dup2\n        /* \"#utility.yul\":3779:3789   */\n      dup2\n        /* \"#utility.yul\":3776:3798   */\n      lt\n        /* \"#utility.yul\":3755:3773   */\n      0xffffffffffffffff\n        /* \"#utility.yul\":3743:3753   */\n      dup3\n        /* \"#utility.yul\":3740:3774   */\n      gt\n        /* \"#utility.yul\":3737:3799   */\n      or\n        /* \"#utility.yul\":3734:3822   */\n      iszero\n      tag_230\n      jumpi\n        /* \"#utility.yul\":3802:3820   */\n      tag_231\n      tag_43\n      jump\t// in\n    tag_231:\n        /* \"#utility.yul\":3734:3822   */\n    tag_230:\n        /* \"#utility.yul\":3842:3852   */\n      dup1\n        /* \"#utility.yul\":3838:3840   */\n      0x40\n        /* \"#utility.yul\":3831:3853   */\n      mstore\n        /* \"#utility.yul\":3621:3859   */\n      pop\n        /* \"#utility.yul\":3578:3859   */\n      pop\n      pop\n      jump\t// out\n        /* \"#utility.yul\":3865:3994   */\n    tag_141:\n        /* \"#utility.yul\":3899:3905   */\n      0x00\n        /* \"#utility.yul\":3926:3946   */\n      tag_233\n      tag_124\n      jump\t// in\n    tag_233:\n        /* \"#utility.yul\":3916:3946   */\n      swap1\n      pop\n        /* \"#utility.yul\":3955:3988   */\n      tag_234\n        /* \"#utility.yul\":3983:3987   */\n      dup3\n        /* \"#utility.yul\":3975:3981   */\n      dup3\n        /* \"#utility.yul\":3955:3988   */\n      tag_140\n      jump\t// in\n    tag_234:\n        /* \"#utility.yul\":3865:3994   */\n      swap2\n      swap1\n      pop\n      jump\t// out\n        /* \"#utility.yul\":4000:4308   */\n    tag_142:\n        /* \"#utility.yul\":4062:4066   */\n      0x00\n        /* \"#utility.yul\":4152:4170   */\n      0xffffffffffffffff\n        /* \"#utility.yul\":4144:4150   */\n      dup3\n        /* \"#utility.yul\":4141:4171   */\n      gt\n        /* \"#utility.yul\":4138:4194   */\n      iszero\n      tag_236\n      jumpi\n        /* \"#utility.yul\":4174:4192   */\n      tag_237\n      tag_43\n      jump\t// in\n    tag_237:\n        /* \"#utility.yul\":4138:4194   */\n    tag_236:\n        /* \"#utility.yul\":4212:4241   */\n      tag_238\n        /* \"#utility.yul\":4234:4240   */\n      dup3\n        /* \"#utility.yul\":4212:4241   */\n      tag_139\n      jump\t// in\n    tag_238:\n        /* \"#utility.yul\":4204:4241   */\n      swap1\n      pop\n        /* \"#utility.yul\":4296:4300   */\n      0x20\n        /* \"#utility.yul\":4290:4294   */\n      dup2\n        /* \"#utility.yul\":4286:4301   */\n      add\n        /* \"#utility.yul\":4278:4301   */\n      swap1\n      pop\n        /* \"#utility.yul\":4000:4308   */\n      swap2\n      swap1\n      pop\n      jump\t// out\n        /* \"#utility.yul\":4314:4462   */\n    tag_143:\n        /* \"#utility.yul\":4412:4418   */\n      dup3\n        /* \"#utility.yul\":4407:4410   */\n      dup2\n        /* \"#utility.yul\":4402:4405   */\n      dup4\n        /* \"#utility.yul\":4389:4419   */\n      calldatacopy\n        /* \"#utility.yul\":4453:4454   */\n      0x00\n        /* \"#utility.yul\":4444:4450   */\n      dup4\n        /* \"#utility.yul\":4439:4442   */\n      dup4\n        /* \"#utility.yul\":4435:4451   */\n      add\n        /* \"#utility.yul\":4428:4455   */\n      mstore\n        /* \"#utility.yul\":4314:4462   */\n      pop\n      pop\n      pop\n      jump\t// out\n        /* \"#utility.yul\":4468:4893   */\n    tag_144:\n        /* \"#utility.yul\":4546:4551   */\n      0x00\n        /* \"#utility.yul\":4571:4637   */\n      tag_241\n        /* \"#utility.yul\":4587:4636   */\n      tag_242\n        /* \"#utility.yul\":4629:4635   */\n      dup5\n        /* \"#utility.yul\":4587:4636   */\n      tag_142\n      jump\t// in\n    tag_242:\n        /* \"#utility.yul\":4571:4637   */\n      tag_141\n      jump\t// in\n    tag_241:\n        /* \"#utility.yul\":4562:4637   */\n      swap1\n      pop\n        /* \"#utility.yul\":4660:4666   */\n      dup3\n        /* \"#utility.yul\":4653:4658   */\n      dup2\n        /* \"#utility.yul\":4646:4667   */\n      mstore\n        /* \"#utility.yul\":4698:4702   */\n      0x20\n        /* \"#utility.yul\":4691:4696   */\n      dup2\n        /* \"#utility.yul\":4687:4703   */\n      add\n        /* \"#utility.yul\":4736:4739   */\n      dup5\n        /* \"#utility.yul\":4727:4733   */\n      dup5\n        /* \"#utility.yul\":4722:4725   */\n      dup5\n        /* \"#utility.yul\":4718:4734   */\n      add\n        /* \"#utility.yul\":4715:4740   */\n      gt\n        /* \"#utility.yul\":4712:4824   */\n      iszero\n      tag_243\n      jumpi\n        /* \"#utility.yul\":4743:4822   */\n      tag_244\n      tag_138\n      jump\t// in\n    tag_244:\n        /* \"#utility.yul\":4712:4824   */\n    tag_243:\n        /* \"#utility.yul\":4833:4887   */\n      tag_245\n        /* \"#utility.yul\":4880:4886   */\n      dup5\n        /* \"#utility.yul\":4875:4878   */\n      dup3\n        /* \"#utility.yul\":4870:4873   */\n      dup6\n        /* \"#utility.yul\":4833:4887   */\n      tag_143\n      jump\t// in\n    tag_245:\n        /* \"#utility.yul\":4552:4893   */\n      pop\n        /* \"#utility.yul\":4468:4893   */\n      swap4\n      swap3\n      pop\n      pop\n      pop\n      jump\t// out\n        /* \"#utility.yul\":4913:5253   */\n    tag_145:\n        /* \"#utility.yul\":4969:4974   */\n      0x00\n        /* \"#utility.yul\":5018:5021   */\n      dup3\n        /* \"#utility.yul\":5011:5015   */\n      0x1f\n        /* \"#utility.yul\":5003:5009   */\n      dup4\n        /* \"#utility.yul\":4999:5016   */\n      add\n        /* \"#utility.yul\":4995:5022   */\n      slt\n        /* \"#utility.yul\":4985:5107   */\n      tag_247\n      jumpi\n        /* \"#utility.yul\":5026:5105   */\n      tag_248\n      tag_137\n      jump\t// in\n    tag_248:\n        /* \"#utility.yul\":4985:5107   */\n    tag_247:\n        /* \"#utility.yul\":5143:5149   */\n      dup2\n        /* \"#utility.yul\":5130:5150   */\n      calldataload\n        /* \"#utility.yul\":5168:5247   */\n      tag_249\n        /* \"#utility.yul\":5243:5246   */\n      dup5\n        /* \"#utility.yul\":5235:5241   */\n      dup3\n        /* \"#utility.yul\":5228:5232   */\n      0x20\n        /* \"#utility.yul\":5220:5226   */\n      dup7\n        /* \"#utility.yul\":5216:5233   */\n      add\n        /* \"#utility.yul\":5168:5247   */\n      tag_144\n      jump\t// in\n    tag_249:\n        /* \"#utility.yul\":5159:5247   */\n      swap2\n      pop\n        /* \"#utility.yul\":4975:5253   */\n      pop\n        /* \"#utility.yul\":4913:5253   */\n      swap3\n      swap2\n      pop\n      pop\n      jump\t// out\n        /* \"#utility.yul\":5259:5768   */\n    tag_17:\n        /* \"#utility.yul\":5328:5334   */\n      0x00\n        /* \"#utility.yul\":5377:5379   */\n      0x20\n        /* \"#utility.yul\":5365:5374   */\n      dup3\n        /* \"#utility.yul\":5356:5363   */\n      dup5\n        /* \"#utility.yul\":5352:5375   */\n      sub\n        /* \"#utility.yul\":5348:5380   */\n      slt\n        /* \"#utility.yul\":5345:5464   */\n      iszero\n      tag_251\n      jumpi\n        /* \"#utility.yul\":5383:5462   */\n      tag_252\n      tag_125\n      jump\t// in\n    tag_252:\n        /* \"#utility.yul\":5345:5464   */\n    tag_251:\n        /* \"#utility.yul\":5531:5532   */\n      0x00\n        /* \"#utility.yul\":5520:5529   */\n      dup3\n        /* \"#utility.yul\":5516:5533   */\n      add\n        /* \"#utility.yul\":5503:5534   */\n      calldataload\n        /* \"#utility.yul\":5561:5579   */\n      0xffffffffffffffff\n        /* \"#utility.yul\":5553:5559   */\n      dup2\n        /* \"#utility.yul\":5550:5580   */\n      gt\n        /* \"#utility.yul\":5547:5664   */\n      iszero\n      tag_253\n      jumpi\n        /* \"#utility.yul\":5583:5662   */\n      tag_254\n      tag_126\n      jump\t// in\n    tag_254:\n        /* \"#utility.yul\":5547:5664   */\n    tag_253:\n        /* \"#utility.yul\":5688:5751   */\n      tag_255\n        /* \"#utility.yul\":5743:5750   */\n      dup5\n        /* \"#utility.yul\":5734:5740   */\n      dup3\n        /* \"#utility.yul\":5723:5732   */\n      dup6\n        /* \"#utility.yul\":5719:5741   */\n      add\n        /* \"#utility.yul\":5688:5751   */\n      tag_145\n      jump\t// in\n    tag_255:\n        /* \"#utility.yul\":5678:5751   */\n      swap2\n      pop\n        /* \"#utility.yul\":5474:5761   */\n      pop\n        /* \"#utility.yul\":5259:5768   */\n      swap3\n      swap2\n      pop\n      pop\n      jump\t// out\n        /* \"#utility.yul\":5774:6095   */\n    tag_146:\n        /* \"#utility.yul\":5861:5865   */\n      0x00\n        /* \"#utility.yul\":5951:5969   */\n      0xffffffffffffffff\n        /* \"#utility.yul\":5943:5949   */\n      dup3\n        /* \"#utility.yul\":5940:5970   */\n      gt\n        /* \"#utility.yul\":5937:5993   */\n      iszero\n      tag_257\n      jumpi\n        /* \"#utility.yul\":5973:5991   */\n      tag_258\n      tag_43\n      jump\t// in\n    tag_258:\n        /* \"#utility.yul\":5937:5993   */\n    tag_257:\n        /* \"#utility.yul\":6023:6027   */\n      0x20\n        /* \"#utility.yul\":6015:6021   */\n      dup3\n        /* \"#utility.yul\":6011:6028   */\n      mul\n        /* \"#utility.yul\":6003:6028   */\n      swap1\n      pop\n        /* \"#utility.yul\":6083:6087   */\n      0x20\n        /* \"#utility.yul\":6077:6081   */\n      dup2\n        /* \"#utility.yul\":6073:6088   */\n      add\n        /* \"#utility.yul\":6065:6088   */\n      swap1\n      pop\n        /* \"#utility.yul\":5774:6095   */\n      swap2\n      swap1\n      pop\n      jump\t// out\n        /* \"#utility.yul\":6101:6218   */\n    tag_147:\n        /* \"#utility.yul\":6210:6211   */\n      0x00\n        /* \"#utility.yul\":6207:6208   */\n      0x00\n        /* \"#utility.yul\":6200:6212   */\n      revert\n        /* \"#utility.yul\":6240:7185   */\n    tag_148:\n        /* \"#utility.yul\":6346:6351   */\n      0x00\n        /* \"#utility.yul\":6371:6462   */\n      tag_261\n        /* \"#utility.yul\":6387:6461   */\n      tag_262\n        /* \"#utility.yul\":6454:6460   */\n      dup5\n        /* \"#utility.yul\":6387:6461   */\n      tag_146\n      jump\t// in\n    tag_262:\n        /* \"#utility.yul\":6371:6462   */\n      tag_141\n      jump\t// in\n    tag_261:\n        /* \"#utility.yul\":6362:6462   */\n      swap1\n      pop\n        /* \"#utility.yul\":6482:6487   */\n      dup1\n        /* \"#utility.yul\":6511:6517   */\n      dup4\n        /* \"#utility.yul\":6504:6509   */\n      dup3\n        /* \"#utility.yul\":6497:6518   */\n      mstore\n        /* \"#utility.yul\":6545:6549   */\n      0x20\n        /* \"#utility.yul\":6538:6543   */\n      dup3\n        /* \"#utility.yul\":6534:6550   */\n      add\n        /* \"#utility.yul\":6527:6550   */\n      swap1\n      pop\n        /* \"#utility.yul\":6598:6602   */\n      0x20\n        /* \"#utility.yul\":6590:6596   */\n      dup5\n        /* \"#utility.yul\":6586:6603   */\n      mul\n        /* \"#utility.yul\":6578:6584   */\n      dup4\n        /* \"#utility.yul\":6574:6604   */\n      add\n        /* \"#utility.yul\":6627:6630   */\n      dup6\n        /* \"#utility.yul\":6619:6625   */\n      dup2\n        /* \"#utility.yul\":6616:6631   */\n      gt\n        /* \"#utility.yul\":6613:6735   */\n      iszero\n      tag_263\n      jumpi\n        /* \"#utility.yul\":6646:6725   */\n      tag_264\n      tag_147\n      jump\t// in\n    tag_264:\n        /* \"#utility.yul\":6613:6735   */\n    tag_263:\n        /* \"#utility.yul\":6761:6767   */\n      dup4\n        /* \"#utility.yul\":6744:7179   */\n    tag_265:\n        /* \"#utility.yul\":6778:6784   */\n      dup2\n        /* \"#utility.yul\":6773:6776   */\n      dup2\n        /* \"#utility.yul\":6770:6785   */\n      lt\n        /* \"#utility.yul\":6744:7179   */\n      iszero\n      tag_267\n      jumpi\n        /* \"#utility.yul\":6867:6870   */\n      dup1\n        /* \"#utility.yul\":6854:6871   */\n      calldataload\n        /* \"#utility.yul\":6903:6921   */\n      0xffffffffffffffff\n        /* \"#utility.yul\":6890:6901   */\n      dup2\n        /* \"#utility.yul\":6887:6922   */\n      gt\n        /* \"#utility.yul\":6884:7006   */\n      iszero\n      tag_268\n      jumpi\n        /* \"#utility.yul\":6925:7004   */\n      tag_269\n      tag_137\n      jump\t// in\n    tag_269:\n        /* \"#utility.yul\":6884:7006   */\n    tag_268:\n        /* \"#utility.yul\":7049:7060   */\n      dup1\n        /* \"#utility.yul\":7041:7047   */\n      dup7\n        /* \"#utility.yul\":7037:7061   */\n      add\n        /* \"#utility.yul\":7087:7134   */\n      tag_270\n        /* \"#utility.yul\":7130:7133   */\n      dup10\n        /* \"#utility.yul\":7118:7128   */\n      dup3\n        /* \"#utility.yul\":7087:7134   */\n      tag_145\n      jump\t// in\n    tag_270:\n        /* \"#utility.yul\":7082:7085   */\n      dup6\n        /* \"#utility.yul\":7075:7135   */\n      mstore\n        /* \"#utility.yul\":7164:7168   */\n      0x20\n        /* \"#utility.yul\":7159:7162   */\n      dup6\n        /* \"#utility.yul\":7155:7169   */\n      add\n        /* \"#utility.yul\":7148:7169   */\n      swap5\n      pop\n        /* \"#utility.yul\":6820:7179   */\n      pop\n      pop\n        /* \"#utility.yul\":6804:6808   */\n      0x20\n        /* \"#utility.yul\":6799:6802   */\n      dup2\n        /* \"#utility.yul\":6795:6809   */\n      add\n        /* \"#utility.yul\":6788:6809   */\n      swap1\n      pop\n        /* \"#utility.yul\":6744:7179   */\n      jump(tag_265)\n    tag_267:\n        /* \"#utility.yul\":6748:6769   */\n      pop\n        /* \"#utility.yul\":6352:7185   */\n      pop\n      pop\n        /* \"#utility.yul\":6240:7185   */\n      swap4\n      swap3\n      pop\n      pop\n      pop\n      jump\t// out\n        /* \"#utility.yul\":7207:7597   */\n    tag_149:\n        /* \"#utility.yul\":7288:7293   */\n      0x00\n        /* \"#utility.yul\":7337:7340   */\n      dup3\n        /* \"#utility.yul\":7330:7334   */\n      0x1f\n        /* \"#utility.yul\":7322:7328   */\n      dup4\n        /* \"#utility.yul\":7318:7335   */\n      add\n        /* \"#utility.yul\":7314:7341   */\n      slt\n        /* \"#utility.yul\":7304:7426   */\n      tag_272\n      jumpi\n        /* \"#utility.yul\":7345:7424   */\n      tag_273\n      tag_137\n      jump\t// in\n    tag_273:\n        /* \"#utility.yul\":7304:7426   */\n    tag_272:\n        /* \"#utility.yul\":7462:7468   */\n      dup2\n        /* \"#utility.yul\":7449:7469   */\n      calldataload\n        /* \"#utility.yul\":7487:7591   */\n      tag_274\n        /* \"#utility.yul\":7587:7590   */\n      dup5\n        /* \"#utility.yul\":7579:7585   */\n      dup3\n        /* \"#utility.yul\":7572:7576   */\n      0x20\n        /* \"#utility.yul\":7564:7570   */\n      dup7\n        /* \"#utility.yul\":7560:7577   */\n      add\n        /* \"#utility.yul\":7487:7591   */\n      tag_148\n      jump\t// in\n    tag_274:\n        /* \"#utility.yul\":7478:7591   */\n      swap2\n      pop\n        /* \"#utility.yul\":7294:7597   */\n      pop\n        /* \"#utility.yul\":7207:7597   */\n      swap3\n      swap2\n      pop\n      pop\n      jump\t// out\n        /* \"#utility.yul\":7603:9626   */\n    tag_21:\n        /* \"#utility.yul\":7806:7812   */\n      0x00\n        /* \"#utility.yul\":7814:7820   */\n      0x00\n        /* \"#utility.yul\":7822:7828   */\n      0x00\n        /* \"#utility.yul\":7830:7836   */\n      0x00\n        /* \"#utility.yul\":7838:7844   */\n      0x00\n        /* \"#utility.yul\":7846:7852   */\n      0x00\n        /* \"#utility.yul\":7854:7860   */\n      0x00\n        /* \"#utility.yul\":7903:7906   */\n      0xe0\n        /* \"#utility.yul\":7891:7900   */\n      dup9\n        /* \"#utility.yul\":7882:7889   */\n      dup11\n        /* \"#utility.yul\":7878:7901   */\n      sub\n        /* \"#utility.yul\":7874:7907   */\n      slt\n        /* \"#utility.yul\":7871:7991   */\n      iszero\n      tag_276\n      jumpi\n        /* \"#utility.yul\":7910:7989   */\n      tag_277\n      tag_125\n      jump\t// in\n    tag_277:\n        /* \"#utility.yul\":7871:7991   */\n    tag_276:\n        /* \"#utility.yul\":8030:8031   */\n      0x00\n        /* \"#utility.yul\":8055:8108   */\n      tag_278\n        /* \"#utility.yul\":8100:8107   */\n      dup11\n        /* \"#utility.yul\":8091:8097   */\n      dup3\n        /* \"#utility.yul\":8080:8089   */\n      dup12\n        /* \"#utility.yul\":8076:8098   */\n      add\n        /* \"#utility.yul\":8055:8108   */\n      tag_129\n      jump\t// in\n    tag_278:\n        /* \"#utility.yul\":8045:8108   */\n      swap8\n      pop\n        /* \"#utility.yul\":8001:8118   */\n      pop\n        /* \"#utility.yul\":8185:8187   */\n      0x20\n        /* \"#utility.yul\":8174:8183   */\n      dup9\n        /* \"#utility.yul\":8170:8188   */\n      add\n        /* \"#utility.yul\":8157:8189   */\n      calldataload\n        /* \"#utility.yul\":8216:8234   */\n      0xffffffffffffffff\n        /* \"#utility.yul\":8208:8214   */\n      dup2\n        /* \"#utility.yul\":8205:8235   */\n      gt\n        /* \"#utility.yul\":8202:8319   */\n      iszero\n      tag_279\n      jumpi\n        /* \"#utility.yul\":8238:8317   */\n      tag_280\n      tag_126\n      jump\t// in\n    tag_280:\n        /* \"#utility.yul\":8202:8319   */\n    tag_279:\n        /* \"#utility.yul\":8343:8406   */\n      tag_281\n        /* \"#utility.yul\":8398:8405   */\n      dup11\n        /* \"#utility.yul\":8389:8395   */\n      dup3\n        /* \"#utility.yul\":8378:8387   */\n      dup12\n        /* \"#utility.yul\":8374:8396   */\n      add\n        /* \"#utility.yul\":8343:8406   */\n      tag_145\n      jump\t// in\n    tag_281:\n        /* \"#utility.yul\":8333:8406   */\n      swap7\n      pop\n        /* \"#utility.yul\":8128:8416   */\n      pop\n        /* \"#utility.yul\":8483:8485   */\n      0x40\n        /* \"#utility.yul\":8472:8481   */\n      dup9\n        /* \"#utility.yul\":8468:8486   */\n      add\n        /* \"#utility.yul\":8455:8487   */\n      calldataload\n        /* \"#utility.yul\":8514:8532   */\n      0xffffffffffffffff\n        /* \"#utility.yul\":8506:8512   */\n      dup2\n        /* \"#utility.yul\":8503:8533   */\n      gt\n        /* \"#utility.yul\":8500:8617   */\n      iszero\n      tag_282\n      jumpi\n        /* \"#utility.yul\":8536:8615   */\n      tag_283\n      tag_126\n      jump\t// in\n    tag_283:\n        /* \"#utility.yul\":8500:8617   */\n    tag_282:\n        /* \"#utility.yul\":8641:8704   */\n      tag_284\n        /* \"#utility.yul\":8696:8703   */\n      dup11\n        /* \"#utility.yul\":8687:8693   */\n      dup3\n        /* \"#utility.yul\":8676:8685   */\n      dup12\n        /* \"#utility.yul\":8672:8694   */\n      add\n        /* \"#utility.yul\":8641:8704   */\n      tag_145\n      jump\t// in\n    tag_284:\n        /* \"#utility.yul\":8631:8704   */\n      swap6\n      pop\n        /* \"#utility.yul\":8426:8714   */\n      pop\n        /* \"#utility.yul\":8781:8783   */\n      0x60\n        /* \"#utility.yul\":8770:8779   */\n      dup9\n        /* \"#utility.yul\":8766:8784   */\n      add\n        /* \"#utility.yul\":8753:8785   */\n      calldataload\n        /* \"#utility.yul\":8812:8830   */\n      0xffffffffffffffff\n        /* \"#utility.yul\":8804:8810   */\n      dup2\n        /* \"#utility.yul\":8801:8831   */\n      gt\n        /* \"#utility.yul\":8798:8915   */\n      iszero\n      tag_285\n      jumpi\n        /* \"#utility.yul\":8834:8913   */\n      tag_286\n      tag_126\n      jump\t// in\n    tag_286:\n        /* \"#utility.yul\":8798:8915   */\n    tag_285:\n        /* \"#utility.yul\":8939:9027   */\n      tag_287\n        /* \"#utility.yul\":9019:9026   */\n      dup11\n        /* \"#utility.yul\":9010:9016   */\n      dup3\n        /* \"#utility.yul\":8999:9008   */\n      dup12\n        /* \"#utility.yul\":8995:9017   */\n      add\n        /* \"#utility.yul\":8939:9027   */\n      tag_149\n      jump\t// in\n    tag_287:\n        /* \"#utility.yul\":8929:9027   */\n      swap5\n      pop\n        /* \"#utility.yul\":8724:9037   */\n      pop\n        /* \"#utility.yul\":9104:9107   */\n      0x80\n        /* \"#utility.yul\":9093:9102   */\n      dup9\n        /* \"#utility.yul\":9089:9108   */\n      add\n        /* \"#utility.yul\":9076:9109   */\n      calldataload\n        /* \"#utility.yul\":9136:9154   */\n      0xffffffffffffffff\n        /* \"#utility.yul\":9128:9134   */\n      dup2\n        /* \"#utility.yul\":9125:9155   */\n      gt\n        /* \"#utility.yul\":9122:9239   */\n      iszero\n      tag_288\n      jumpi\n        /* \"#utility.yul\":9158:9237   */\n      tag_289\n      tag_126\n      jump\t// in\n    tag_289:\n        /* \"#utility.yul\":9122:9239   */\n    tag_288:\n        /* \"#utility.yul\":9263:9351   */\n      tag_290\n        /* \"#utility.yul\":9343:9350   */\n      dup11\n        /* \"#utility.yul\":9334:9340   */\n      dup3\n        /* \"#utility.yul\":9323:9332   */\n      dup12\n        /* \"#utility.yul\":9319:9341   */\n      add\n        /* \"#utility.yul\":9263:9351   */\n      tag_149\n      jump\t// in\n    tag_290:\n        /* \"#utility.yul\":9253:9351   */\n      swap4\n      pop\n        /* \"#utility.yul\":9047:9361   */\n      pop\n        /* \"#utility.yul\":9400:9403   */\n      0xa0\n        /* \"#utility.yul\":9427:9480   */\n      tag_291\n        /* \"#utility.yul\":9472:9479   */\n      dup11\n        /* \"#utility.yul\":9463:9469   */\n      dup3\n        /* \"#utility.yul\":9452:9461   */\n      dup12\n        /* \"#utility.yul\":9448:9470   */\n      add\n        /* \"#utility.yul\":9427:9480   */\n      tag_129\n      jump\t// in\n    tag_291:\n        /* \"#utility.yul\":9417:9480   */\n      swap3\n      pop\n        /* \"#utility.yul\":9371:9490   */\n      pop\n        /* \"#utility.yul\":9529:9532   */\n      0xc0\n        /* \"#utility.yul\":9556:9609   */\n      tag_292\n        /* \"#utility.yul\":9601:9608   */\n      dup11\n        /* \"#utility.yul\":9592:9598   */\n      dup3\n        /* \"#utility.yul\":9581:9590   */\n      dup12\n        /* \"#utility.yul\":9577:9599   */\n      add\n        /* \"#utility.yul\":9556:9609   */\n      tag_129\n      jump\t// in\n    tag_292:\n        /* \"#utility.yul\":9546:9609   */\n      swap2\n      pop\n        /* \"#utility.yul\":9500:9619   */\n      pop\n        /* \"#utility.yul\":7603:9626   */\n      swap3\n      swap6\n      swap9\n      swap2\n      swap5\n      swap8\n      pop\n      swap3\n      swap6\n      pop\n      jump\t// out\n        /* \"#utility.yul\":9632:9750   */\n    tag_150:\n        /* \"#utility.yul\":9719:9743   */\n      tag_294\n        /* \"#utility.yul\":9737:9742   */\n      dup2\n        /* \"#utility.yul\":9719:9743   */\n      tag_127\n      jump\t// in\n    tag_294:\n        /* \"#utility.yul\":9714:9717   */\n      dup3\n        /* \"#utility.yul\":9707:9744   */\n      mstore\n        /* \"#utility.yul\":9632:9750   */\n      pop\n      pop\n      jump\t// out\n        /* \"#utility.yul\":9756:9855   */\n    tag_151:\n        /* \"#utility.yul\":9808:9814   */\n      0x00\n        /* \"#utility.yul\":9842:9847   */\n      dup2\n        /* \"#utility.yul\":9836:9848   */\n      mload\n        /* \"#utility.yul\":9826:9848   */\n      swap1\n      pop\n        /* \"#utility.yul\":9756:9855   */\n      swap2\n      swap1\n      pop\n      jump\t// out\n        /* \"#utility.yul\":9861:10030   */\n    tag_152:\n        /* \"#utility.yul\":9945:9956   */\n      0x00\n        /* \"#utility.yul\":9979:9985   */\n      dup3\n        /* \"#utility.yul\":9974:9977   */\n      dup3\n        /* \"#utility.yul\":9967:9986   */\n      mstore\n        /* \"#utility.yul\":10019:10023   */\n      0x20\n        /* \"#utility.yul\":10014:10017   */\n      dup3\n        /* \"#utility.yul\":10010:10024   */\n      add\n        /* \"#utility.yul\":9995:10024   */\n      swap1\n      pop\n        /* \"#utility.yul\":9861:10030   */\n      swap3\n      swap2\n      pop\n      pop\n      jump\t// out\n        /* \"#utility.yul\":10036:10175   */\n    tag_153:\n        /* \"#utility.yul\":10125:10131   */\n      dup3\n        /* \"#utility.yul\":10120:10123   */\n      dup2\n        /* \"#utility.yul\":10115:10118   */\n      dup4\n        /* \"#utility.yul\":10109:10132   */\n      mcopy\n        /* \"#utility.yul\":10166:10167   */\n      0x00\n        /* \"#utility.yul\":10157:10163   */\n      dup4\n        /* \"#utility.yul\":10152:10155   */\n      dup4\n        /* \"#utility.yul\":10148:10164   */\n      add\n        /* \"#utility.yul\":10141:10168   */\n      mstore\n        /* \"#utility.yul\":10036:10175   */\n      pop\n      pop\n      pop\n      jump\t// out\n        /* \"#utility.yul\":10181:10558   */\n    tag_154:\n        /* \"#utility.yul\":10269:10272   */\n      0x00\n        /* \"#utility.yul\":10297:10336   */\n      tag_299\n        /* \"#utility.yul\":10330:10335   */\n      dup3\n        /* \"#utility.yul\":10297:10336   */\n      tag_151\n      jump\t// in\n    tag_299:\n        /* \"#utility.yul\":10352:10423   */\n      tag_300\n        /* \"#utility.yul\":10416:10422   */\n      dup2\n        /* \"#utility.yul\":10411:10414   */\n      dup6\n        /* \"#utility.yul\":10352:10423   */\n      tag_152\n      jump\t// in\n    tag_300:\n        /* \"#utility.yul\":10345:10423   */\n      swap4\n      pop\n        /* \"#utility.yul\":10432:10497   */\n      tag_301\n        /* \"#utility.yul\":10490:10496   */\n      dup2\n        /* \"#utility.yul\":10485:10488   */\n      dup6\n        /* \"#utility.yul\":10478:10482   */\n      0x20\n        /* \"#utility.yul\":10471:10476   */\n      dup7\n        /* \"#utility.yul\":10467:10483   */\n      add\n        /* \"#utility.yul\":10432:10497   */\n      tag_153\n      jump\t// in\n    tag_301:\n        /* \"#utility.yul\":10522:10551   */\n      tag_302\n        /* \"#utility.yul\":10544:10550   */\n      dup2\n        /* \"#utility.yul\":10522:10551   */\n      tag_139\n      jump\t// in\n    tag_302:\n        /* \"#utility.yul\":10517:10520   */\n      dup5\n        /* \"#utility.yul\":10513:10552   */\n      add\n        /* \"#utility.yul\":10506:10552   */\n      swap2\n      pop\n        /* \"#utility.yul\":10273:10558   */\n      pop\n        /* \"#utility.yul\":10181:10558   */\n      swap3\n      swap2\n      pop\n      pop\n      jump\t// out\n        /* \"#utility.yul\":10564:10654   */\n    tag_155:\n        /* \"#utility.yul\":10598:10605   */\n      0x00\n        /* \"#utility.yul\":10641:10646   */\n      dup2\n        /* \"#utility.yul\":10634:10647   */\n      iszero\n        /* \"#utility.yul\":10627:10648   */\n      iszero\n        /* \"#utility.yul\":10616:10648   */\n      swap1\n      pop\n        /* \"#utility.yul\":10564:10654   */\n      swap2\n      swap1\n      pop\n      jump\t// out\n        /* \"#utility.yul\":10660:10769   */\n    tag_156:\n        /* \"#utility.yul\":10741:10762   */\n      tag_305\n        /* \"#utility.yul\":10756:10761   */\n      dup2\n        /* \"#utility.yul\":10741:10762   */\n      tag_155\n      jump\t// in\n    tag_305:\n        /* \"#utility.yul\":10736:10739   */\n      dup3\n        /* \"#utility.yul\":10729:10763   */\n      mstore\n        /* \"#utility.yul\":10660:10769   */\n      pop\n      pop\n      jump\t// out\n        /* \"#utility.yul\":10775:11831   */\n    tag_27:\n        /* \"#utility.yul\":11070:11074   */\n      0x00\n        /* \"#utility.yul\":11108:11111   */\n      0xe0\n        /* \"#utility.yul\":11097:11106   */\n      dup3\n        /* \"#utility.yul\":11093:11112   */\n      add\n        /* \"#utility.yul\":11085:11112   */\n      swap1\n      pop\n        /* \"#utility.yul\":11122:11193   */\n      tag_307\n        /* \"#utility.yul\":11190:11191   */\n      0x00\n        /* \"#utility.yul\":11179:11188   */\n      dup4\n        /* \"#utility.yul\":11175:11192   */\n      add\n        /* \"#utility.yul\":11166:11172   */\n      dup11\n        /* \"#utility.yul\":11122:11193   */\n      tag_150\n      jump\t// in\n    tag_307:\n        /* \"#utility.yul\":11203:11275   */\n      tag_308\n        /* \"#utility.yul\":11271:11273   */\n      0x20\n        /* \"#utility.yul\":11260:11269   */\n      dup4\n        /* \"#utility.yul\":11256:11274   */\n      add\n        /* \"#utility.yul\":11247:11253   */\n      dup10\n        /* \"#utility.yul\":11203:11275   */\n      tag_150\n      jump\t// in\n    tag_308:\n        /* \"#utility.yul\":11322:11331   */\n      dup2\n        /* \"#utility.yul\":11316:11320   */\n      dup2\n        /* \"#utility.yul\":11312:11332   */\n      sub\n        /* \"#utility.yul\":11307:11309   */\n      0x40\n        /* \"#utility.yul\":11296:11305   */\n      dup4\n        /* \"#utility.yul\":11292:11310   */\n      add\n        /* \"#utility.yul\":11285:11333   */\n      mstore\n        /* \"#utility.yul\":11350:11428   */\n      tag_309\n        /* \"#utility.yul\":11423:11427   */\n      dup2\n        /* \"#utility.yul\":11414:11420   */\n      dup9\n        /* \"#utility.yul\":11350:11428   */\n      tag_154\n      jump\t// in\n    tag_309:\n        /* \"#utility.yul\":11342:11428   */\n      swap1\n      pop\n        /* \"#utility.yul\":11475:11484   */\n      dup2\n        /* \"#utility.yul\":11469:11473   */\n      dup2\n        /* \"#utility.yul\":11465:11485   */\n      sub\n        /* \"#utility.yul\":11460:11462   */\n      0x60\n        /* \"#utility.yul\":11449:11458   */\n      dup4\n        /* \"#utility.yul\":11445:11463   */\n      add\n        /* \"#utility.yul\":11438:11486   */\n      mstore\n        /* \"#utility.yul\":11503:11581   */\n      tag_310\n        /* \"#utility.yul\":11576:11580   */\n      dup2\n        /* \"#utility.yul\":11567:11573   */\n      dup8\n        /* \"#utility.yul\":11503:11581   */\n      tag_154\n      jump\t// in\n    tag_310:\n        /* \"#utility.yul\":11495:11581   */\n      swap1\n      pop\n        /* \"#utility.yul\":11591:11664   */\n      tag_311\n        /* \"#utility.yul\":11659:11662   */\n      0x80\n        /* \"#utility.yul\":11648:11657   */\n      dup4\n        /* \"#utility.yul\":11644:11663   */\n      add\n        /* \"#utility.yul\":11635:11641   */\n      dup7\n        /* \"#utility.yul\":11591:11664   */\n      tag_150\n      jump\t// in\n    tag_311:\n        /* \"#utility.yul\":11674:11747   */\n      tag_312\n        /* \"#utility.yul\":11742:11745   */\n      0xa0\n        /* \"#utility.yul\":11731:11740   */\n      dup4\n        /* \"#utility.yul\":11727:11746   */\n      add\n        /* \"#utility.yul\":11718:11724   */\n      dup6\n        /* \"#utility.yul\":11674:11747   */\n      tag_150\n      jump\t// in\n    tag_312:\n        /* \"#utility.yul\":11757:11824   */\n      tag_313\n        /* \"#utility.yul\":11819:11822   */\n      0xc0\n        /* \"#utility.yul\":11808:11817   */\n      dup4\n        /* \"#utility.yul\":11804:11823   */\n      add\n        /* \"#utility.yul\":11795:11801   */\n      dup5\n        /* \"#utility.yul\":11757:11824   */\n      tag_156\n      jump\t// in\n    tag_313:\n        /* \"#utility.yul\":10775:11831   */\n      swap9\n      swap8\n      pop\n      pop\n      pop\n      pop\n      pop\n      pop\n      pop\n      pop\n      jump\t// out\n        /* \"#utility.yul\":11837:12311   */\n    tag_30:\n        /* \"#utility.yul\":11905:11911   */\n      0x00\n        /* \"#utility.yul\":11913:11919   */\n      0x00\n        /* \"#utility.yul\":11962:11964   */\n      0x40\n        /* \"#utility.yul\":11950:11959   */\n      dup4\n        /* \"#utility.yul\":11941:11948   */\n      dup6\n        /* \"#utility.yul\":11937:11960   */\n      sub\n        /* \"#utility.yul\":11933:11965   */\n      slt\n        /* \"#utility.yul\":11930:12049   */\n      iszero\n      tag_315\n      jumpi\n        /* \"#utility.yul\":11968:12047   */\n      tag_316\n      tag_125\n      jump\t// in\n    tag_316:\n        /* \"#utility.yul\":11930:12049   */\n    tag_315:\n        /* \"#utility.yul\":12088:12089   */\n      0x00\n        /* \"#utility.yul\":12113:12166   */\n      tag_317\n        /* \"#utility.yul\":12158:12165   */\n      dup6\n        /* \"#utility.yul\":12149:12155   */\n      dup3\n        /* \"#utility.yul\":12138:12147   */\n      dup7\n        /* \"#utility.yul\":12134:12156   */\n      add\n        /* \"#utility.yul\":12113:12166   */\n      tag_129\n      jump\t// in\n    tag_317:\n        /* \"#utility.yul\":12103:12166   */\n      swap3\n      pop\n        /* \"#utility.yul\":12059:12176   */\n      pop\n        /* \"#utility.yul\":12215:12217   */\n      0x20\n        /* \"#utility.yul\":12241:12294   */\n      tag_318\n        /* \"#utility.yul\":12286:12293   */\n      dup6\n        /* \"#utility.yul\":12277:12283   */\n      dup3\n        /* \"#utility.yul\":12266:12275   */\n      dup7\n        /* \"#utility.yul\":12262:12284   */\n      add\n        /* \"#utility.yul\":12241:12294   */\n      tag_129\n      jump\t// in\n    tag_318:\n        /* \"#utility.yul\":12231:12294   */\n      swap2\n      pop\n        /* \"#utility.yul\":12186:12304   */\n      pop\n        /* \"#utility.yul\":11837:12311   */\n      swap3\n      pop\n      swap3\n      swap1\n      pop\n      jump\t// out\n        /* \"#utility.yul\":12317:12838   */\n    tag_36:\n        /* \"#utility.yul\":12480:12484   */\n      0x00\n        /* \"#utility.yul\":12518:12520   */\n      0x60\n        /* \"#utility.yul\":12507:12516   */\n      dup3\n        /* \"#utility.yul\":12503:12521   */\n      add\n        /* \"#utility.yul\":12495:12521   */\n      swap1\n      pop\n        /* \"#utility.yul\":12531:12602   */\n      tag_320\n        /* \"#utility.yul\":12599:12600   */\n      0x00\n        /* \"#utility.yul\":12588:12597   */\n      dup4\n        /* \"#utility.yul\":12584:12601   */\n      add\n        /* \"#utility.yul\":12575:12581   */\n      dup7\n        /* \"#utility.yul\":12531:12602   */\n      tag_150\n      jump\t// in\n    tag_320:\n        /* \"#utility.yul\":12649:12658   */\n      dup2\n        /* \"#utility.yul\":12643:12647   */\n      dup2\n        /* \"#utility.yul\":12639:12659   */\n      sub\n        /* \"#utility.yul\":12634:12636   */\n      0x20\n        /* \"#utility.yul\":12623:12632   */\n      dup4\n        /* \"#utility.yul\":12619:12637   */\n      add\n        /* \"#utility.yul\":12612:12660   */\n      mstore\n        /* \"#utility.yul\":12677:12755   */\n      tag_321\n        /* \"#utility.yul\":12750:12754   */\n      dup2\n        /* \"#utility.yul\":12741:12747   */\n      dup6\n        /* \"#utility.yul\":12677:12755   */\n      tag_154\n      jump\t// in\n    tag_321:\n        /* \"#utility.yul\":12669:12755   */\n      swap1\n      pop\n        /* \"#utility.yul\":12765:12831   */\n      tag_322\n        /* \"#utility.yul\":12827:12829   */\n      0x40\n        /* \"#utility.yul\":12816:12825   */\n      dup4\n        /* \"#utility.yul\":12812:12830   */\n      add\n        /* \"#utility.yul\":12803:12809   */\n      dup5\n        /* \"#utility.yul\":12765:12831   */\n      tag_156\n      jump\t// in\n    tag_322:\n        /* \"#utility.yul\":12317:12838   */\n      swap5\n      swap4\n      pop\n      pop\n      pop\n      pop\n      jump\t// out\n        /* \"#utility.yul\":12844:13013   */\n    tag_157:\n        /* \"#utility.yul\":12984:13005   */\n      0x506f6c6c20646f6573206e6f7420657869737400000000000000000000000000\n        /* \"#utility.yul\":12980:12981   */\n      0x00\n        /* \"#utility.yul\":12972:12978   */\n      dup3\n        /* \"#utility.yul\":12968:12982   */\n      add\n        /* \"#utility.yul\":12961:13006   */\n      mstore\n        /* \"#utility.yul\":12844:13013   */\n      pop\n      jump\t// out\n        /* \"#utility.yul\":13019:13385   */\n    tag_158:\n        /* \"#utility.yul\":13161:13164   */\n      0x00\n        /* \"#utility.yul\":13182:13249   */\n      tag_325\n        /* \"#utility.yul\":13246:13248   */\n      0x13\n        /* \"#utility.yul\":13241:13244   */\n      dup4\n        /* \"#utility.yul\":13182:13249   */\n      tag_152\n      jump\t// in\n    tag_325:\n        /* \"#utility.yul\":13175:13249   */\n      swap2\n      pop\n        /* \"#utility.yul\":13258:13351   */\n      tag_326\n        /* \"#utility.yul\":13347:13350   */\n      dup3\n        /* \"#utility.yul\":13258:13351   */\n      tag_157\n      jump\t// in\n    tag_326:\n        /* \"#utility.yul\":13376:13378   */\n      0x20\n        /* \"#utility.yul\":13371:13374   */\n      dup3\n        /* \"#utility.yul\":13367:13379   */\n      add\n        /* \"#utility.yul\":13360:13379   */\n      swap1\n      pop\n        /* \"#utility.yul\":13019:13385   */\n      swap2\n      swap1\n      pop\n      jump\t// out\n        /* \"#utility.yul\":13391:13810   */\n    tag_40:\n        /* \"#utility.yul\":13557:13561   */\n      0x00\n        /* \"#utility.yul\":13595:13597   */\n      0x20\n        /* \"#utility.yul\":13584:13593   */\n      dup3\n        /* \"#utility.yul\":13580:13598   */\n      add\n        /* \"#utility.yul\":13572:13598   */\n      swap1\n      pop\n        /* \"#utility.yul\":13644:13653   */\n      dup2\n        /* \"#utility.yul\":13638:13642   */\n      dup2\n        /* \"#utility.yul\":13634:13654   */\n      sub\n        /* \"#utility.yul\":13630:13631   */\n      0x00\n        /* \"#utility.yul\":13619:13628   */\n      dup4\n        /* \"#utility.yul\":13615:13632   */\n      add\n        /* \"#utility.yul\":13608:13655   */\n      mstore\n        /* \"#utility.yul\":13672:13803   */\n      tag_328\n        /* \"#utility.yul\":13798:13802   */\n      dup2\n        /* \"#utility.yul\":13672:13803   */\n      tag_158\n      jump\t// in\n    tag_328:\n        /* \"#utility.yul\":13664:13803   */\n      swap1\n      pop\n        /* \"#utility.yul\":13391:13810   */\n      swap2\n      swap1\n      pop\n      jump\t// out\n        /* \"#utility.yul\":13816:13996   */\n    tag_50:\n        /* \"#utility.yul\":13864:13941   */\n      0x4e487b7100000000000000000000000000000000000000000000000000000000\n        /* \"#utility.yul\":13861:13862   */\n      0x00\n        /* \"#utility.yul\":13854:13942   */\n      mstore\n        /* \"#utility.yul\":13961:13965   */\n      0x32\n        /* \"#utility.yul\":13958:13959   */\n      0x04\n        /* \"#utility.yul\":13951:13966   */\n      mstore\n        /* \"#utility.yul\":13985:13989   */\n      0x24\n        /* \"#utility.yul\":13982:13983   */\n      0x00\n        /* \"#utility.yul\":13975:13990   */\n      revert\n        /* \"#utility.yul\":14002:14182   */\n    tag_159:\n        /* \"#utility.yul\":14050:14127   */\n      0x4e487b7100000000000000000000000000000000000000000000000000000000\n        /* \"#utility.yul\":14047:14048   */\n      0x00\n        /* \"#utility.yul\":14040:14128   */\n      mstore\n        /* \"#utility.yul\":14147:14151   */\n      0x11\n        /* \"#utility.yul\":14144:14145   */\n      0x04\n        /* \"#utility.yul\":14137:14152   */\n      mstore\n        /* \"#utility.yul\":14171:14175   */\n      0x24\n        /* \"#utility.yul\":14168:14169   */\n      0x00\n        /* \"#utility.yul\":14161:14176   */\n      revert\n        /* \"#utility.yul\":14188:14421   */\n    tag_53:\n        /* \"#utility.yul\":14227:14230   */\n      0x00\n        /* \"#utility.yul\":14250:14274   */\n      tag_332\n        /* \"#utility.yul\":14268:14273   */\n      dup3\n        /* \"#utility.yul\":14250:14274   */\n      tag_127\n      jump\t// in\n    tag_332:\n        /* \"#utility.yul\":14241:14274   */\n      swap2\n      pop\n        /* \"#utility.yul\":14296:14362   */\n      0xffffffffffffffffffffffffffffffffffffffffffffffffffffffffffffffff\n        /* \"#utility.yul\":14289:14294   */\n      dup3\n        /* \"#utility.yul\":14286:14363   */\n      sub\n        /* \"#utility.yul\":14283:14386   */\n      tag_333\n      jumpi\n        /* \"#utility.yul\":14366:14384   */\n      tag_334\n      tag_159\n      jump\t// in\n    tag_334:\n        /* \"#utility.yul\":14283:14386   */\n    tag_333:\n        /* \"#utility.yul\":14413:14414   */\n      0x01\n        /* \"#utility.yul\":14406:14411   */\n      dup3\n        /* \"#utility.yul\":14402:14415   */\n      add\n        /* \"#utility.yul\":14395:14415   */\n      swap1\n      pop\n        /* \"#utility.yul\":14188:14421   */\n      swap2\n      swap1\n      pop\n      jump\t// out\n        /* \"#utility.yul\":14427:14607   */\n    tag_160:\n        /* \"#utility.yul\":14475:14552   */\n      0x4e487b7100000000000000000000000000000000000000000000000000000000\n        /* \"#utility.yul\":14472:14473   */\n      0x00\n        /* \"#utility.yul\":14465:14553   */\n      mstore\n        /* \"#utility.yul\":14572:14576   */\n      0x22\n        /* \"#utility.yul\":14569:14570   */\n      0x04\n        /* \"#utility.yul\":14562:14577   */\n      mstore\n        /* \"#utility.yul\":14596:14600   */\n      0x24\n        /* \"#utility.yul\":14593:14594   */\n      0x00\n        /* \"#utility.yul\":14586:14601   */\n      revert\n        /* \"#utility.yul\":14613:14933   */\n    tag_74:\n        /* \"#utility.yul\":14657:14663   */\n      0x00\n        /* \"#utility.yul\":14694:14695   */\n      0x02\n        /* \"#utility.yul\":14688:14692   */\n      dup3\n        /* \"#utility.yul\":14684:14696   */\n      div\n        /* \"#utility.yul\":14674:14696   */\n      swap1\n      pop\n        /* \"#utility.yul\":14741:14742   */\n      0x01\n        /* \"#utility.yul\":14735:14739   */\n      dup3\n        /* \"#utility.yul\":14731:14743   */\n      and\n        /* \"#utility.yul\":14762:14780   */\n      dup1\n        /* \"#utility.yul\":14752:14833   */\n      tag_337\n      jumpi\n        /* \"#utility.yul\":14818:14822   */\n      0x7f\n        /* \"#utility.yul\":14810:14816   */\n      dup3\n        /* \"#utility.yul\":14806:14823   */\n      and\n        /* \"#utility.yul\":14796:14823   */\n      swap2\n      pop\n        /* \"#utility.yul\":14752:14833   */\n    tag_337:\n        /* \"#utility.yul\":14880:14882   */\n      0x20\n        /* \"#utility.yul\":14872:14878   */\n      dup3\n        /* \"#utility.yul\":14869:14883   */\n      lt\n        /* \"#utility.yul\":14849:14867   */\n      dup2\n        /* \"#utility.yul\":14846:14884   */\n      sub\n        /* \"#utility.yul\":14843:14927   */\n      tag_338\n      jumpi\n        /* \"#utility.yul\":14899:14917   */\n      tag_339\n      tag_160\n      jump\t// in\n    tag_339:\n        /* \"#utility.yul\":14843:14927   */\n    tag_338:\n        /* \"#utility.yul\":14664:14933   */\n      pop\n        /* \"#utility.yul\":14613:14933   */\n      swap2\n      swap1\n      pop\n      jump\t// out\n        /* \"#utility.yul\":14939:15080   */\n    tag_161:\n        /* \"#utility.yul\":14988:14992   */\n      0x00\n        /* \"#utility.yul\":15011:15014   */\n      dup2\n        /* \"#utility.yul\":15003:15014   */\n      swap1\n      pop\n        /* \"#utility.yul\":15034:15037   */\n      dup2\n        /* \"#utility.yul\":15031:15032   */\n      0x00\n        /* \"#utility.yul\":15024:15038   */\n      mstore\n        /* \"#utility.yul\":15068:15072   */\n      0x20\n        /* \"#utility.yul\":15065:15066   */\n      0x00\n        /* \"#utility.yul\":15055:15073   */\n      keccak256\n        /* \"#utility.yul\":15047:15073   */\n      swap1\n      pop\n        /* \"#utility.yul\":14939:15080   */\n      swap2\n      swap1\n      pop\n      jump\t// out\n        /* \"#utility.yul\":15086:15179   */\n    tag_162:\n        /* \"#utility.yul\":15123:15129   */\n      0x00\n        /* \"#utility.yul\":15170:15172   */\n      0x20\n        /* \"#utility.yul\":15165:15167   */\n      0x1f\n        /* \"#utility.yul\":15158:15163   */\n      dup4\n        /* \"#utility.yul\":15154:15168   */\n      add\n        /* \"#utility.yul\":15150:15173   */\n      div\n        /* \"#utility.yul\":15140:15173   */\n      swap1\n      pop\n        /* \"#utility.yul\":15086:15179   */\n      swap2\n      swap1\n      pop\n      jump\t// out\n        /* \"#utility.yul\":15185:15292   */\n    tag_163:\n        /* \"#utility.yul\":15229:15237   */\n      0x00\n        /* \"#utility.yul\":15279:15284   */\n      dup3\n        /* \"#utility.yul\":15273:15277   */\n      dup3\n        /* \"#utility.yul\":15269:15285   */\n      shl\n        /* \"#utility.yul\":15248:15285   */\n      swap1\n      pop\n        /* \"#utility.yul\":15185:15292   */\n      swap3\n      swap2\n      pop\n      pop\n      jump\t// out\n        /* \"#utility.yul\":15298:15691   */\n    tag_164:\n        /* \"#utility.yul\":15367:15373   */\n      0x00\n        /* \"#utility.yul\":15417:15418   */\n      0x08\n        /* \"#utility.yul\":15405:15415   */\n      dup4\n        /* \"#utility.yul\":15401:15419   */\n      mul\n        /* \"#utility.yul\":15440:15537   */\n      tag_344\n        /* \"#utility.yul\":15470:15536   */\n      0xffffffffffffffffffffffffffffffffffffffffffffffffffffffffffffffff\n        /* \"#utility.yul\":15459:15468   */\n      dup3\n        /* \"#utility.yul\":15440:15537   */\n      tag_163\n      jump\t// in\n    tag_344:\n        /* \"#utility.yul\":15558:15597   */\n      tag_345\n        /* \"#utility.yul\":15588:15596   */\n      dup7\n        /* \"#utility.yul\":15577:15586   */\n      dup4\n        /* \"#utility.yul\":15558:15597   */\n      tag_163\n      jump\t// in\n    tag_345:\n        /* \"#utility.yul\":15546:15597   */\n      swap6\n      pop\n        /* \"#utility.yul\":15630:15634   */\n      dup1\n        /* \"#utility.yul\":15626:15635   */\n      not\n        /* \"#utility.yul\":15619:15624   */\n      dup5\n        /* \"#utility.yul\":15615:15636   */\n      and\n        /* \"#utility.yul\":15606:15636   */\n      swap4\n      pop\n        /* \"#utility.yul\":15679:15683   */\n      dup1\n        /* \"#utility.yul\":15669:15677   */\n      dup7\n        /* \"#utility.yul\":15665:15684   */\n      and\n        /* \"#utility.yul\":15658:15663   */\n      dup5\n        /* \"#utility.yul\":15655:15685   */\n      or\n        /* \"#utility.yul\":15645:15685   */\n      swap3\n      pop\n        /* \"#utility.yul\":15374:15691   */\n      pop\n      pop\n        /* \"#utility.yul\":15298:15691   */\n      swap4\n      swap3\n      pop\n      pop\n      pop\n      jump\t// out\n        /* \"#utility.yul\":15697:15757   */\n    tag_165:\n        /* \"#utility.yul\":15725:15728   */\n      0x00\n        /* \"#utility.yul\":15746:15751   */\n      dup2\n        /* \"#utility.yul\":15739:15751   */\n      swap1\n      pop\n        /* \"#utility.yul\":15697:15757   */\n      swap2\n      swap1\n      pop\n      jump\t// out\n        /* \"#utility.yul\":15763:15905   */\n    tag_166:\n        /* \"#utility.yul\":15813:15822   */\n      0x00\n        /* \"#utility.yul\":15846:15899   */\n      tag_348\n        /* \"#utility.yul\":15864:15898   */\n      tag_349\n        /* \"#utility.yul\":15873:15897   */\n      tag_350\n        /* \"#utility.yul\":15891:15896   */\n      dup5\n        /* \"#utility.yul\":15873:15897   */\n      tag_127\n      jump\t// in\n    tag_350:\n        /* \"#utility.yul\":15864:15898   */\n      tag_165\n      jump\t// in\n    tag_349:\n        /* \"#utility.yul\":15846:15899   */\n      tag_127\n      jump\t// in\n    tag_348:\n        /* \"#utility.yul\":15833:15899   */\n      swap1\n      pop\n        /* \"#utility.yul\":15763:15905   */\n      swap2\n      swap1\n      pop\n      jump\t// out\n        /* \"#utility.yul\":15911:15986   */\n    tag_167:\n        /* \"#utility.yul\":15954:15957   */\n      0x00\n        /* \"#utility.yul\":15975:15980   */\n      dup2\n        /* \"#utility.yul\":15968:15980   */\n      swap1\n      pop\n        /* \"#utility.yul\":15911:15986   */\n      swap2\n      swap1\n      pop\n      jump\t// out\n        /* \"#utility.yul\":15992:16261   */\n    tag_168:\n        /* \"#utility.yul\":16102:16141   */\n      tag_353\n        /* \"#utility.yul\":16133:16140   */\n      dup4\n        /* \"#utility.yul\":16102:16141   */\n      tag_166\n      jump\t// in\n    tag_353:\n        /* \"#utility.yul\":16163:16254   */\n      tag_354\n        /* \"#utility.yul\":16212:16253   */\n      tag_355\n        /* \"#utility.yul\":16236:16252   */\n      dup3\n        /* \"#utility.yul\":16212:16253   */\n      tag_167\n      jump\t// in\n    tag_355:\n        /* \"#utility.yul\":16204:16210   */\n      dup5\n        /* \"#utility.yul\":16197:16201   */\n      dup5\n        /* \"#utility.yul\":16191:16202   */\n      sload\n        /* \"#utility.yul\":16163:16254   */\n      tag_164\n      jump\t// in\n    tag_354:\n        /* \"#utility.yul\":16157:16161   */\n      dup3\n        /* \"#utility.yul\":16150:16255   */\n      sstore\n        /* \"#utility.yul\":16068:16261   */\n      pop\n        /* \"#utility.yul\":15992:16261   */\n      pop\n      pop\n      pop\n      jump\t// out\n        /* \"#utility.yul\":16267:16340   */\n    tag_169:\n        /* \"#utility.yul\":16312:16315   */\n      0x00\n        /* \"#utility.yul\":16333:16334   */\n      0x00\n        /* \"#utility.yul\":16326:16334   */\n      swap1\n      pop\n        /* \"#utility.yul\":16267:16340   */\n      swap1\n      jump\t// out\n        /* \"#utility.yul\":16346:16535   */\n    tag_170:\n        /* \"#utility.yul\":16423:16455   */\n      tag_358\n      tag_169\n      jump\t// in\n    tag_358:\n        /* \"#utility.yul\":16464:16529   */\n      tag_359\n        /* \"#utility.yul\":16522:16528   */\n      dup2\n        /* \"#utility.yul\":16514:16520   */\n      dup5\n        /* \"#utility.yul\":16508:16512   */\n      dup5\n        /* \"#utility.yul\":16464:16529   */\n      tag_168\n      jump\t// in\n    tag_359:\n        /* \"#utility.yul\":16399:16535   */\n      pop\n        /* \"#utility.yul\":16346:16535   */\n      pop\n      pop\n      jump\t// out\n        /* \"#utility.yul\":16541:16727   */\n    tag_171:\n        /* \"#utility.yul\":16601:16721   */\n    tag_361:\n        /* \"#utility.yul\":16618:16621   */\n      dup2\n        /* \"#utility.yul\":16611:16616   */\n      dup2\n        /* \"#utility.yul\":16608:16622   */\n      lt\n        /* \"#utility.yul\":16601:16721   */\n      iszero\n      tag_363\n      jumpi\n        /* \"#utility.yul\":16672:16711   */\n      tag_364\n        /* \"#utility.yul\":16709:16710   */\n      0x00\n        /* \"#utility.yul\":16702:16707   */\n      dup3\n        /* \"#utility.yul\":16672:16711   */\n      tag_170\n      jump\t// in\n    tag_364:\n        /* \"#utility.yul\":16645:16646   */\n      0x01\n        /* \"#utility.yul\":16638:16643   */\n      dup2\n        /* \"#utility.yul\":16634:16647   */\n      add\n        /* \"#utility.yul\":16625:16647   */\n      swap1\n      pop\n        /* \"#utility.yul\":16601:16721   */\n      jump(tag_361)\n    tag_363:\n        /* \"#utility.yul\":16541:16727   */\n      pop\n      pop\n      jump\t// out\n        /* \"#utility.yul\":16733:17276   */\n    tag_172:\n        /* \"#utility.yul\":16834:16836   */\n      0x1f\n        /* \"#utility.yul\":16829:16832   */\n      dup3\n        /* \"#utility.yul\":16826:16837   */\n      gt\n        /* \"#utility.yul\":16823:17269   */\n      iszero\n      tag_366\n      jumpi\n        /* \"#utility.yul\":16868:16906   */\n      tag_367\n        /* \"#utility.yul\":16900:16905   */\n      dup2\n        /* \"#utility.yul\":16868:16906   */\n      tag_161\n      jump\t// in\n    tag_367:\n        /* \"#utility.yul\":16952:16981   */\n      tag_368\n        /* \"#utility.yul\":16970:16980   */\n      dup5\n        /* \"#utility.yul\":16952:16981   */\n      tag_162\n      jump\t// in\n    tag_368:\n        /* \"#utility.yul\":16942:16950   */\n      dup2\n        /* \"#utility.yul\":16938:16982   */\n      add\n        /* \"#utility.yul\":17135:17137   */\n      0x20\n        /* \"#utility.yul\":17123:17133   */\n      dup6\n        /* \"#utility.yul\":17120:17138   */\n      lt\n        /* \"#utility.yul\":17117:17166   */\n      iszero\n      tag_369\n      jumpi\n        /* \"#utility.yul\":17156:17164   */\n      dup2\n        /* \"#utility.yul\":17141:17164   */\n      swap1\n      pop\n        /* \"#utility.yul\":17117:17166   */\n    tag_369:\n        /* \"#utility.yul\":17179:17259   */\n      tag_370\n        /* \"#utility.yul\":17235:17257   */\n      tag_371\n        /* \"#utility.yul\":17253:17256   */\n      dup6\n        /* \"#utility.yul\":17235:17257   */\n      tag_162\n      jump\t// in\n    tag_371:\n        /* \"#utility.yul\":17225:17233   */\n      dup4\n        /* \"#utility.yul\":17221:17258   */\n      add\n        /* \"#utility.yul\":17208:17219   */\n      dup3\n        /* \"#utility.yul\":17179:17259   */\n      tag_171\n      jump\t// in\n    tag_370:\n        /* \"#utility.yul\":16838:17269   */\n      pop\n      pop\n        /* \"#utility.yul\":16823:17269   */\n    tag_366:\n        /* \"#utility.yul\":16733:17276   */\n      pop\n      pop\n      pop\n      jump\t// out\n        /* \"#utility.yul\":17282:17399   */\n    tag_173:\n        /* \"#utility.yul\":17336:17344   */\n      0x00\n        /* \"#utility.yul\":17386:17391   */\n      dup3\n        /* \"#utility.yul\":17380:17384   */\n      dup3\n        /* \"#utility.yul\":17376:17392   */\n      shr\n        /* \"#utility.yul\":17355:17392   */\n      swap1\n      pop\n        /* \"#utility.yul\":17282:17399   */\n      swap3\n      swap2\n      pop\n      pop\n      jump\t// out\n        /* \"#utility.yul\":17405:17574   */\n    tag_174:\n        /* \"#utility.yul\":17449:17455   */\n      0x00\n        /* \"#utility.yul\":17482:17533   */\n      tag_374\n        /* \"#utility.yul\":17530:17531   */\n      0x00\n        /* \"#utility.yul\":17526:17532   */\n      not\n        /* \"#utility.yul\":17518:17523   */\n      dup5\n        /* \"#utility.yul\":17515:17516   */\n      0x08\n        /* \"#utility.yul\":17511:17524   */\n      mul\n        /* \"#utility.yul\":17482:17533   */\n      tag_173\n      jump\t// in\n    tag_374:\n        /* \"#utility.yul\":17478:17534   */\n      not\n        /* \"#utility.yul\":17563:17567   */\n      dup1\n        /* \"#utility.yul\":17557:17561   */\n      dup4\n        /* \"#utility.yul\":17553:17568   */\n      and\n        /* \"#utility.yul\":17543:17568   */\n      swap2\n      pop\n        /* \"#utility.yul\":17456:17574   */\n      pop\n        /* \"#utility.yul\":17405:17574   */\n      swap3\n      swap2\n      pop\n      pop\n      jump\t// out\n        /* \"#utility.yul\":17579:17874   */\n    tag_175:\n        /* \"#utility.yul\":17655:17659   */\n      0x00\n        /* \"#utility.yul\":17801:17830   */\n      tag_376\n        /* \"#utility.yul\":17826:17829   */\n      dup4\n        /* \"#utility.yul\":17820:17824   */\n      dup4\n        /* \"#utility.yul\":17801:17830   */\n      tag_174\n      jump\t// in\n    tag_376:\n        /* \"#utility.yul\":17793:17830   */\n      swap2\n      pop\n        /* \"#utility.yul\":17863:17866   */\n      dup3\n        /* \"#utility.yul\":17860:17861   */\n      0x02\n        /* \"#utility.yul\":17856:17867   */\n      mul\n        /* \"#utility.yul\":17850:17854   */\n      dup3\n        /* \"#utility.yul\":17847:17868   */\n      or\n        /* \"#utility.yul\":17839:17868   */\n      swap1\n      pop\n        /* \"#utility.yul\":17579:17874   */\n      swap3\n      swap2\n      pop\n      pop\n      jump\t// out\n        /* \"#utility.yul\":17879:19274   */\n    tag_55:\n        /* \"#utility.yul\":17996:18033   */\n      tag_378\n        /* \"#utility.yul\":18029:18032   */\n      dup3\n        /* \"#utility.yul\":17996:18033   */\n      tag_151\n      jump\t// in\n    tag_378:\n        /* \"#utility.yul\":18098:18116   */\n      0xffffffffffffffff\n        /* \"#utility.yul\":18090:18096   */\n      dup2\n        /* \"#utility.yul\":18087:18117   */\n      gt\n        /* \"#utility.yul\":18084:18140   */\n      iszero\n      tag_379\n      jumpi\n        /* \"#utility.yul\":18120:18138   */\n      tag_380\n      tag_43\n      jump\t// in\n    tag_380:\n        /* \"#utility.yul\":18084:18140   */\n    tag_379:\n        /* \"#utility.yul\":18164:18202   */\n      tag_381\n        /* \"#utility.yul\":18196:18200   */\n      dup3\n        /* \"#utility.yul\":18190:18201   */\n      sload\n        /* \"#utility.yul\":18164:18202   */\n      tag_74\n      jump\t// in\n    tag_381:\n        /* \"#utility.yul\":18249:18316   */\n      tag_382\n        /* \"#utility.yul\":18309:18315   */\n      dup3\n        /* \"#utility.yul\":18301:18307   */\n      dup3\n        /* \"#utility.yul\":18295:18299   */\n      dup6\n        /* \"#utility.yul\":18249:18316   */\n      tag_172\n      jump\t// in\n    tag_382:\n        /* \"#utility.yul\":18343:18344   */\n      0x00\n        /* \"#utility.yul\":18367:18371   */\n      0x20\n        /* \"#utility.yul\":18354:18371   */\n      swap1\n      pop\n        /* \"#utility.yul\":18399:18401   */\n      0x1f\n        /* \"#utility.yul\":18391:18397   */\n      dup4\n        /* \"#utility.yul\":18388:18402   */\n      gt\n        /* \"#utility.yul\":18416:18417   */\n      0x01\n        /* \"#utility.yul\":18411:19029   */\n      dup2\n      eq\n      tag_384\n      jumpi\n        /* \"#utility.yul\":19073:19074   */\n      0x00\n        /* \"#utility.yul\":19090:19096   */\n      dup5\n        /* \"#utility.yul\":19087:19164   */\n      iszero\n      tag_385\n      jumpi\n        /* \"#utility.yul\":19139:19148   */\n      dup3\n        /* \"#utility.yul\":19134:19137   */\n      dup8\n        /* \"#utility.yul\":19130:19149   */\n      add\n        /* \"#utility.yul\":19124:19150   */\n      mload\n        /* \"#utility.yul\":19115:19150   */\n      swap1\n      pop\n        /* \"#utility.yul\":19087:19164   */\n    tag_385:\n        /* \"#utility.yul\":19190:19257   */\n      tag_386\n        /* \"#utility.yul\":19250:19256   */\n      dup6\n        /* \"#utility.yul\":19243:19248   */\n      dup3\n        /* \"#utility.yul\":19190:19257   */\n      tag_175\n      jump\t// in\n    tag_386:\n        /* \"#utility.yul\":19184:19188   */\n      dup7\n        /* \"#utility.yul\":19177:19258   */\n      sstore\n        /* \"#utility.yul\":19046:19268   */\n      pop\n        /* \"#utility.yul\":18381:19268   */\n      jump(tag_383)\n        /* \"#utility.yul\":18411:19029   */\n    tag_384:\n        /* \"#utility.yul\":18463:18467   */\n      0x1f\n        /* \"#utility.yul\":18459:18468   */\n      not\n        /* \"#utility.yul\":18451:18457   */\n      dup5\n        /* \"#utility.yul\":18447:18469   */\n      and\n        /* \"#utility.yul\":18497:18534   */\n      tag_387\n        /* \"#utility.yul\":18529:18533   */\n      dup7\n        /* \"#utility.yul\":18497:18534   */\n      tag_161\n      jump\t// in\n    tag_387:\n        /* \"#utility.yul\":18556:18557   */\n      0x00\n        /* \"#utility.yul\":18570:18778   */\n    tag_388:\n        /* \"#utility.yul\":18584:18591   */\n      dup3\n        /* \"#utility.yul\":18581:18582   */\n      dup2\n        /* \"#utility.yul\":18578:18592   */\n      lt\n        /* \"#utility.yul\":18570:18778   */\n      iszero\n      tag_390\n      jumpi\n        /* \"#utility.yul\":18663:18672   */\n      dup5\n        /* \"#utility.yul\":18658:18661   */\n      dup10\n        /* \"#utility.yul\":18654:18673   */\n      add\n        /* \"#utility.yul\":18648:18674   */\n      mload\n        /* \"#utility.yul\":18640:18646   */\n      dup3\n        /* \"#utility.yul\":18633:18675   */\n      sstore\n        /* \"#utility.yul\":18714:18715   */\n      0x01\n        /* \"#utility.yul\":18706:18712   */\n      dup3\n        /* \"#utility.yul\":18702:18716   */\n      add\n        /* \"#utility.yul\":18692:18716   */\n      swap2\n      pop\n        /* \"#utility.yul\":18761:18763   */\n      0x20\n        /* \"#utility.yul\":18750:18759   */\n      dup6\n        /* \"#utility.yul\":18746:18764   */\n      add\n        /* \"#utility.yul\":18733:18764   */\n      swap5\n      pop\n        /* \"#utility.yul\":18607:18611   */\n      0x20\n        /* \"#utility.yul\":18604:18605   */\n      dup2\n        /* \"#utility.yul\":18600:18612   */\n      add\n        /* \"#utility.yul\":18595:18612   */\n      swap1\n      pop\n        /* \"#utility.yul\":18570:18778   */\n      jump(tag_388)\n    tag_390:\n        /* \"#utility.yul\":18806:18812   */\n      dup7\n        /* \"#utility.yul\":18797:18804   */\n      dup4\n        /* \"#utility.yul\":18794:18813   */\n      lt\n        /* \"#utility.yul\":18791:18970   */\n      iszero\n      tag_391\n      jumpi\n        /* \"#utility.yul\":18864:18873   */\n      dup5\n        /* \"#utility.yul\":18859:18862   */\n      dup10\n        /* \"#utility.yul\":18855:18874   */\n      add\n        /* \"#utility.yul\":18849:18875   */\n      mload\n        /* \"#utility.yul\":18907:18955   */\n      tag_392\n        /* \"#utility.yul\":18949:18953   */\n      0x1f\n        /* \"#utility.yul\":18941:18947   */\n      dup10\n        /* \"#utility.yul\":18937:18954   */\n      and\n        /* \"#utility.yul\":18926:18935   */\n      dup3\n        /* \"#utility.yul\":18907:18955   */\n      tag_174\n      jump\t// in\n    tag_392:\n        /* \"#utility.yul\":18899:18905   */\n      dup4\n        /* \"#utility.yul\":18892:18956   */\n      sstore\n        /* \"#utility.yul\":18814:18970   */\n      pop\n        /* \"#utility.yul\":18791:18970   */\n    tag_391:\n        /* \"#utility.yul\":19016:19017   */\n      0x01\n        /* \"#utility.yul\":19012:19013   */\n      0x02\n        /* \"#utility.yul\":19004:19010   */\n      dup9\n        /* \"#utility.yul\":19000:19014   */\n      mul\n        /* \"#utility.yul\":18996:19018   */\n      add\n        /* \"#utility.yul\":18990:18994   */\n      dup9\n        /* \"#utility.yul\":18983:19019   */\n      sstore\n        /* \"#utility.yul\":18418:19029   */\n      pop\n      pop\n      pop\n        /* \"#utility.yul\":18381:19268   */\n    tag_383:\n      pop\n        /* \"#utility.yul\":17971:19274   */\n      pop\n      pop\n      pop\n        /* \"#utility.yul\":17879:19274   */\n      pop\n      pop\n      jump\t// out\n        /* \"#utility.yul\":19280:19703   */\n    tag_57:\n        /* \"#utility.yul\":19421:19425   */\n      0x00\n        /* \"#utility.yul\":19459:19461   */\n      0x40\n        /* \"#utility.yul\":19448:19457   */\n      dup3\n        /* \"#utility.yul\":19444:19462   */\n      add\n        /* \"#utility.yul\":19436:19462   */\n      swap1\n      pop\n        /* \"#utility.yul\":19472:19543   */\n      tag_394\n        /* \"#utility.yul\":19540:19541   */\n      0x00\n        /* \"#utility.yul\":19529:19538   */\n      dup4\n        /* \"#utility.yul\":19525:19542   */\n      add\n        /* \"#utility.yul\":19516:19522   */\n      dup6\n        /* \"#utility.yul\":19472:19543   */\n      tag_150\n      jump\t// in\n    tag_394:\n        /* \"#utility.yul\":19590:19599   */\n      dup2\n        /* \"#utility.yul\":19584:19588   */\n      dup2\n        /* \"#utility.yul\":19580:19600   */\n      sub\n        /* \"#utility.yul\":19575:19577   */\n      0x20\n        /* \"#utility.yul\":19564:19573   */\n      dup4\n        /* \"#utility.yul\":19560:19578   */\n      add\n        /* \"#utility.yul\":19553:19601   */\n      mstore\n        /* \"#utility.yul\":19618:19696   */\n      tag_395\n        /* \"#utility.yul\":19691:19695   */\n      dup2\n        /* \"#utility.yul\":19682:19688   */\n      dup5\n        /* \"#utility.yul\":19618:19696   */\n      tag_154\n      jump\t// in\n    tag_395:\n        /* \"#utility.yul\":19610:19696   */\n      swap1\n      pop\n        /* \"#utility.yul\":19280:19703   */\n      swap4\n      swap3\n      pop\n      pop\n      pop\n      jump\t// out\n        /* \"#utility.yul\":19709:19886   */\n    tag_176:\n        /* \"#utility.yul\":19849:19878   */\n      0x4f7267616e697a6174696f6e20646f6573206e6f742065786973740000000000\n        /* \"#utility.yul\":19845:19846   */\n      0x00\n        /* \"#utility.yul\":19837:19843   */\n      dup3\n        /* \"#utility.yul\":19833:19847   */\n      add\n        /* \"#utility.yul\":19826:19879   */\n      mstore\n        /* \"#utility.yul\":19709:19886   */\n      pop\n      jump\t// out\n        /* \"#utility.yul\":19892:20258   */\n    tag_177:\n        /* \"#utility.yul\":20034:20037   */\n      0x00\n        /* \"#utility.yul\":20055:20122   */\n      tag_398\n        /* \"#utility.yul\":20119:20121   */\n      0x1b\n        /* \"#utility.yul\":20114:20117   */\n      dup4\n        /* \"#utility.yul\":20055:20122   */\n      tag_152\n      jump\t// in\n    tag_398:\n        /* \"#utility.yul\":20048:20122   */\n      swap2\n      pop\n        /* \"#utility.yul\":20131:20224   */\n      tag_399\n        /* \"#utility.yul\":20220:20223   */\n      dup3\n        /* \"#utility.yul\":20131:20224   */\n      tag_176\n      jump\t// in\n    tag_399:\n        /* \"#utility.yul\":20249:20251   */\n      0x20\n        /* \"#utility.yul\":20244:20247   */\n      dup3\n        /* \"#utility.yul\":20240:20252   */\n      add\n        /* \"#utility.yul\":20233:20252   */\n      swap1\n      pop\n        /* \"#utility.yul\":19892:20258   */\n      swap2\n      swap1\n      pop\n      jump\t// out\n        /* \"#utility.yul\":20264:20683   */\n    tag_61:\n        /* \"#utility.yul\":20430:20434   */\n      0x00\n        /* \"#utility.yul\":20468:20470   */\n      0x20\n        /* \"#utility.yul\":20457:20466   */\n      dup3\n        /* \"#utility.yul\":20453:20471   */\n      add\n        /* \"#utility.yul\":20445:20471   */\n      swap1\n      pop\n        /* \"#utility.yul\":20517:20526   */\n      dup2\n        /* \"#utility.yul\":20511:20515   */\n      dup2\n        /* \"#utility.yul\":20507:20527   */\n      sub\n        /* \"#utility.yul\":20503:20504   */\n      0x00\n        /* \"#utility.yul\":20492:20501   */\n      dup4\n        /* \"#utility.yul\":20488:20505   */\n      add\n        /* \"#utility.yul\":20481:20528   */\n      mstore\n        /* \"#utility.yul\":20545:20676   */\n      tag_401\n        /* \"#utility.yul\":20671:20675   */\n      dup2\n        /* \"#utility.yul\":20545:20676   */\n      tag_177\n      jump\t// in\n    tag_401:\n        /* \"#utility.yul\":20537:20676   */\n      swap1\n      pop\n        /* \"#utility.yul\":20264:20683   */\n      swap2\n      swap1\n      pop\n      jump\t// out\n        /* \"#utility.yul\":20689:20856   */\n    tag_178:\n        /* \"#utility.yul\":20829:20848   */\n      0x496e76616c69642074696d656672616d65000000000000000000000000000000\n        /* \"#utility.yul\":20825:20826   */\n      0x00\n        /* \"#utility.yul\":20817:20823   */\n      dup3\n        /* \"#utility.yul\":20813:20827   */\n      add\n        /* \"#utility.yul\":20806:20849   */\n      mstore\n        /* \"#utility.yul\":20689:20856   */\n      pop\n      jump\t// out\n        /* \"#utility.yul\":20862:21228   */\n    tag_179:\n        /* \"#utility.yul\":21004:21007   */\n      0x00\n        /* \"#utility.yul\":21025:21092   */\n      tag_404\n        /* \"#utility.yul\":21089:21091   */\n      0x11\n        /* \"#utility.yul\":21084:21087   */\n      dup4\n        /* \"#utility.yul\":21025:21092   */\n      tag_152\n      jump\t// in\n    tag_404:\n        /* \"#utility.yul\":21018:21092   */\n      swap2\n      pop\n        /* \"#utility.yul\":21101:21194   */\n      tag_405\n        /* \"#utility.yul\":21190:21193   */\n      dup3\n        /* \"#utility.yul\":21101:21194   */\n      tag_178\n      jump\t// in\n    tag_405:\n        /* \"#utility.yul\":21219:21221   */\n      0x20\n        /* \"#utility.yul\":21214:21217   */\n      dup3\n        /* \"#utility.yul\":21210:21222   */\n      add\n        /* \"#utility.yul\":21203:21222   */\n      swap1\n      pop\n        /* \"#utility.yul\":20862:21228   */\n      swap2\n      swap1\n      pop\n      jump\t// out\n        /* \"#utility.yul\":21234:21653   */\n    tag_64:\n        /* \"#utility.yul\":21400:21404   */\n      0x00\n        /* \"#utility.yul\":21438:21440   */\n      0x20\n        /* \"#utility.yul\":21427:21436   */\n      dup3\n        /* \"#utility.yul\":21423:21441   */\n      add\n        /* \"#utility.yul\":21415:21441   */\n      swap1\n      pop\n        /* \"#utility.yul\":21487:21496   */\n      dup2\n        /* \"#utility.yul\":21481:21485   */\n      dup2\n        /* \"#utility.yul\":21477:21497   */\n      sub\n        /* \"#utility.yul\":21473:21474   */\n      0x00\n        /* \"#utility.yul\":21462:21471   */\n      dup4\n        /* \"#utility.yul\":21458:21475   */\n      add\n        /* \"#utility.yul\":21451:21498   */\n      mstore\n        /* \"#utility.yul\":21515:21646   */\n      tag_407\n        /* \"#utility.yul\":21641:21645   */\n      dup2\n        /* \"#utility.yul\":21515:21646   */\n      tag_179\n      jump\t// in\n    tag_407:\n        /* \"#utility.yul\":21507:21646   */\n      swap1\n      pop\n        /* \"#utility.yul\":21234:21653   */\n      swap2\n      swap1\n      pop\n      jump\t// out\n        /* \"#utility.yul\":21659:22192   */\n    tag_72:\n        /* \"#utility.yul\":21828:21832   */\n      0x00\n        /* \"#utility.yul\":21866:21868   */\n      0x60\n        /* \"#utility.yul\":21855:21864   */\n      dup3\n        /* \"#utility.yul\":21851:21869   */\n      add\n        /* \"#utility.yul\":21843:21869   */\n      swap1\n      pop\n        /* \"#utility.yul\":21879:21950   */\n      tag_409\n        /* \"#utility.yul\":21947:21948   */\n      0x00\n        /* \"#utility.yul\":21936:21945   */\n      dup4\n        /* \"#utility.yul\":21932:21949   */\n      add\n        /* \"#utility.yul\":21923:21929   */\n      dup7\n        /* \"#utility.yul\":21879:21950   */\n      tag_150\n      jump\t// in\n    tag_409:\n        /* \"#utility.yul\":21960:22032   */\n      tag_410\n        /* \"#utility.yul\":22028:22030   */\n      0x20\n        /* \"#utility.yul\":22017:22026   */\n      dup4\n        /* \"#utility.yul\":22013:22031   */\n      add\n        /* \"#utility.yul\":22004:22010   */\n      dup6\n        /* \"#utility.yul\":21960:22032   */\n      tag_150\n      jump\t// in\n    tag_410:\n        /* \"#utility.yul\":22079:22088   */\n      dup2\n        /* \"#utility.yul\":22073:22077   */\n      dup2\n        /* \"#utility.yul\":22069:22089   */\n      sub\n        /* \"#utility.yul\":22064:22066   */\n      0x40\n        /* \"#utility.yul\":22053:22062   */\n      dup4\n        /* \"#utility.yul\":22049:22067   */\n      add\n        /* \"#utility.yul\":22042:22090   */\n      mstore\n        /* \"#utility.yul\":22107:22185   */\n      tag_411\n        /* \"#utility.yul\":22180:22184   */\n      dup2\n        /* \"#utility.yul\":22171:22177   */\n      dup5\n        /* \"#utility.yul\":22107:22185   */\n      tag_154\n      jump\t// in\n    tag_411:\n        /* \"#utility.yul\":22099:22185   */\n      swap1\n      pop\n        /* \"#utility.yul\":21659:22192   */\n      swap5\n      swap4\n      pop\n      pop\n      pop\n      pop\n      jump\t// out\n        /* \"#utility.yul\":22198:22369   */\n    tag_180:\n        /* \"#utility.yul\":22338:22361   */\n      0x566f74696e67206861736e277420737461727465640000000000000000000000\n        /* \"#utility.yul\":22334:22335   */\n      0x00\n        /* \"#utility.yul\":22326:22332   */\n      dup3\n        /* \"#utility.yul\":22322:22336   */\n      add\n        /* \"#utility.yul\":22315:22362   */\n      mstore\n        /* \"#utility.yul\":22198:22369   */\n      pop\n      jump\t// out\n        /* \"#utility.yul\":22375:22741   */\n    tag_181:\n        /* \"#utility.yul\":22517:22520   */\n      0x00\n        /* \"#utility.yul\":22538:22605   */\n      tag_414\n        /* \"#utility.yul\":22602:22604   */\n      0x15\n        /* \"#utility.yul\":22597:22600   */\n      dup4\n        /* \"#utility.yul\":22538:22605   */\n      tag_152\n      jump\t// in\n    tag_414:\n        /* \"#utility.yul\":22531:22605   */\n      swap2\n      pop\n        /* \"#utility.yul\":22614:22707   */\n      tag_415\n        /* \"#utility.yul\":22703:22706   */\n      dup3\n        /* \"#utility.yul\":22614:22707   */\n      tag_180\n      jump\t// in\n    tag_415:\n        /* \"#utility.yul\":22732:22734   */\n      0x20\n        /* \"#utility.yul\":22727:22730   */\n      dup3\n        /* \"#utility.yul\":22723:22735   */\n      add\n        /* \"#utility.yul\":22716:22735   */\n      swap1\n      pop\n        /* \"#utility.yul\":22375:22741   */\n      swap2\n      swap1\n      pop\n      jump\t// out\n        /* \"#utility.yul\":22747:23166   */\n    tag_89:\n        /* \"#utility.yul\":22913:22917   */\n      0x00\n        /* \"#utility.yul\":22951:22953   */\n      0x20\n        /* \"#utility.yul\":22940:22949   */\n      dup3\n        /* \"#utility.yul\":22936:22954   */\n      add\n        /* \"#utility.yul\":22928:22954   */\n      swap1\n      pop\n        /* \"#utility.yul\":23000:23009   */\n      dup2\n        /* \"#utility.yul\":22994:22998   */\n      dup2\n        /* \"#utility.yul\":22990:23010   */\n      sub\n        /* \"#utility.yul\":22986:22987   */\n      0x00\n        /* \"#utility.yul\":22975:22984   */\n      dup4\n        /* \"#utility.yul\":22971:22988   */\n      add\n        /* \"#utility.yul\":22964:23011   */\n      mstore\n        /* \"#utility.yul\":23028:23159   */\n      tag_417\n        /* \"#utility.yul\":23154:23158   */\n      dup2\n        /* \"#utility.yul\":23028:23159   */\n      tag_181\n      jump\t// in\n    tag_417:\n        /* \"#utility.yul\":23020:23159   */\n      swap1\n      pop\n        /* \"#utility.yul\":22747:23166   */\n      swap2\n      swap1\n      pop\n      jump\t// out\n        /* \"#utility.yul\":23172:23338   */\n    tag_182:\n        /* \"#utility.yul\":23312:23330   */\n      0x566f74696e672068617320656e64656400000000000000000000000000000000\n        /* \"#utility.yul\":23308:23309   */\n      0x00\n        /* \"#utility.yul\":23300:23306   */\n      dup3\n        /* \"#utility.yul\":23296:23310   */\n      add\n        /* \"#utility.yul\":23289:23331   */\n      mstore\n        /* \"#utility.yul\":23172:23338   */\n      pop\n      jump\t// out\n        /* \"#utility.yul\":23344:23710   */\n    tag_183:\n        /* \"#utility.yul\":23486:23489   */\n      0x00\n        /* \"#utility.yul\":23507:23574   */\n      tag_420\n        /* \"#utility.yul\":23571:23573   */\n      0x10\n        /* \"#utility.yul\":23566:23569   */\n      dup4\n        /* \"#utility.yul\":23507:23574   */\n      tag_152\n      jump\t// in\n    tag_420:\n        /* \"#utility.yul\":23500:23574   */\n      swap2\n      pop\n        /* \"#utility.yul\":23583:23676   */\n      tag_421\n        /* \"#utility.yul\":23672:23675   */\n      dup3\n        /* \"#utility.yul\":23583:23676   */\n      tag_182\n      jump\t// in\n    tag_421:\n        /* \"#utility.yul\":23701:23703   */\n      0x20\n        /* \"#utility.yul\":23696:23699   */\n      dup3\n        /* \"#utility.yul\":23692:23704   */\n      add\n        /* \"#utility.yul\":23685:23704   */\n      swap1\n      pop\n        /* \"#utility.yul\":23344:23710   */\n      swap2\n      swap1\n      pop\n      jump\t// out\n        /* \"#utility.yul\":23716:24135   */\n    tag_92:\n        /* \"#utility.yul\":23882:23886   */\n      0x00\n        /* \"#utility.yul\":23920:23922   */\n      0x20\n        /* \"#utility.yul\":23909:23918   */\n      dup3\n        /* \"#utility.yul\":23905:23923   */\n      add\n        /* \"#utility.yul\":23897:23923   */\n      swap1\n      pop\n        /* \"#utility.yul\":23969:23978   */\n      dup2\n        /* \"#utility.yul\":23963:23967   */\n      dup2\n        /* \"#utility.yul\":23959:23979   */\n      sub\n        /* \"#utility.yul\":23955:23956   */\n      0x00\n        /* \"#utility.yul\":23944:23953   */\n      dup4\n        /* \"#utility.yul\":23940:23957   */\n      add\n        /* \"#utility.yul\":23933:23980   */\n      mstore\n        /* \"#utility.yul\":23997:24128   */\n      tag_423\n        /* \"#utility.yul\":24123:24127   */\n      dup2\n        /* \"#utility.yul\":23997:24128   */\n      tag_183\n      jump\t// in\n    tag_423:\n        /* \"#utility.yul\":23989:24128   */\n      swap1\n      pop\n        /* \"#utility.yul\":23716:24135   */\n      swap2\n      swap1\n      pop\n      jump\t// out\n        /* \"#utility.yul\":24141:24305   */\n    tag_184:\n        /* \"#utility.yul\":24281:24297   */\n      0x496e76616c6964206f7074696f6e000000000000000000000000000000000000\n        /* \"#utility.yul\":24277:24278   */\n      0x00\n        /* \"#utility.yul\":24269:24275   */\n      dup3\n        /* \"#utility.yul\":24265:24279   */\n      add\n        /* \"#utility.yul\":24258:24298   */\n      mstore\n        /* \"#utility.yul\":24141:24305   */\n      pop\n      jump\t// out\n        /* \"#utility.yul\":24311:24677   */\n    tag_185:\n        /* \"#utility.yul\":24453:24456   */\n      0x00\n        /* \"#utility.yul\":24474:24541   */\n      tag_426\n        /* \"#utility.yul\":24538:24540   */\n      0x0e\n        /* \"#utility.yul\":24533:24536   */\n      dup4\n        /* \"#utility.yul\":24474:24541   */\n      tag_152\n      jump\t// in\n    tag_426:\n        /* \"#utility.yul\":24467:24541   */\n      swap2\n      pop\n        /* \"#utility.yul\":24550:24643   */\n      tag_427\n        /* \"#utility.yul\":24639:24642   */\n      dup3\n        /* \"#utility.yul\":24550:24643   */\n      tag_184\n      jump\t// in\n    tag_427:\n        /* \"#utility.yul\":24668:24670   */\n      0x20\n        /* \"#utility.yul\":24663:24666   */\n      dup3\n        /* \"#utility.yul\":24659:24671   */\n      add\n        /* \"#utility.yul\":24652:24671   */\n      swap1\n      pop\n        /* \"#utility.yul\":24311:24677   */\n      swap2\n      swap1\n      pop\n      jump\t// out\n        /* \"#utility.yul\":24683:25102   */\n    tag_95:\n        /* \"#utility.yul\":24849:24853   */\n      0x00\n        /* \"#utility.yul\":24887:24889   */\n      0x20\n        /* \"#utility.yul\":24876:24885   */\n      dup3\n        /* \"#utility.yul\":24872:24890   */\n      add\n        /* \"#utility.yul\":24864:24890   */\n      swap1\n      pop\n        /* \"#utility.yul\":24936:24945   */\n      dup2\n        /* \"#utility.yul\":24930:24934   */\n      dup2\n        /* \"#utility.yul\":24926:24946   */\n      sub\n        /* \"#utility.yul\":24922:24923   */\n      0x00\n        /* \"#utility.yul\":24911:24920   */\n      dup4\n        /* \"#utility.yul\":24907:24924   */\n      add\n        /* \"#utility.yul\":24900:24947   */\n      mstore\n        /* \"#utility.yul\":24964:25095   */\n      tag_429\n        /* \"#utility.yul\":25090:25094   */\n      dup2\n        /* \"#utility.yul\":24964:25095   */\n      tag_185\n      jump\t// in\n    tag_429:\n        /* \"#utility.yul\":24956:25095   */\n      swap1\n      pop\n        /* \"#utility.yul\":24683:25102   */\n      swap2\n      swap1\n      pop\n      jump\t// out\n        /* \"#utility.yul\":25108:25271   */\n    tag_186:\n        /* \"#utility.yul\":25248:25263   */\n      0x416c726561647920766f74656400000000000000000000000000000000000000\n        /* \"#utility.yul\":25244:25245   */\n      0x00\n        /* \"#utility.yul\":25236:25242   */\n      dup3\n        /* \"#utility.yul\":25232:25246   */\n      add\n        /* \"#utility.yul\":25225:25264   */\n      mstore\n        /* \"#utility.yul\":25108:25271   */\n      pop\n      jump\t// out\n        /* \"#utility.yul\":25277:25643   */\n    tag_187:\n        /* \"#utility.yul\":25419:25422   */\n      0x00\n        /* \"#utility.yul\":25440:25507   */\n      tag_432\n        /* \"#utility.yul\":25504:25506   */\n      0x0d\n        /* \"#utility.yul\":25499:25502   */\n      dup4\n        /* \"#utility.yul\":25440:25507   */\n      tag_152\n      jump\t// in\n    tag_432:\n        /* \"#utility.yul\":25433:25507   */\n      swap2\n      pop\n        /* \"#utility.yul\":25516:25609   */\n      tag_433\n        /* \"#utility.yul\":25605:25608   */\n      dup3\n        /* \"#utility.yul\":25516:25609   */\n      tag_186\n      jump\t// in\n    tag_433:\n        /* \"#utility.yul\":25634:25636   */\n      0x20\n        /* \"#utility.yul\":25629:25632   */\n      dup3\n        /* \"#utility.yul\":25625:25637   */\n      add\n        /* \"#utility.yul\":25618:25637   */\n      swap1\n      pop\n        /* \"#utility.yul\":25277:25643   */\n      swap2\n      swap1\n      pop\n      jump\t// out\n        /* \"#utility.yul\":25649:26068   */\n    tag_98:\n        /* \"#utility.yul\":25815:25819   */\n      0x00\n        /* \"#utility.yul\":25853:25855   */\n      0x20\n        /* \"#utility.yul\":25842:25851   */\n      dup3\n        /* \"#utility.yul\":25838:25856   */\n      add\n        /* \"#utility.yul\":25830:25856   */\n      swap1\n      pop\n        /* \"#utility.yul\":25902:25911   */\n      dup2\n        /* \"#utility.yul\":25896:25900   */\n      dup2\n        /* \"#utility.yul\":25892:25912   */\n      sub\n        /* \"#utility.yul\":25888:25889   */\n      0x00\n        /* \"#utility.yul\":25877:25886   */\n      dup4\n        /* \"#utility.yul\":25873:25890   */\n      add\n        /* \"#utility.yul\":25866:25913   */\n      mstore\n        /* \"#utility.yul\":25930:26061   */\n      tag_435\n        /* \"#utility.yul\":26056:26060   */\n      dup2\n        /* \"#utility.yul\":25930:26061   */\n      tag_187\n      jump\t// in\n    tag_435:\n        /* \"#utility.yul\":25922:26061   */\n      swap1\n      pop\n        /* \"#utility.yul\":25649:26068   */\n      swap2\n      swap1\n      pop\n      jump\t// out\n        /* \"#utility.yul\":26074:26200   */\n    tag_188:\n        /* \"#utility.yul\":26111:26118   */\n      0x00\n        /* \"#utility.yul\":26151:26193   */\n      0xffffffffffffffffffffffffffffffffffffffff\n        /* \"#utility.yul\":26144:26149   */\n      dup3\n        /* \"#utility.yul\":26140:26194   */\n      and\n        /* \"#utility.yul\":26129:26194   */\n      swap1\n      pop\n        /* \"#utility.yul\":26074:26200   */\n      swap2\n      swap1\n      pop\n      jump\t// out\n        /* \"#utility.yul\":26206:26302   */\n    tag_189:\n        /* \"#utility.yul\":26243:26250   */\n      0x00\n        /* \"#utility.yul\":26272:26296   */\n      tag_438\n        /* \"#utility.yul\":26290:26295   */\n      dup3\n        /* \"#utility.yul\":26272:26296   */\n      tag_188\n      jump\t// in\n    tag_438:\n        /* \"#utility.yul\":26261:26296   */\n      swap1\n      pop\n        /* \"#utility.yul\":26206:26302   */\n      swap2\n      swap1\n      pop\n      jump\t// out\n        /* \"#utility.yul\":26308:26426   */\n    tag_190:\n        /* \"#utility.yul\":26395:26419   */\n      tag_440\n        /* \"#utility.yul\":26413:26418   */\n      dup2\n        /* \"#utility.yul\":26395:26419   */\n      tag_189\n      jump\t// in\n    tag_440:\n        /* \"#utility.yul\":26390:26393   */\n      dup3\n        /* \"#utility.yul\":26383:26420   */\n      mstore\n        /* \"#utility.yul\":26308:26426   */\n      pop\n      pop\n      jump\t// out\n        /* \"#utility.yul\":26432:26874   */\n    tag_101:\n        /* \"#utility.yul\":26581:26585   */\n      0x00\n        /* \"#utility.yul\":26619:26621   */\n      0x60\n        /* \"#utility.yul\":26608:26617   */\n      dup3\n        /* \"#utility.yul\":26604:26622   */\n      add\n        /* \"#utility.yul\":26596:26622   */\n      swap1\n      pop\n        /* \"#utility.yul\":26632:26703   */\n      tag_442\n        /* \"#utility.yul\":26700:26701   */\n      0x00\n        /* \"#utility.yul\":26689:26698   */\n      dup4\n        /* \"#utility.yul\":26685:26702   */\n      add\n        /* \"#utility.yul\":26676:26682   */\n      dup7\n        /* \"#utility.yul\":26632:26703   */\n      tag_150\n      jump\t// in\n    tag_442:\n        /* \"#utility.yul\":26713:26785   */\n      tag_443\n        /* \"#utility.yul\":26781:26783   */\n      0x20\n        /* \"#utility.yul\":26770:26779   */\n      dup4\n        /* \"#utility.yul\":26766:26784   */\n      add\n        /* \"#utility.yul\":26757:26763   */\n      dup6\n        /* \"#utility.yul\":26713:26785   */\n      tag_150\n      jump\t// in\n    tag_443:\n        /* \"#utility.yul\":26795:26867   */\n      tag_444\n        /* \"#utility.yul\":26863:26865   */\n      0x40\n        /* \"#utility.yul\":26852:26861   */\n      dup4\n        /* \"#utility.yul\":26848:26866   */\n      add\n        /* \"#utility.yul\":26839:26845   */\n      dup5\n        /* \"#utility.yul\":26795:26867   */\n      tag_190\n      jump\t// in\n    tag_444:\n        /* \"#utility.yul\":26432:26874   */\n      swap5\n      swap4\n      pop\n      pop\n      pop\n      pop\n      jump\t// out\n\n    auxdata: 0xa26469706673582212200c90de8cca641c02c4d9196a0b9a3dda645552b5005364b670eaa2c973c8af0164736f6c634300081e0033\n}\n",
				"bytecode": {
					"linkReferences": {},
					"object": "60806040525f5f555f6001553480156015575f5ffd5b506117cc806100235f395ff3fe608060405234801561000f575f5ffd5b5060043610610060575f3560e01c806333b4097b146100645780636427acca14610094578063ab518eae146100b0578063ac2f0074146100cc578063b384abef14610102578063e792dd8a1461011e575b5f5ffd5b61007e60048036038101906100799190610a81565b610150565b60405161008b9190610b63565b60405180910390f35b6100ae60048036038101906100a99190610cbf565b610266565b005b6100ca60048036038101906100c59190610de8565b61032a565b005b6100e660048036038101906100e19190610a81565b6104d7565b6040516100f99796959493929190610f7e565b60405180910390f35b61011c60048036038101906101179190610ff9565b61062d565b005b61013860048036038101906101339190610a81565b6108b3565b60405161014793929190611037565b60405180910390f35b60605f60035f8481526020019081526020015f209050806008015f9054906101000a900460ff166101b6576040517f08c379a00000000000000000000000000000000000000000000000000000000081526004016101ad906110bd565b60405180910390fd5b5f816004018054905090505f8167ffffffffffffffff8111156101dc576101db610b9b565b5b60405190808252806020026020018201604052801561020a5781602001602082028036833780820191505090505b5090505f5f90505b8281101561025a57836009015f8281526020019081526020015f2054828281518110610241576102406110db565b5b6020026020010181815250508080600101915050610212565b50809350505050919050565b5f5f81548092919061027790611135565b919050555060405180606001604052805f5481526020018281526020016001151581525060025f5f5481526020019081526020015f205f820151815f015560208201518160010190816102ca9190611379565b506040820151816002015f6101000a81548160ff0219169083151502179055509050507fc80c020e707dc135a0cfab12e04e26a3ec7ed662ecaa0b12fd49d1dc05fc58535f548260405161031f929190611448565b60405180910390a150565b60025f8881526020019081526020015f206002015f9054906101000a900460ff1661038a576040517f08c379a0000000000000000000000000000000000000000000000000000000008152600401610381906114c0565b60405180910390fd5b8082106103cc576040517f08c379a00000000000000000000000000000000000000000000000000000000081526004016103c390611528565b60405180910390fd5b60015f8154809291906103de90611135565b91905055505f60035f60015481526020019081526020015f209050600154815f01819055508781600101819055508681600201908161041d9190611379565b508581600301908161042f9190611379565b508481600401908051906020019061044892919061096b565b508381600501908051906020019061046192919061096b565b508281600601819055508181600701819055506001816008015f6101000a81548160ff0219169083151502179055507f87b11e68a16f482c7abcd786b549381647901857698ac775bffbbb09975fccdf60015489896040516104c593929190611546565b60405180910390a15050505050505050565b6003602052805f5260405f205f91509050805f015490806001015490806002018054610502906111a9565b80601f016020809104026020016040519081016040528092919081815260200182805461052e906111a9565b80156105795780601f1061055057610100808354040283529160200191610579565b820191905f5260205f20905b81548152906001019060200180831161055c57829003601f168201915b50505050509080600301805461058e906111a9565b80601f01602080910402602001604051908101604052809291908181526020018280546105ba906111a9565b80156106055780601f106105dc57610100808354040283529160200191610605565b820191905f5260205f20905b8154815290600101906020018083116105e857829003601f168201915b505050505090806006015490806007015490806008015f9054906101000a900460ff16905087565b5f60035f8481526020019081526020015f209050806008015f9054906101000a900460ff16610691576040517f08c379a0000000000000000000000000000000000000000000000000000000008152600401610688906110bd565b60405180910390fd5b80600601544210156106d8576040517f08c379a00000000000000000000000000000000000000000000000000000000081526004016106cf906115cc565b60405180910390fd5b806007015442111561071f576040517f08c379a000000000000000000000000000000000000000000000000000000000815260040161071690611634565b60405180910390fd5b80600401805490508210610768576040517f08c379a000000000000000000000000000000000000000000000000000000000815260040161075f9061169c565b60405180910390fd5b80600a015f3373ffffffffffffffffffffffffffffffffffffffff1673ffffffffffffffffffffffffffffffffffffffff1681526020019081526020015f205f9054906101000a900460ff16156107f4576040517f08c379a00000000000000000000000000000000000000000000000000000000081526004016107eb90611704565b60405180910390fd5b806009015f8381526020019081526020015f205f81548092919061081790611135565b9190505550600181600a015f3373ffffffffffffffffffffffffffffffffffffffff1673ffffffffffffffffffffffffffffffffffffffff1681526020019081526020015f205f6101000a81548160ff0219169083151502179055507fd91ecafccf238642dccd41161308b3eebe62a12bc5819daf5164780c221ec95b8383336040516108a693929190611761565b60405180910390a1505050565b6002602052805f5260405f205f91509050805f0154908060010180546108d8906111a9565b80601f0160208091040260200160405190810160405280929190818152602001828054610904906111a9565b801561094f5780601f106109265761010080835404028352916020019161094f565b820191905f5260205f20905b81548152906001019060200180831161093257829003601f168201915b505050505090806002015f9054906101000a900460ff16905083565b828054828255905f5260205f209081019282156109b1579160200282015b828111156109b05782518290816109a09190611379565b5091602001919060010190610989565b5b5090506109be91906109c2565b5090565b5b808211156109e1575f81816109d891906109e5565b506001016109c3565b5090565b5080546109f1906111a9565b5f825580601f10610a025750610a1f565b601f0160209004905f5260205f2090810190610a1e9190610a22565b5b50565b5b80821115610a39575f815f905550600101610a23565b5090565b5f604051905090565b5f5ffd5b5f5ffd5b5f819050919050565b610a6081610a4e565b8114610a6a575f5ffd5b50565b5f81359050610a7b81610a57565b92915050565b5f60208284031215610a9657610a95610a46565b5b5f610aa384828501610a6d565b91505092915050565b5f81519050919050565b5f82825260208201905092915050565b5f819050602082019050919050565b610ade81610a4e565b82525050565b5f610aef8383610ad5565b60208301905092915050565b5f602082019050919050565b5f610b1182610aac565b610b1b8185610ab6565b9350610b2683610ac6565b805f5b83811015610b56578151610b3d8882610ae4565b9750610b4883610afb565b925050600181019050610b29565b5085935050505092915050565b5f6020820190508181035f830152610b7b8184610b07565b905092915050565b5f5ffd5b5f5ffd5b5f601f19601f8301169050919050565b7f4e487b71000000000000000000000000000000000000000000000000000000005f52604160045260245ffd5b610bd182610b8b565b810181811067ffffffffffffffff82111715610bf057610bef610b9b565b5b80604052505050565b5f610c02610a3d565b9050610c0e8282610bc8565b919050565b5f67ffffffffffffffff821115610c2d57610c2c610b9b565b5b610c3682610b8b565b9050602081019050919050565b828183375f83830152505050565b5f610c63610c5e84610c13565b610bf9565b905082815260208101848484011115610c7f57610c7e610b87565b5b610c8a848285610c43565b509392505050565b5f82601f830112610ca657610ca5610b83565b5b8135610cb6848260208601610c51565b91505092915050565b5f60208284031215610cd457610cd3610a46565b5b5f82013567ffffffffffffffff811115610cf157610cf0610a4a565b5b610cfd84828501610c92565b91505092915050565b5f67ffffffffffffffff821115610d2057610d1f610b9b565b5b602082029050602081019050919050565b5f5ffd5b5f610d47610d4284610d06565b610bf9565b90508083825260208201905060208402830185811115610d6a57610d69610d31565b5b835b81811015610db157803567ffffffffffffffff811115610d8f57610d8e610b83565b5b808601610d9c8982610c92565b85526020850194505050602081019050610d6c565b5050509392505050565b5f82601f830112610dcf57610dce610b83565b5b8135610ddf848260208601610d35565b91505092915050565b5f5f5f5f5f5f5f60e0888a031215610e0357610e02610a46565b5b5f610e108a828b01610a6d565b975050602088013567ffffffffffffffff811115610e3157610e30610a4a565b5b610e3d8a828b01610c92565b965050604088013567ffffffffffffffff811115610e5e57610e5d610a4a565b5b610e6a8a828b01610c92565b955050606088013567ffffffffffffffff811115610e8b57610e8a610a4a565b5b610e978a828b01610dbb565b945050608088013567ffffffffffffffff811115610eb857610eb7610a4a565b5b610ec48a828b01610dbb565b93505060a0610ed58a828b01610a6d565b92505060c0610ee68a828b01610a6d565b91505092959891949750929550565b610efe81610a4e565b82525050565b5f81519050919050565b5f82825260208201905092915050565b8281835e5f83830152505050565b5f610f3682610f04565b610f408185610f0e565b9350610f50818560208601610f1e565b610f5981610b8b565b840191505092915050565b5f8115159050919050565b610f7881610f64565b82525050565b5f60e082019050610f915f83018a610ef5565b610f9e6020830189610ef5565b8181036040830152610fb08188610f2c565b90508181036060830152610fc48187610f2c565b9050610fd36080830186610ef5565b610fe060a0830185610ef5565b610fed60c0830184610f6f565b98975050505050505050565b5f5f6040838503121561100f5761100e610a46565b5b5f61101c85828601610a6d565b925050602061102d85828601610a6d565b9150509250929050565b5f60608201905061104a5f830186610ef5565b818103602083015261105c8185610f2c565b905061106b6040830184610f6f565b949350505050565b7f506f6c6c20646f6573206e6f74206578697374000000000000000000000000005f82015250565b5f6110a7601383610f0e565b91506110b282611073565b602082019050919050565b5f6020820190508181035f8301526110d48161109b565b9050919050565b7f4e487b71000000000000000000000000000000000000000000000000000000005f52603260045260245ffd5b7f4e487b71000000000000000000000000000000000000000000000000000000005f52601160045260245ffd5b5f61113f82610a4e565b91507fffffffffffffffffffffffffffffffffffffffffffffffffffffffffffffffff820361117157611170611108565b5b600182019050919050565b7f4e487b71000000000000000000000000000000000000000000000000000000005f52602260045260245ffd5b5f60028204905060018216806111c057607f821691505b6020821081036111d3576111d261117c565b5b50919050565b5f819050815f5260205f209050919050565b5f6020601f8301049050919050565b5f82821b905092915050565b5f600883026112357fffffffffffffffffffffffffffffffffffffffffffffffffffffffffffffffff826111fa565b61123f86836111fa565b95508019841693508086168417925050509392505050565b5f819050919050565b5f61127a61127561127084610a4e565b611257565b610a4e565b9050919050565b5f819050919050565b61129383611260565b6112a761129f82611281565b848454611206565b825550505050565b5f5f905090565b6112be6112af565b6112c981848461128a565b505050565b5b818110156112ec576112e15f826112b6565b6001810190506112cf565b5050565b601f82111561133157611302816111d9565b61130b846111eb565b8101602085101561131a578190505b61132e611326856111eb565b8301826112ce565b50505b505050565b5f82821c905092915050565b5f6113515f1984600802611336565b1980831691505092915050565b5f6113698383611342565b9150826002028217905092915050565b61138282610f04565b67ffffffffffffffff81111561139b5761139a610b9b565b5b6113a582546111a9565b6113b08282856112f0565b5f60209050601f8311600181146113e1575f84156113cf578287015190505b6113d9858261135e565b865550611440565b601f1984166113ef866111d9565b5f5b82811015611416578489015182556001820191506020850194506020810190506113f1565b86831015611433578489015161142f601f891682611342565b8355505b6001600288020188555050505b505050505050565b5f60408201905061145b5f830185610ef5565b818103602083015261146d8184610f2c565b90509392505050565b7f4f7267616e697a6174696f6e20646f6573206e6f7420657869737400000000005f82015250565b5f6114aa601b83610f0e565b91506114b582611476565b602082019050919050565b5f6020820190508181035f8301526114d78161149e565b9050919050565b7f496e76616c69642074696d656672616d650000000000000000000000000000005f82015250565b5f611512601183610f0e565b915061151d826114de565b602082019050919050565b5f6020820190508181035f83015261153f81611506565b9050919050565b5f6060820190506115595f830186610ef5565b6115666020830185610ef5565b81810360408301526115788184610f2c565b9050949350505050565b7f566f74696e67206861736e2774207374617274656400000000000000000000005f82015250565b5f6115b6601583610f0e565b91506115c182611582565b602082019050919050565b5f6020820190508181035f8301526115e3816115aa565b9050919050565b7f566f74696e672068617320656e646564000000000000000000000000000000005f82015250565b5f61161e601083610f0e565b9150611629826115ea565b602082019050919050565b5f6020820190508181035f83015261164b81611612565b9050919050565b7f496e76616c6964206f7074696f6e0000000000000000000000000000000000005f82015250565b5f611686600e83610f0e565b915061169182611652565b602082019050919050565b5f6020820190508181035f8301526116b38161167a565b9050919050565b7f416c726561647920766f746564000000000000000000000000000000000000005f82015250565b5f6116ee600d83610f0e565b91506116f9826116ba565b602082019050919050565b5f6020820190508181035f83015261171b816116e2565b9050919050565b5f73ffffffffffffffffffffffffffffffffffffffff82169050919050565b5f61174b82611722565b9050919050565b61175b81611741565b82525050565b5f6060820190506117745f830186610ef5565b6117816020830185610ef5565b61178e6040830184611752565b94935050505056fea26469706673582212200c90de8cca641c02c4d9196a0b9a3dda645552b5005364b670eaa2c973c8af0164736f6c634300081e0033",
					"opcodes": "PUSH1 0x80 PUSH1 0x40 MSTORE PUSH0 PUSH0 SSTORE PUSH0 PUSH1 0x1 SSTORE CALLVALUE DUP1 ISZERO PUSH1 0x15 JUMPI PUSH0 PUSH0 REVERT JUMPDEST POP PUSH2 0x17CC DUP1 PUSH2 0x23 PUSH0 CODECOPY PUSH0 RETURN INVALID PUSH1 0x80 PUSH1 0x40 MSTORE CALLVALUE DUP1 ISZERO PUSH2 0xF JUMPI PUSH0 PUSH0 REVERT JUMPDEST POP PUSH1 0x4 CALLDATASIZE LT PUSH2 0x60 JUMPI PUSH0 CALLDATALOAD PUSH1 0xE0 SHR DUP1 PUSH4 0x33B4097B EQ PUSH2 0x64 JUMPI DUP1 PUSH4 0x6427ACCA EQ PUSH2 0x94 JUMPI DUP1 PUSH4 0xAB518EAE EQ PUSH2 0xB0 JUMPI DUP1 PUSH4 0xAC2F0074 EQ PUSH2 0xCC JUMPI DUP1 PUSH4 0xB384ABEF EQ PUSH2 0x102 JUMPI DUP1 PUSH4 0xE792DD8A EQ PUSH2 0x11E JUMPI JUMPDEST PUSH0 PUSH0 REVERT JUMPDEST PUSH2 0x7E PUSH1 0x4 DUP1 CALLDATASIZE SUB DUP2 ADD SWAP1 PUSH2 0x79 SWAP2 SWAP1 PUSH2 0xA81 JUMP JUMPDEST PUSH2 0x150 JUMP JUMPDEST PUSH1 0x40 MLOAD PUSH2 0x8B SWAP2 SWAP1 PUSH2 0xB63 JUMP JUMPDEST PUSH1 0x40 MLOAD DUP1 SWAP2 SUB SWAP1 RETURN JUMPDEST PUSH2 0xAE PUSH1 0x4 DUP1 CALLDATASIZE SUB DUP2 ADD SWAP1 PUSH2 0xA9 SWAP2 SWAP1 PUSH2 0xCBF JUMP JUMPDEST PUSH2 0x266 JUMP JUMPDEST STOP JUMPDEST PUSH2 0xCA PUSH1 0x4 DUP1 CALLDATASIZE SUB DUP2 ADD SWAP1 PUSH2 0xC5 SWAP2 SWAP1 PUSH2 0xDE8 JUMP JUMPDEST PUSH2 0x32A JUMP JUMPDEST STOP JUMPDEST PUSH2 0xE6 PUSH1 0x4 DUP1 CALLDATASIZE SUB DUP2 ADD SWAP1 PUSH2 0xE1 SWAP2 SWAP1 PUSH2 0xA81 JUMP JUMPDEST PUSH2 0x4D7 JUMP JUMPDEST PUSH1 0x40 MLOAD PUSH2 0xF9 SWAP8 SWAP7 SWAP6 SWAP5 SWAP4 SWAP3 SWAP2 SWAP1 PUSH2 0xF7E JUMP JUMPDEST PUSH1 0x40 MLOAD DUP1 SWAP2 SUB SWAP1 RETURN JUMPDEST PUSH2 0x11C PUSH1 0x4 DUP1 CALLDATASIZE SUB DUP2 ADD SWAP1 PUSH2 0x117 SWAP2 SWAP1 PUSH2 0xFF9 JUMP JUMPDEST PUSH2 0x62D JUMP JUMPDEST STOP JUMPDEST PUSH2 0x138 PUSH1 0x4 DUP1 CALLDATASIZE SUB DUP2 ADD SWAP1 PUSH2 0x133 SWAP2 SWAP1 PUSH2 0xA81 JUMP JUMPDEST PUSH2 0x8B3 JUMP JUMPDEST PUSH1 0x40 MLOAD PUSH2 0x147 SWAP4 SWAP3 SWAP2 SWAP1 PUSH2 0x1037 JUMP JUMPDEST PUSH1 0x40 MLOAD DUP1 SWAP2 SUB SWAP1 RETURN JUMPDEST PUSH1 0x60 PUSH0 PUSH1 0x3 PUSH0 DUP5 DUP2 MSTORE PUSH1 0x20 ADD SWAP1 DUP2 MSTORE PUSH1 0x20 ADD PUSH0 KECCAK256 SWAP1 POP DUP1 PUSH1 0x8 ADD PUSH0 SWAP1 SLOAD SWAP1 PUSH2 0x100 EXP SWAP1 DIV PUSH1 0xFF AND PUSH2 0x1B6 JUMPI PUSH1 0x40 MLOAD PUSH32 0x8C379A000000000000000000000000000000000000000000000000000000000 DUP2 MSTORE PUSH1 0x4 ADD PUSH2 0x1AD SWAP1 PUSH2 0x10BD JUMP JUMPDEST PUSH1 0x40 MLOAD DUP1 SWAP2 SUB SWAP1 REVERT JUMPDEST PUSH0 DUP2 PUSH1 0x4 ADD DUP1 SLOAD SWAP1 POP SWAP1 POP PUSH0 DUP2 PUSH8 0xFFFFFFFFFFFFFFFF DUP2 GT ISZERO PUSH2 0x1DC JUMPI PUSH2 0x1DB PUSH2 0xB9B JUMP JUMPDEST JUMPDEST PUSH1 0x40 MLOAD SWAP1 DUP1 DUP3 MSTORE DUP1 PUSH1 0x20 MUL PUSH1 0x20 ADD DUP3 ADD PUSH1 0x40 MSTORE DUP1 ISZERO PUSH2 0x20A JUMPI DUP2 PUSH1 0x20 ADD PUSH1 0x20 DUP3 MUL DUP1 CALLDATASIZE DUP4 CALLDATACOPY DUP1 DUP3 ADD SWAP2 POP POP SWAP1 POP JUMPDEST POP SWAP1 POP PUSH0 PUSH0 SWAP1 POP JUMPDEST DUP3 DUP2 LT ISZERO PUSH2 0x25A JUMPI DUP4 PUSH1 0x9 ADD PUSH0 DUP3 DUP2 MSTORE PUSH1 0x20 ADD SWAP1 DUP2 MSTORE PUSH1 0x20 ADD PUSH0 KECCAK256 SLOAD DUP3 DUP3 DUP2 MLOAD DUP2 LT PUSH2 0x241 JUMPI PUSH2 0x240 PUSH2 0x10DB JUMP JUMPDEST JUMPDEST PUSH1 0x20 MUL PUSH1 0x20 ADD ADD DUP2 DUP2 MSTORE POP POP DUP1 DUP1 PUSH1 0x1 ADD SWAP2 POP POP PUSH2 0x212 JUMP JUMPDEST POP DUP1 SWAP4 POP POP POP POP SWAP2 SWAP1 POP JUMP JUMPDEST PUSH0 PUSH0 DUP2 SLOAD DUP1 SWAP3 SWAP2 SWAP1 PUSH2 0x277 SWAP1 PUSH2 0x1135 JUMP JUMPDEST SWAP2 SWAP1 POP SSTORE POP PUSH1 0x40 MLOAD DUP1 PUSH1 0x60 ADD PUSH1 0x40 MSTORE DUP1 PUSH0 SLOAD DUP2 MSTORE PUSH1 0x20 ADD DUP3 DUP2 MSTORE PUSH1 0x20 ADD PUSH1 0x1 ISZERO ISZERO DUP2 MSTORE POP PUSH1 0x2 PUSH0 PUSH0 SLOAD DUP2 MSTORE PUSH1 0x20 ADD SWAP1 DUP2 MSTORE PUSH1 0x20 ADD PUSH0 KECCAK256 PUSH0 DUP3 ADD MLOAD DUP2 PUSH0 ADD SSTORE PUSH1 0x20 DUP3 ADD MLOAD DUP2 PUSH1 0x1 ADD SWAP1 DUP2 PUSH2 0x2CA SWAP2 SWAP1 PUSH2 0x1379 JUMP JUMPDEST POP PUSH1 0x40 DUP3 ADD MLOAD DUP2 PUSH1 0x2 ADD PUSH0 PUSH2 0x100 EXP DUP2 SLOAD DUP2 PUSH1 0xFF MUL NOT AND SWAP1 DUP4 ISZERO ISZERO MUL OR SWAP1 SSTORE POP SWAP1 POP POP PUSH32 0xC80C020E707DC135A0CFAB12E04E26A3EC7ED662ECAA0B12FD49D1DC05FC5853 PUSH0 SLOAD DUP3 PUSH1 0x40 MLOAD PUSH2 0x31F SWAP3 SWAP2 SWAP1 PUSH2 0x1448 JUMP JUMPDEST PUSH1 0x40 MLOAD DUP1 SWAP2 SUB SWAP1 LOG1 POP JUMP JUMPDEST PUSH1 0x2 PUSH0 DUP9 DUP2 MSTORE PUSH1 0x20 ADD SWAP1 DUP2 MSTORE PUSH1 0x20 ADD PUSH0 KECCAK256 PUSH1 0x2 ADD PUSH0 SWAP1 SLOAD SWAP1 PUSH2 0x100 EXP SWAP1 DIV PUSH1 0xFF AND PUSH2 0x38A JUMPI PUSH1 0x40 MLOAD PUSH32 0x8C379A000000000000000000000000000000000000000000000000000000000 DUP2 MSTORE PUSH1 0x4 ADD PUSH2 0x381 SWAP1 PUSH2 0x14C0 JUMP JUMPDEST PUSH1 0x40 MLOAD DUP1 SWAP2 SUB SWAP1 REVERT JUMPDEST DUP1 DUP3 LT PUSH2 0x3CC JUMPI PUSH1 0x40 MLOAD PUSH32 0x8C379A000000000000000000000000000000000000000000000000000000000 DUP2 MSTORE PUSH1 0x4 ADD PUSH2 0x3C3 SWAP1 PUSH2 0x1528 JUMP JUMPDEST PUSH1 0x40 MLOAD DUP1 SWAP2 SUB SWAP1 REVERT JUMPDEST PUSH1 0x1 PUSH0 DUP2 SLOAD DUP1 SWAP3 SWAP2 SWAP1 PUSH2 0x3DE SWAP1 PUSH2 0x1135 JUMP JUMPDEST SWAP2 SWAP1 POP SSTORE POP PUSH0 PUSH1 0x3 PUSH0 PUSH1 0x1 SLOAD DUP2 MSTORE PUSH1 0x20 ADD SWAP1 DUP2 MSTORE PUSH1 0x20 ADD PUSH0 KECCAK256 SWAP1 POP PUSH1 0x1 SLOAD DUP2 PUSH0 ADD DUP2 SWAP1 SSTORE POP DUP8 DUP2 PUSH1 0x1 ADD DUP2 SWAP1 SSTORE POP DUP7 DUP2 PUSH1 0x2 ADD SWAP1 DUP2 PUSH2 0x41D SWAP2 SWAP1 PUSH2 0x1379 JUMP JUMPDEST POP DUP6 DUP2 PUSH1 0x3 ADD SWAP1 DUP2 PUSH2 0x42F SWAP2 SWAP1 PUSH2 0x1379 JUMP JUMPDEST POP DUP5 DUP2 PUSH1 0x4 ADD SWAP1 DUP1 MLOAD SWAP1 PUSH1 0x20 ADD SWAP1 PUSH2 0x448 SWAP3 SWAP2 SWAP1 PUSH2 0x96B JUMP JUMPDEST POP DUP4 DUP2 PUSH1 0x5 ADD SWAP1 DUP1 MLOAD SWAP1 PUSH1 0x20 ADD SWAP1 PUSH2 0x461 SWAP3 SWAP2 SWAP1 PUSH2 0x96B JUMP JUMPDEST POP DUP3 DUP2 PUSH1 0x6 ADD DUP2 SWAP1 SSTORE POP DUP2 DUP2 PUSH1 0x7 ADD DUP2 SWAP1 SSTORE POP PUSH1 0x1 DUP2 PUSH1 0x8 ADD PUSH0 PUSH2 0x100 EXP DUP2 SLOAD DUP2 PUSH1 0xFF MUL NOT AND SWAP1 DUP4 ISZERO ISZERO MUL OR SWAP1 SSTORE POP PUSH32 0x87B11E68A16F482C7ABCD786B549381647901857698AC775BFFBBB09975FCCDF PUSH1 0x1 SLOAD DUP10 DUP10 PUSH1 0x40 MLOAD PUSH2 0x4C5 SWAP4 SWAP3 SWAP2 SWAP1 PUSH2 0x1546 JUMP JUMPDEST PUSH1 0x40 MLOAD DUP1 SWAP2 SUB SWAP1 LOG1 POP POP POP POP POP POP POP POP JUMP JUMPDEST PUSH1 0x3 PUSH1 0x20 MSTORE DUP1 PUSH0 MSTORE PUSH1 0x40 PUSH0 KECCAK256 PUSH0 SWAP2 POP SWAP1 POP DUP1 PUSH0 ADD SLOAD SWAP1 DUP1 PUSH1 0x1 ADD SLOAD SWAP1 DUP1 PUSH1 0x2 ADD DUP1 SLOAD PUSH2 0x502 SWAP1 PUSH2 0x11A9 JUMP JUMPDEST DUP1 PUSH1 0x1F ADD PUSH1 0x20 DUP1 SWAP2 DIV MUL PUSH1 0x20 ADD PUSH1 0x40 MLOAD SWAP1 DUP2 ADD PUSH1 0x40 MSTORE DUP1 SWAP3 SWAP2 SWAP1 DUP2 DUP2 MSTORE PUSH1 0x20 ADD DUP3 DUP1 SLOAD PUSH2 0x52E SWAP1 PUSH2 0x11A9 JUMP JUMPDEST DUP1 ISZERO PUSH2 0x579 JUMPI DUP1 PUSH1 0x1F LT PUSH2 0x550 JUMPI PUSH2 0x100 DUP1 DUP4 SLOAD DIV MUL DUP4 MSTORE SWAP2 PUSH1 0x20 ADD SWAP2 PUSH2 0x579 JUMP JUMPDEST DUP3 ADD SWAP2 SWAP1 PUSH0 MSTORE PUSH1 0x20 PUSH0 KECCAK256 SWAP1 JUMPDEST DUP2 SLOAD DUP2 MSTORE SWAP1 PUSH1 0x1 ADD SWAP1 PUSH1 0x20 ADD DUP1 DUP4 GT PUSH2 0x55C JUMPI DUP3 SWAP1 SUB PUSH1 0x1F AND DUP3 ADD SWAP2 JUMPDEST POP POP POP POP POP SWAP1 DUP1 PUSH1 0x3 ADD DUP1 SLOAD PUSH2 0x58E SWAP1 PUSH2 0x11A9 JUMP JUMPDEST DUP1 PUSH1 0x1F ADD PUSH1 0x20 DUP1 SWAP2 DIV MUL PUSH1 0x20 ADD PUSH1 0x40 MLOAD SWAP1 DUP2 ADD PUSH1 0x40 MSTORE DUP1 SWAP3 SWAP2 SWAP1 DUP2 DUP2 MSTORE PUSH1 0x20 ADD DUP3 DUP1 SLOAD PUSH2 0x5BA SWAP1 PUSH2 0x11A9 JUMP JUMPDEST DUP1 ISZERO PUSH2 0x605 JUMPI DUP1 PUSH1 0x1F LT PUSH2 0x5DC JUMPI PUSH2 0x100 DUP1 DUP4 SLOAD DIV MUL DUP4 MSTORE SWAP2 PUSH1 0x20 ADD SWAP2 PUSH2 0x605 JUMP JUMPDEST DUP3 ADD SWAP2 SWAP1 PUSH0 MSTORE PUSH1 0x20 PUSH0 KECCAK256 SWAP1 JUMPDEST DUP2 SLOAD DUP2 MSTORE SWAP1 PUSH1 0x1 ADD SWAP1 PUSH1 0x20 ADD DUP1 DUP4 GT PUSH2 0x5E8 JUMPI DUP3 SWAP1 SUB PUSH1 0x1F AND DUP3 ADD SWAP2 JUMPDEST POP POP POP POP POP SWAP1 DUP1 PUSH1 0x6 ADD SLOAD SWAP1 DUP1 PUSH1 0x7 ADD SLOAD SWAP1 DUP1 PUSH1 0x8 ADD PUSH0 SWAP1 SLOAD SWAP1 PUSH2 0x100 EXP SWAP1 DIV PUSH1 0xFF AND SWAP1 POP DUP8 JUMP JUMPDEST PUSH0 PUSH1 0x3 PUSH0 DUP5 DUP2 MSTORE PUSH1 0x20 ADD SWAP1 DUP2 MSTORE PUSH1 0x20 ADD PUSH0 KECCAK256 SWAP1 POP DUP1 PUSH1 0x8 ADD PUSH0 SWAP1 SLOAD SWAP1 PUSH2 0x100 EXP SWAP1 DIV PUSH1 0xFF AND PUSH2 0x691 JUMPI PUSH1 0x40 MLOAD PUSH32 0x8C379A000000000000000000000000000000000000000000000000000000000 DUP2 MSTORE PUSH1 0x4 ADD PUSH2 0x688 SWAP1 PUSH2 0x10BD JUMP JUMPDEST PUSH1 0x40 MLOAD DUP1 SWAP2 SUB SWAP1 REVERT JUMPDEST DUP1 PUSH1 0x6 ADD SLOAD TIMESTAMP LT ISZERO PUSH2 0x6D8 JUMPI PUSH1 0x40 MLOAD PUSH32 0x8C379A000000000000000000000000000000000000000000000000000000000 DUP2 MSTORE PUSH1 0x4 ADD PUSH2 0x6CF SWAP1 PUSH2 0x15CC JUMP JUMPDEST PUSH1 0x40 MLOAD DUP1 SWAP2 SUB SWAP1 REVERT JUMPDEST DUP1 PUSH1 0x7 ADD SLOAD TIMESTAMP GT ISZERO PUSH2 0x71F JUMPI PUSH1 0x40 MLOAD PUSH32 0x8C379A000000000000000000000000000000000000000000000000000000000 DUP2 MSTORE PUSH1 0x4 ADD PUSH2 0x716 SWAP1 PUSH2 0x1634 JUMP JUMPDEST PUSH1 0x40 MLOAD DUP1 SWAP2 SUB SWAP1 REVERT JUMPDEST DUP1 PUSH1 0x4 ADD DUP1 SLOAD SWAP1 POP DUP3 LT PUSH2 0x768 JUMPI PUSH1 0x40 MLOAD PUSH32 0x8C379A000000000000000000000000000000000000000000000000000000000 DUP2 MSTORE PUSH1 0x4 ADD PUSH2 0x75F SWAP1 PUSH2 0x169C JUMP JUMPDEST PUSH1 0x40 MLOAD DUP1 SWAP2 SUB SWAP1 REVERT JUMPDEST DUP1 PUSH1 0xA ADD PUSH0 CALLER PUSH20 0xFFFFFFFFFFFFFFFFFFFFFFFFFFFFFFFFFFFFFFFF AND PUSH20 0xFFFFFFFFFFFFFFFFFFFFFFFFFFFFFFFFFFFFFFFF AND DUP2 MSTORE PUSH1 0x20 ADD SWAP1 DUP2 MSTORE PUSH1 0x20 ADD PUSH0 KECCAK256 PUSH0 SWAP1 SLOAD SWAP1 PUSH2 0x100 EXP SWAP1 DIV PUSH1 0xFF AND ISZERO PUSH2 0x7F4 JUMPI PUSH1 0x40 MLOAD PUSH32 0x8C379A000000000000000000000000000000000000000000000000000000000 DUP2 MSTORE PUSH1 0x4 ADD PUSH2 0x7EB SWAP1 PUSH2 0x1704 JUMP JUMPDEST PUSH1 0x40 MLOAD DUP1 SWAP2 SUB SWAP1 REVERT JUMPDEST DUP1 PUSH1 0x9 ADD PUSH0 DUP4 DUP2 MSTORE PUSH1 0x20 ADD SWAP1 DUP2 MSTORE PUSH1 0x20 ADD PUSH0 KECCAK256 PUSH0 DUP2 SLOAD DUP1 SWAP3 SWAP2 SWAP1 PUSH2 0x817 SWAP1 PUSH2 0x1135 JUMP JUMPDEST SWAP2 SWAP1 POP SSTORE POP PUSH1 0x1 DUP2 PUSH1 0xA ADD PUSH0 CALLER PUSH20 0xFFFFFFFFFFFFFFFFFFFFFFFFFFFFFFFFFFFFFFFF AND PUSH20 0xFFFFFFFFFFFFFFFFFFFFFFFFFFFFFFFFFFFFFFFF AND DUP2 MSTORE PUSH1 0x20 ADD SWAP1 DUP2 MSTORE PUSH1 0x20 ADD PUSH0 KECCAK256 PUSH0 PUSH2 0x100 EXP DUP2 SLOAD DUP2 PUSH1 0xFF MUL NOT AND SWAP1 DUP4 ISZERO ISZERO MUL OR SWAP1 SSTORE POP PUSH32 0xD91ECAFCCF238642DCCD41161308B3EEBE62A12BC5819DAF5164780C221EC95B DUP4 DUP4 CALLER PUSH1 0x40 MLOAD PUSH2 0x8A6 SWAP4 SWAP3 SWAP2 SWAP1 PUSH2 0x1761 JUMP JUMPDEST PUSH1 0x40 MLOAD DUP1 SWAP2 SUB SWAP1 LOG1 POP POP POP JUMP JUMPDEST PUSH1 0x2 PUSH1 0x20 MSTORE DUP1 PUSH0 MSTORE PUSH1 0x40 PUSH0 KECCAK256 PUSH0 SWAP2 POP SWAP1 POP DUP1 PUSH0 ADD SLOAD SWAP1 DUP1 PUSH1 0x1 ADD DUP1 SLOAD PUSH2 0x8D8 SWAP1 PUSH2 0x11A9 JUMP JUMPDEST DUP1 PUSH1 0x1F ADD PUSH1 0x20 DUP1 SWAP2 DIV MUL PUSH1 0x20 ADD PUSH1 0x40 MLOAD SWAP1 DUP2 ADD PUSH1 0x40 MSTORE DUP1 SWAP3 SWAP2 SWAP1 DUP2 DUP2 MSTORE PUSH1 0x20 ADD DUP3 DUP1 SLOAD PUSH2 0x904 SWAP1 PUSH2 0x11A9 JUMP JUMPDEST DUP1 ISZERO PUSH2 0x94F JUMPI DUP1 PUSH1 0x1F LT PUSH2 0x926 JUMPI PUSH2 0x100 DUP1 DUP4 SLOAD DIV MUL DUP4 MSTORE SWAP2 PUSH1 0x20 ADD SWAP2 PUSH2 0x94F JUMP JUMPDEST DUP3 ADD SWAP2 SWAP1 PUSH0 MSTORE PUSH1 0x20 PUSH0 KECCAK256 SWAP1 JUMPDEST DUP2 SLOAD DUP2 MSTORE SWAP1 PUSH1 0x1 ADD SWAP1 PUSH1 0x20 ADD DUP1 DUP4 GT PUSH2 0x932 JUMPI DUP3 SWAP1 SUB PUSH1 0x1F AND DUP3 ADD SWAP2 JUMPDEST POP POP POP POP POP SWAP1 DUP1 PUSH1 0x2 ADD PUSH0 SWAP1 SLOAD SWAP1 PUSH2 0x100 EXP SWAP1 DIV PUSH1 0xFF AND SWAP1 POP DUP4 JUMP JUMPDEST DUP3 DUP1 SLOAD DUP3 DUP3 SSTORE SWAP1 PUSH0 MSTORE PUSH1 0x20 PUSH0 KECCAK256 SWAP1 DUP2 ADD SWAP3 DUP3 ISZERO PUSH2 0x9B1 JUMPI SWAP2 PUSH1 0x20 MUL DUP3 ADD JUMPDEST DUP3 DUP2 GT ISZERO PUSH2 0x9B0 JUMPI DUP3 MLOAD DUP3 SWAP1 DUP2 PUSH2 0x9A0 SWAP2 SWAP1 PUSH2 0x1379 JUMP JUMPDEST POP SWAP2 PUSH1 0x20 ADD SWAP2 SWAP1 PUSH1 0x1 ADD SWAP1 PUSH2 0x989 JUMP JUMPDEST JUMPDEST POP SWAP1 POP PUSH2 0x9BE SWAP2 SWAP1 PUSH2 0x9C2 JUMP JUMPDEST POP SWAP1 JUMP JUMPDEST JUMPDEST DUP1 DUP3 GT ISZERO PUSH2 0x9E1 JUMPI PUSH0 DUP2 DUP2 PUSH2 0x9D8 SWAP2 SWAP1 PUSH2 0x9E5 JUMP JUMPDEST POP PUSH1 0x1 ADD PUSH2 0x9C3 JUMP JUMPDEST POP SWAP1 JUMP JUMPDEST POP DUP1 SLOAD PUSH2 0x9F1 SWAP1 PUSH2 0x11A9 JUMP JUMPDEST PUSH0 DUP3 SSTORE DUP1 PUSH1 0x1F LT PUSH2 0xA02 JUMPI POP PUSH2 0xA1F JUMP JUMPDEST PUSH1 0x1F ADD PUSH1 0x20 SWAP1 DIV SWAP1 PUSH0 MSTORE PUSH1 0x20 PUSH0 KECCAK256 SWAP1 DUP2 ADD SWAP1 PUSH2 0xA1E SWAP2 SWAP1 PUSH2 0xA22 JUMP JUMPDEST JUMPDEST POP JUMP JUMPDEST JUMPDEST DUP1 DUP3 GT ISZERO PUSH2 0xA39 JUMPI PUSH0 DUP2 PUSH0 SWAP1 SSTORE POP PUSH1 0x1 ADD PUSH2 0xA23 JUMP JUMPDEST POP SWAP1 JUMP JUMPDEST PUSH0 PUSH1 0x40 MLOAD SWAP1 POP SWAP1 JUMP JUMPDEST PUSH0 PUSH0 REVERT JUMPDEST PUSH0 PUSH0 REVERT JUMPDEST PUSH0 DUP2 SWAP1 POP SWAP2 SWAP1 POP JUMP JUMPDEST PUSH2 0xA60 DUP2 PUSH2 0xA4E JUMP JUMPDEST DUP2 EQ PUSH2 0xA6A JUMPI PUSH0 PUSH0 REVERT JUMPDEST POP JUMP JUMPDEST PUSH0 DUP2 CALLDATALOAD SWAP1 POP PUSH2 0xA7B DUP2 PUSH2 0xA57 JUMP JUMPDEST SWAP3 SWAP2 POP POP JUMP JUMPDEST PUSH0 PUSH1 0x20 DUP3 DUP5 SUB SLT ISZERO PUSH2 0xA96 JUMPI PUSH2 0xA95 PUSH2 0xA46 JUMP JUMPDEST JUMPDEST PUSH0 PUSH2 0xAA3 DUP5 DUP3 DUP6 ADD PUSH2 0xA6D JUMP JUMPDEST SWAP2 POP POP SWAP3 SWAP2 POP POP JUMP JUMPDEST PUSH0 DUP2 MLOAD SWAP1 POP SWAP2 SWAP1 POP JUMP JUMPDEST PUSH0 DUP3 DUP3 MSTORE PUSH1 0x20 DUP3 ADD SWAP1 POP SWAP3 SWAP2 POP POP JUMP JUMPDEST PUSH0 DUP2 SWAP1 POP PUSH1 0x20 DUP3 ADD SWAP1 POP SWAP2 SWAP1 POP JUMP JUMPDEST PUSH2 0xADE DUP2 PUSH2 0xA4E JUMP JUMPDEST DUP3 MSTORE POP POP JUMP JUMPDEST PUSH0 PUSH2 0xAEF DUP4 DUP4 PUSH2 0xAD5 JUMP JUMPDEST PUSH1 0x20 DUP4 ADD SWAP1 POP SWAP3 SWAP2 POP POP JUMP JUMPDEST PUSH0 PUSH1 0x20 DUP3 ADD SWAP1 POP SWAP2 SWAP1 POP JUMP JUMPDEST PUSH0 PUSH2 0xB11 DUP3 PUSH2 0xAAC JUMP JUMPDEST PUSH2 0xB1B DUP2 DUP6 PUSH2 0xAB6 JUMP JUMPDEST SWAP4 POP PUSH2 0xB26 DUP4 PUSH2 0xAC6 JUMP JUMPDEST DUP1 PUSH0 JUMPDEST DUP4 DUP2 LT ISZERO PUSH2 0xB56 JUMPI DUP2 MLOAD PUSH2 0xB3D DUP9 DUP3 PUSH2 0xAE4 JUMP JUMPDEST SWAP8 POP PUSH2 0xB48 DUP4 PUSH2 0xAFB JUMP JUMPDEST SWAP3 POP POP PUSH1 0x1 DUP2 ADD SWAP1 POP PUSH2 0xB29 JUMP JUMPDEST POP DUP6 SWAP4 POP POP POP POP SWAP3 SWAP2 POP POP JUMP JUMPDEST PUSH0 PUSH1 0x20 DUP3 ADD SWAP1 POP DUP2 DUP2 SUB PUSH0 DUP4 ADD MSTORE PUSH2 0xB7B DUP2 DUP5 PUSH2 0xB07 JUMP JUMPDEST SWAP1 POP SWAP3 SWAP2 POP POP JUMP JUMPDEST PUSH0 PUSH0 REVERT JUMPDEST PUSH0 PUSH0 REVERT JUMPDEST PUSH0 PUSH1 0x1F NOT PUSH1 0x1F DUP4 ADD AND SWAP1 POP SWAP2 SWAP1 POP JUMP JUMPDEST PUSH32 0x4E487B7100000000000000000000000000000000000000000000000000000000 PUSH0 MSTORE PUSH1 0x41 PUSH1 0x4 MSTORE PUSH1 0x24 PUSH0 REVERT JUMPDEST PUSH2 0xBD1 DUP3 PUSH2 0xB8B JUMP JUMPDEST DUP2 ADD DUP2 DUP2 LT PUSH8 0xFFFFFFFFFFFFFFFF DUP3 GT OR ISZERO PUSH2 0xBF0 JUMPI PUSH2 0xBEF PUSH2 0xB9B JUMP JUMPDEST JUMPDEST DUP1 PUSH1 0x40 MSTORE POP POP POP JUMP JUMPDEST PUSH0 PUSH2 0xC02 PUSH2 0xA3D JUMP JUMPDEST SWAP1 POP PUSH2 0xC0E DUP3 DUP3 PUSH2 0xBC8 JUMP JUMPDEST SWAP2 SWAP1 POP JUMP JUMPDEST PUSH0 PUSH8 0xFFFFFFFFFFFFFFFF DUP3 GT ISZERO PUSH2 0xC2D JUMPI PUSH2 0xC2C PUSH2 0xB9B JUMP JUMPDEST JUMPDEST PUSH2 0xC36 DUP3 PUSH2 0xB8B JUMP JUMPDEST SWAP1 POP PUSH1 0x20 DUP2 ADD SWAP1 POP SWAP2 SWAP1 POP JUMP JUMPDEST DUP3 DUP2 DUP4 CALLDATACOPY PUSH0 DUP4 DUP4 ADD MSTORE POP POP POP JUMP JUMPDEST PUSH0 PUSH2 0xC63 PUSH2 0xC5E DUP5 PUSH2 0xC13 JUMP JUMPDEST PUSH2 0xBF9 JUMP JUMPDEST SWAP1 POP DUP3 DUP2 MSTORE PUSH1 0x20 DUP2 ADD DUP5 DUP5 DUP5 ADD GT ISZERO PUSH2 0xC7F JUMPI PUSH2 0xC7E PUSH2 0xB87 JUMP JUMPDEST JUMPDEST PUSH2 0xC8A DUP5 DUP3 DUP6 PUSH2 0xC43 JUMP JUMPDEST POP SWAP4 SWAP3 POP POP POP JUMP JUMPDEST PUSH0 DUP3 PUSH1 0x1F DUP4 ADD SLT PUSH2 0xCA6 JUMPI PUSH2 0xCA5 PUSH2 0xB83 JUMP JUMPDEST JUMPDEST DUP2 CALLDATALOAD PUSH2 0xCB6 DUP5 DUP3 PUSH1 0x20 DUP7 ADD PUSH2 0xC51 JUMP JUMPDEST SWAP2 POP POP SWAP3 SWAP2 POP POP JUMP JUMPDEST PUSH0 PUSH1 0x20 DUP3 DUP5 SUB SLT ISZERO PUSH2 0xCD4 JUMPI PUSH2 0xCD3 PUSH2 0xA46 JUMP JUMPDEST JUMPDEST PUSH0 DUP3 ADD CALLDATALOAD PUSH8 0xFFFFFFFFFFFFFFFF DUP2 GT ISZERO PUSH2 0xCF1 JUMPI PUSH2 0xCF0 PUSH2 0xA4A JUMP JUMPDEST JUMPDEST PUSH2 0xCFD DUP5 DUP3 DUP6 ADD PUSH2 0xC92 JUMP JUMPDEST SWAP2 POP POP SWAP3 SWAP2 POP POP JUMP JUMPDEST PUSH0 PUSH8 0xFFFFFFFFFFFFFFFF DUP3 GT ISZERO PUSH2 0xD20 JUMPI PUSH2 0xD1F PUSH2 0xB9B JUMP JUMPDEST JUMPDEST PUSH1 0x20 DUP3 MUL SWAP1 POP PUSH1 0x20 DUP2 ADD SWAP1 POP SWAP2 SWAP1 POP JUMP JUMPDEST PUSH0 PUSH0 REVERT JUMPDEST PUSH0 PUSH2 0xD47 PUSH2 0xD42 DUP5 PUSH2 0xD06 JUMP JUMPDEST PUSH2 0xBF9 JUMP JUMPDEST SWAP1 POP DUP1 DUP4 DUP3 MSTORE PUSH1 0x20 DUP3 ADD SWAP1 POP PUSH1 0x20 DUP5 MUL DUP4 ADD DUP6 DUP2 GT ISZERO PUSH2 0xD6A JUMPI PUSH2 0xD69 PUSH2 0xD31 JUMP JUMPDEST JUMPDEST DUP4 JUMPDEST DUP2 DUP2 LT ISZERO PUSH2 0xDB1 JUMPI DUP1 CALLDATALOAD PUSH8 0xFFFFFFFFFFFFFFFF DUP2 GT ISZERO PUSH2 0xD8F JUMPI PUSH2 0xD8E PUSH2 0xB83 JUMP JUMPDEST JUMPDEST DUP1 DUP7 ADD PUSH2 0xD9C DUP10 DUP3 PUSH2 0xC92 JUMP JUMPDEST DUP6 MSTORE PUSH1 0x20 DUP6 ADD SWAP5 POP POP POP PUSH1 0x20 DUP2 ADD SWAP1 POP PUSH2 0xD6C JUMP JUMPDEST POP POP POP SWAP4 SWAP3 POP POP POP JUMP JUMPDEST PUSH0 DUP3 PUSH1 0x1F DUP4 ADD SLT PUSH2 0xDCF JUMPI PUSH2 0xDCE PUSH2 0xB83 JUMP JUMPDEST JUMPDEST DUP2 CALLDATALOAD PUSH2 0xDDF DUP5 DUP3 PUSH1 0x20 DUP7 ADD PUSH2 0xD35 JUMP JUMPDEST SWAP2 POP POP SWAP3 SWAP2 POP POP JUMP JUMPDEST PUSH0 PUSH0 PUSH0 PUSH0 PUSH0 PUSH0 PUSH0 PUSH1 0xE0 DUP9 DUP11 SUB SLT ISZERO PUSH2 0xE03 JUMPI PUSH2 0xE02 PUSH2 0xA46 JUMP JUMPDEST JUMPDEST PUSH0 PUSH2 0xE10 DUP11 DUP3 DUP12 ADD PUSH2 0xA6D JUMP JUMPDEST SWAP8 POP POP PUSH1 0x20 DUP9 ADD CALLDATALOAD PUSH8 0xFFFFFFFFFFFFFFFF DUP2 GT ISZERO PUSH2 0xE31 JUMPI PUSH2 0xE30 PUSH2 0xA4A JUMP JUMPDEST JUMPDEST PUSH2 0xE3D DUP11 DUP3 DUP12 ADD PUSH2 0xC92 JUMP JUMPDEST SWAP7 POP POP PUSH1 0x40 DUP9 ADD CALLDATALOAD PUSH8 0xFFFFFFFFFFFFFFFF DUP2 GT ISZERO PUSH2 0xE5E JUMPI PUSH2 0xE5D PUSH2 0xA4A JUMP JUMPDEST JUMPDEST PUSH2 0xE6A DUP11 DUP3 DUP12 ADD PUSH2 0xC92 JUMP JUMPDEST SWAP6 POP POP PUSH1 0x60 DUP9 ADD CALLDATALOAD PUSH8 0xFFFFFFFFFFFFFFFF DUP2 GT ISZERO PUSH2 0xE8B JUMPI PUSH2 0xE8A PUSH2 0xA4A JUMP JUMPDEST JUMPDEST PUSH2 0xE97 DUP11 DUP3 DUP12 ADD PUSH2 0xDBB JUMP JUMPDEST SWAP5 POP POP PUSH1 0x80 DUP9 ADD CALLDATALOAD PUSH8 0xFFFFFFFFFFFFFFFF DUP2 GT ISZERO PUSH2 0xEB8 JUMPI PUSH2 0xEB7 PUSH2 0xA4A JUMP JUMPDEST JUMPDEST PUSH2 0xEC4 DUP11 DUP3 DUP12 ADD PUSH2 0xDBB JUMP JUMPDEST SWAP4 POP POP PUSH1 0xA0 PUSH2 0xED5 DUP11 DUP3 DUP12 ADD PUSH2 0xA6D JUMP JUMPDEST SWAP3 POP POP PUSH1 0xC0 PUSH2 0xEE6 DUP11 DUP3 DUP12 ADD PUSH2 0xA6D JUMP JUMPDEST SWAP2 POP POP SWAP3 SWAP6 SWAP9 SWAP2 SWAP5 SWAP8 POP SWAP3 SWAP6 POP JUMP JUMPDEST PUSH2 0xEFE DUP2 PUSH2 0xA4E JUMP JUMPDEST DUP3 MSTORE POP POP JUMP JUMPDEST PUSH0 DUP2 MLOAD SWAP1 POP SWAP2 SWAP1 POP JUMP JUMPDEST PUSH0 DUP3 DUP3 MSTORE PUSH1 0x20 DUP3 ADD SWAP1 POP SWAP3 SWAP2 POP POP JUMP JUMPDEST DUP3 DUP2 DUP4 MCOPY PUSH0 DUP4 DUP4 ADD MSTORE POP POP POP JUMP JUMPDEST PUSH0 PUSH2 0xF36 DUP3 PUSH2 0xF04 JUMP JUMPDEST PUSH2 0xF40 DUP2 DUP6 PUSH2 0xF0E JUMP JUMPDEST SWAP4 POP PUSH2 0xF50 DUP2 DUP6 PUSH1 0x20 DUP7 ADD PUSH2 0xF1E JUMP JUMPDEST PUSH2 0xF59 DUP2 PUSH2 0xB8B JUMP JUMPDEST DUP5 ADD SWAP2 POP POP SWAP3 SWAP2 POP POP JUMP JUMPDEST PUSH0 DUP2 ISZERO ISZERO SWAP1 POP SWAP2 SWAP1 POP JUMP JUMPDEST PUSH2 0xF78 DUP2 PUSH2 0xF64 JUMP JUMPDEST DUP3 MSTORE POP POP JUMP JUMPDEST PUSH0 PUSH1 0xE0 DUP3 ADD SWAP1 POP PUSH2 0xF91 PUSH0 DUP4 ADD DUP11 PUSH2 0xEF5 JUMP JUMPDEST PUSH2 0xF9E PUSH1 0x20 DUP4 ADD DUP10 PUSH2 0xEF5 JUMP JUMPDEST DUP2 DUP2 SUB PUSH1 0x40 DUP4 ADD MSTORE PUSH2 0xFB0 DUP2 DUP9 PUSH2 0xF2C JUMP JUMPDEST SWAP1 POP DUP2 DUP2 SUB PUSH1 0x60 DUP4 ADD MSTORE PUSH2 0xFC4 DUP2 DUP8 PUSH2 0xF2C JUMP JUMPDEST SWAP1 POP PUSH2 0xFD3 PUSH1 0x80 DUP4 ADD DUP7 PUSH2 0xEF5 JUMP JUMPDEST PUSH2 0xFE0 PUSH1 0xA0 DUP4 ADD DUP6 PUSH2 0xEF5 JUMP JUMPDEST PUSH2 0xFED PUSH1 0xC0 DUP4 ADD DUP5 PUSH2 0xF6F JUMP JUMPDEST SWAP9 SWAP8 POP POP POP POP POP POP POP POP JUMP JUMPDEST PUSH0 PUSH0 PUSH1 0x40 DUP4 DUP6 SUB SLT ISZERO PUSH2 0x100F JUMPI PUSH2 0x100E PUSH2 0xA46 JUMP JUMPDEST JUMPDEST PUSH0 PUSH2 0x101C DUP6 DUP3 DUP7 ADD PUSH2 0xA6D JUMP JUMPDEST SWAP3 POP POP PUSH1 0x20 PUSH2 0x102D DUP6 DUP3 DUP7 ADD PUSH2 0xA6D JUMP JUMPDEST SWAP2 POP POP SWAP3 POP SWAP3 SWAP1 POP JUMP JUMPDEST PUSH0 PUSH1 0x60 DUP3 ADD SWAP1 POP PUSH2 0x104A PUSH0 DUP4 ADD DUP7 PUSH2 0xEF5 JUMP JUMPDEST DUP2 DUP2 SUB PUSH1 0x20 DUP4 ADD MSTORE PUSH2 0x105C DUP2 DUP6 PUSH2 0xF2C JUMP JUMPDEST SWAP1 POP PUSH2 0x106B PUSH1 0x40 DUP4 ADD DUP5 PUSH2 0xF6F JUMP JUMPDEST SWAP5 SWAP4 POP POP POP POP JUMP JUMPDEST PUSH32 0x506F6C6C20646F6573206E6F7420657869737400000000000000000000000000 PUSH0 DUP3 ADD MSTORE POP JUMP JUMPDEST PUSH0 PUSH2 0x10A7 PUSH1 0x13 DUP4 PUSH2 0xF0E JUMP JUMPDEST SWAP2 POP PUSH2 0x10B2 DUP3 PUSH2 0x1073 JUMP JUMPDEST PUSH1 0x20 DUP3 ADD SWAP1 POP SWAP2 SWAP1 POP JUMP JUMPDEST PUSH0 PUSH1 0x20 DUP3 ADD SWAP1 POP DUP2 DUP2 SUB PUSH0 DUP4 ADD MSTORE PUSH2 0x10D4 DUP2 PUSH2 0x109B JUMP JUMPDEST SWAP1 POP SWAP2 SWAP1 POP JUMP JUMPDEST PUSH32 0x4E487B7100000000000000000000000000000000000000000000000000000000 PUSH0 MSTORE PUSH1 0x32 PUSH1 0x4 MSTORE PUSH1 0x24 PUSH0 REVERT JUMPDEST PUSH32 0x4E487B7100000000000000000000000000000000000000000000000000000000 PUSH0 MSTORE PUSH1 0x11 PUSH1 0x4 MSTORE PUSH1 0x24 PUSH0 REVERT JUMPDEST PUSH0 PUSH2 0x113F DUP3 PUSH2 0xA4E JUMP JUMPDEST SWAP2 POP PUSH32 0xFFFFFFFFFFFFFFFFFFFFFFFFFFFFFFFFFFFFFFFFFFFFFFFFFFFFFFFFFFFFFFFF DUP3 SUB PUSH2 0x1171 JUMPI PUSH2 0x1170 PUSH2 0x1108 JUMP JUMPDEST JUMPDEST PUSH1 0x1 DUP3 ADD SWAP1 POP SWAP2 SWAP1 POP JUMP JUMPDEST PUSH32 0x4E487B7100000000000000000000000000000000000000000000000000000000 PUSH0 MSTORE PUSH1 0x22 PUSH1 0x4 MSTORE PUSH1 0x24 PUSH0 REVERT JUMPDEST PUSH0 PUSH1 0x2 DUP3 DIV SWAP1 POP PUSH1 0x1 DUP3 AND DUP1 PUSH2 0x11C0 JUMPI PUSH1 0x7F DUP3 AND SWAP2 POP JUMPDEST PUSH1 0x20 DUP3 LT DUP2 SUB PUSH2 0x11D3 JUMPI PUSH2 0x11D2 PUSH2 0x117C JUMP JUMPDEST JUMPDEST POP SWAP2 SWAP1 POP JUMP JUMPDEST PUSH0 DUP2 SWAP1 POP DUP2 PUSH0 MSTORE PUSH1 0x20 PUSH0 KECCAK256 SWAP1 POP SWAP2 SWAP1 POP JUMP JUMPDEST PUSH0 PUSH1 0x20 PUSH1 0x1F DUP4 ADD DIV SWAP1 POP SWAP2 SWAP1 POP JUMP JUMPDEST PUSH0 DUP3 DUP3 SHL SWAP1 POP SWAP3 SWAP2 POP POP JUMP JUMPDEST PUSH0 PUSH1 0x8 DUP4 MUL PUSH2 0x1235 PUSH32 0xFFFFFFFFFFFFFFFFFFFFFFFFFFFFFFFFFFFFFFFFFFFFFFFFFFFFFFFFFFFFFFFF DUP3 PUSH2 0x11FA JUMP JUMPDEST PUSH2 0x123F DUP7 DUP4 PUSH2 0x11FA JUMP JUMPDEST SWAP6 POP DUP1 NOT DUP5 AND SWAP4 POP DUP1 DUP7 AND DUP5 OR SWAP3 POP POP POP SWAP4 SWAP3 POP POP POP JUMP JUMPDEST PUSH0 DUP2 SWAP1 POP SWAP2 SWAP1 POP JUMP JUMPDEST PUSH0 PUSH2 0x127A PUSH2 0x1275 PUSH2 0x1270 DUP5 PUSH2 0xA4E JUMP JUMPDEST PUSH2 0x1257 JUMP JUMPDEST PUSH2 0xA4E JUMP JUMPDEST SWAP1 POP SWAP2 SWAP1 POP JUMP JUMPDEST PUSH0 DUP2 SWAP1 POP SWAP2 SWAP1 POP JUMP JUMPDEST PUSH2 0x1293 DUP4 PUSH2 0x1260 JUMP JUMPDEST PUSH2 0x12A7 PUSH2 0x129F DUP3 PUSH2 0x1281 JUMP JUMPDEST DUP5 DUP5 SLOAD PUSH2 0x1206 JUMP JUMPDEST DUP3 SSTORE POP POP POP POP JUMP JUMPDEST PUSH0 PUSH0 SWAP1 POP SWAP1 JUMP JUMPDEST PUSH2 0x12BE PUSH2 0x12AF JUMP JUMPDEST PUSH2 0x12C9 DUP2 DUP5 DUP5 PUSH2 0x128A JUMP JUMPDEST POP POP POP JUMP JUMPDEST JUMPDEST DUP2 DUP2 LT ISZERO PUSH2 0x12EC JUMPI PUSH2 0x12E1 PUSH0 DUP3 PUSH2 0x12B6 JUMP JUMPDEST PUSH1 0x1 DUP2 ADD SWAP1 POP PUSH2 0x12CF JUMP JUMPDEST POP POP JUMP JUMPDEST PUSH1 0x1F DUP3 GT ISZERO PUSH2 0x1331 JUMPI PUSH2 0x1302 DUP2 PUSH2 0x11D9 JUMP JUMPDEST PUSH2 0x130B DUP5 PUSH2 0x11EB JUMP JUMPDEST DUP2 ADD PUSH1 0x20 DUP6 LT ISZERO PUSH2 0x131A JUMPI DUP2 SWAP1 POP JUMPDEST PUSH2 0x132E PUSH2 0x1326 DUP6 PUSH2 0x11EB JUMP JUMPDEST DUP4 ADD DUP3 PUSH2 0x12CE JUMP JUMPDEST POP POP JUMPDEST POP POP POP JUMP JUMPDEST PUSH0 DUP3 DUP3 SHR SWAP1 POP SWAP3 SWAP2 POP POP JUMP JUMPDEST PUSH0 PUSH2 0x1351 PUSH0 NOT DUP5 PUSH1 0x8 MUL PUSH2 0x1336 JUMP JUMPDEST NOT DUP1 DUP4 AND SWAP2 POP POP SWAP3 SWAP2 POP POP JUMP JUMPDEST PUSH0 PUSH2 0x1369 DUP4 DUP4 PUSH2 0x1342 JUMP JUMPDEST SWAP2 POP DUP3 PUSH1 0x2 MUL DUP3 OR SWAP1 POP SWAP3 SWAP2 POP POP JUMP JUMPDEST PUSH2 0x1382 DUP3 PUSH2 0xF04 JUMP JUMPDEST PUSH8 0xFFFFFFFFFFFFFFFF DUP2 GT ISZERO PUSH2 0x139B JUMPI PUSH2 0x139A PUSH2 0xB9B JUMP JUMPDEST JUMPDEST PUSH2 0x13A5 DUP3 SLOAD PUSH2 0x11A9 JUMP JUMPDEST PUSH2 0x13B0 DUP3 DUP3 DUP6 PUSH2 0x12F0 JUMP JUMPDEST PUSH0 PUSH1 0x20 SWAP1 POP PUSH1 0x1F DUP4 GT PUSH1 0x1 DUP2 EQ PUSH2 0x13E1 JUMPI PUSH0 DUP5 ISZERO PUSH2 0x13CF JUMPI DUP3 DUP8 ADD MLOAD SWAP1 POP JUMPDEST PUSH2 0x13D9 DUP6 DUP3 PUSH2 0x135E JUMP JUMPDEST DUP7 SSTORE POP PUSH2 0x1440 JUMP JUMPDEST PUSH1 0x1F NOT DUP5 AND PUSH2 0x13EF DUP7 PUSH2 0x11D9 JUMP JUMPDEST PUSH0 JUMPDEST DUP3 DUP2 LT ISZERO PUSH2 0x1416 JUMPI DUP5 DUP10 ADD MLOAD DUP3 SSTORE PUSH1 0x1 DUP3 ADD SWAP2 POP PUSH1 0x20 DUP6 ADD SWAP5 POP PUSH1 0x20 DUP2 ADD SWAP1 POP PUSH2 0x13F1 JUMP JUMPDEST DUP7 DUP4 LT ISZERO PUSH2 0x1433 JUMPI DUP5 DUP10 ADD MLOAD PUSH2 0x142F PUSH1 0x1F DUP10 AND DUP3 PUSH2 0x1342 JUMP JUMPDEST DUP4 SSTORE POP JUMPDEST PUSH1 0x1 PUSH1 0x2 DUP9 MUL ADD DUP9 SSTORE POP POP POP JUMPDEST POP POP POP POP POP POP JUMP JUMPDEST PUSH0 PUSH1 0x40 DUP3 ADD SWAP1 POP PUSH2 0x145B PUSH0 DUP4 ADD DUP6 PUSH2 0xEF5 JUMP JUMPDEST DUP2 DUP2 SUB PUSH1 0x20 DUP4 ADD MSTORE PUSH2 0x146D DUP2 DUP5 PUSH2 0xF2C JUMP JUMPDEST SWAP1 POP SWAP4 SWAP3 POP POP POP JUMP JUMPDEST PUSH32 0x4F7267616E697A6174696F6E20646F6573206E6F742065786973740000000000 PUSH0 DUP3 ADD MSTORE POP JUMP JUMPDEST PUSH0 PUSH2 0x14AA PUSH1 0x1B DUP4 PUSH2 0xF0E JUMP JUMPDEST SWAP2 POP PUSH2 0x14B5 DUP3 PUSH2 0x1476 JUMP JUMPDEST PUSH1 0x20 DUP3 ADD SWAP1 POP SWAP2 SWAP1 POP JUMP JUMPDEST PUSH0 PUSH1 0x20 DUP3 ADD SWAP1 POP DUP2 DUP2 SUB PUSH0 DUP4 ADD MSTORE PUSH2 0x14D7 DUP2 PUSH2 0x149E JUMP JUMPDEST SWAP1 POP SWAP2 SWAP1 POP JUMP JUMPDEST PUSH32 0x496E76616C69642074696D656672616D65000000000000000000000000000000 PUSH0 DUP3 ADD MSTORE POP JUMP JUMPDEST PUSH0 PUSH2 0x1512 PUSH1 0x11 DUP4 PUSH2 0xF0E JUMP JUMPDEST SWAP2 POP PUSH2 0x151D DUP3 PUSH2 0x14DE JUMP JUMPDEST PUSH1 0x20 DUP3 ADD SWAP1 POP SWAP2 SWAP1 POP JUMP JUMPDEST PUSH0 PUSH1 0x20 DUP3 ADD SWAP1 POP DUP2 DUP2 SUB PUSH0 DUP4 ADD MSTORE PUSH2 0x153F DUP2 PUSH2 0x1506 JUMP JUMPDEST SWAP1 POP SWAP2 SWAP1 POP JUMP JUMPDEST PUSH0 PUSH1 0x60 DUP3 ADD SWAP1 POP PUSH2 0x1559 PUSH0 DUP4 ADD DUP7 PUSH2 0xEF5 JUMP JUMPDEST PUSH2 0x1566 PUSH1 0x20 DUP4 ADD DUP6 PUSH2 0xEF5 JUMP JUMPDEST DUP2 DUP2 SUB PUSH1 0x40 DUP4 ADD MSTORE PUSH2 0x1578 DUP2 DUP5 PUSH2 0xF2C JUMP JUMPDEST SWAP1 POP SWAP5 SWAP4 POP POP POP POP JUMP JUMPDEST PUSH32 0x566F74696E67206861736E277420737461727465640000000000000000000000 PUSH0 DUP3 ADD MSTORE POP JUMP JUMPDEST PUSH0 PUSH2 0x15B6 PUSH1 0x15 DUP4 PUSH2 0xF0E JUMP JUMPDEST SWAP2 POP PUSH2 0x15C1 DUP3 PUSH2 0x1582 JUMP JUMPDEST PUSH1 0x20 DUP3 ADD SWAP1 POP SWAP2 SWAP1 POP JUMP JUMPDEST PUSH0 PUSH1 0x20 DUP3 ADD SWAP1 POP DUP2 DUP2 SUB PUSH0 DUP4 ADD MSTORE PUSH2 0x15E3 DUP2 PUSH2 0x15AA JUMP JUMPDEST SWAP1 POP SWAP2 SWAP1 POP JUMP JUMPDEST PUSH32 0x566F74696E672068617320656E64656400000000000000000000000000000000 PUSH0 DUP3 ADD MSTORE POP JUMP JUMPDEST PUSH0 PUSH2 0x161E PUSH1 0x10 DUP4 PUSH2 0xF0E JUMP JUMPDEST SWAP2 POP PUSH2 0x1629 DUP3 PUSH2 0x15EA JUMP JUMPDEST PUSH1 0x20 DUP3 ADD SWAP1 POP SWAP2 SWAP1 POP JUMP JUMPDEST PUSH0 PUSH1 0x20 DUP3 ADD SWAP1 POP DUP2 DUP2 SUB PUSH0 DUP4 ADD MSTORE PUSH2 0x164B DUP2 PUSH2 0x1612 JUMP JUMPDEST SWAP1 POP SWAP2 SWAP1 POP JUMP JUMPDEST PUSH32 0x496E76616C6964206F7074696F6E000000000000000000000000000000000000 PUSH0 DUP3 ADD MSTORE POP JUMP JUMPDEST PUSH0 PUSH2 0x1686 PUSH1 0xE DUP4 PUSH2 0xF0E JUMP JUMPDEST SWAP2 POP PUSH2 0x1691 DUP3 PUSH2 0x1652 JUMP JUMPDEST PUSH1 0x20 DUP3 ADD SWAP1 POP SWAP2 SWAP1 POP JUMP JUMPDEST PUSH0 PUSH1 0x20 DUP3 ADD SWAP1 POP DUP2 DUP2 SUB PUSH0 DUP4 ADD MSTORE PUSH2 0x16B3 DUP2 PUSH2 0x167A JUMP JUMPDEST SWAP1 POP SWAP2 SWAP1 POP JUMP JUMPDEST PUSH32 0x416C726561647920766F74656400000000000000000000000000000000000000 PUSH0 DUP3 ADD MSTORE POP JUMP JUMPDEST PUSH0 PUSH2 0x16EE PUSH1 0xD DUP4 PUSH2 0xF0E JUMP JUMPDEST SWAP2 POP PUSH2 0x16F9 DUP3 PUSH2 0x16BA JUMP JUMPDEST PUSH1 0x20 DUP3 ADD SWAP1 POP SWAP2 SWAP1 POP JUMP JUMPDEST PUSH0 PUSH1 0x20 DUP3 ADD SWAP1 POP DUP2 DUP2 SUB PUSH0 DUP4 ADD MSTORE PUSH2 0x171B DUP2 PUSH2 0x16E2 JUMP JUMPDEST SWAP1 POP SWAP2 SWAP1 POP JUMP JUMPDEST PUSH0 PUSH20 0xFFFFFFFFFFFFFFFFFFFFFFFFFFFFFFFFFFFFFFFF DUP3 AND SWAP1 POP SWAP2 SWAP1 POP JUMP JUMPDEST PUSH0 PUSH2 0x174B DUP3 PUSH2 0x1722 JUMP JUMPDEST SWAP1 POP SWAP2 SWAP1 POP JUMP JUMPDEST PUSH2 0x175B DUP2 PUSH2 0x1741 JUMP JUMPDEST DUP3 MSTORE POP POP JUMP JUMPDEST PUSH0 PUSH1 0x60 DUP3 ADD SWAP1 POP PUSH2 0x1774 PUSH0 DUP4 ADD DUP7 PUSH2 0xEF5 JUMP JUMPDEST PUSH2 0x1781 PUSH1 0x20 DUP4 ADD DUP6 PUSH2 0xEF5 JUMP JUMPDEST PUSH2 0x178E PUSH1 0x40 DUP4 ADD DUP5 PUSH2 0x1752 JUMP JUMPDEST SWAP5 SWAP4 POP POP POP POP JUMP INVALID LOG2 PUSH5 0x6970667358 0x22 SLT KECCAK256 0xC SWAP1 0xDE DUP13 0xCA PUSH5 0x1C02C4D919 PUSH11 0xB9A3DDA645552B5005364 0xB6 PUSH17 0xEAA2C973C8AF0164736F6C634300081E00 CALLER "
				},
				"gasEstimates": {
					"creation": {
						"codeDepositCost": "1218400",
						"executionCost": "11275",
						"totalCost": "1229675"
					},
					"external": {
						"createOrganization(string)": "infinite",
						"createPoll(uint256,string,string,string[],string[],uint256,uint256)": "infinite",
						"getPollResults(uint256)": "infinite",
						"organizations(uint256)": "infinite",
						"polls(uint256)": "infinite",
						"vote(uint256,uint256)": "infinite"
					}
				},
				"methodIdentifiers": {
					"createOrganization(string)": "6427acca",
					"createPoll(uint256,string,string,string[],string[],uint256,uint256)": "ab518eae",
					"getPollResults(uint256)": "33b4097b",
					"organizations(uint256)": "e792dd8a",
					"polls(uint256)": "ac2f0074",
					"vote(uint256,uint256)": "b384abef"
				}
			},
			"storageLayout": {
				"storage": [
					{
						"astId": 40,
						"contract": "Voting.sol:Voting",
						"label": "orgCount",
						"offset": 0,
						"slot": "0",
						"type": "t_uint256"
					},
					{
						"astId": 43,
						"contract": "Voting.sol:Voting",
						"label": "pollCount",
						"offset": 0,
						"slot": "1",
						"type": "t_uint256"
					},
					{
						"astId": 48,
						"contract": "Voting.sol:Voting",
						"label": "organizations",
						"offset": 0,
						"slot": "2",
						"type": "t_mapping(t_uint256,t_struct(Organization)8_storage)"
					},
					{
						"astId": 53,
						"contract": "Voting.sol:Voting",
						"label": "polls",
						"offset": 0,
						"slot": "3",
						"type": "t_mapping(t_uint256,t_struct(Poll)37_storage)"
					}
				],
				"types": {
					"t_address": {
						"encoding": "inplace",
						"label": "address",
						"numberOfBytes": "20"
					},
					"t_array(t_string_storage)dyn_storage": {
						"base": "t_string_storage",
						"encoding": "dynamic_array",
						"label": "string[]",
						"numberOfBytes": "32"
					},
					"t_bool": {
						"encoding": "inplace",
						"label": "bool",
						"numberOfBytes": "1"
					},
					"t_mapping(t_address,t_bool)": {
						"encoding": "mapping",
						"key": "t_address",
						"label": "mapping(address => bool)",
						"numberOfBytes": "32",
						"value": "t_bool"
					},
					"t_mapping(t_uint256,t_struct(Organization)8_storage)": {
						"encoding": "mapping",
						"key": "t_uint256",
						"label": "mapping(uint256 => struct Voting.Organization)",
						"numberOfBytes": "32",
						"value": "t_struct(Organization)8_storage"
					},
					"t_mapping(t_uint256,t_struct(Poll)37_storage)": {
						"encoding": "mapping",
						"key": "t_uint256",
						"label": "mapping(uint256 => struct Voting.Poll)",
						"numberOfBytes": "32",
						"value": "t_struct(Poll)37_storage"
					},
					"t_mapping(t_uint256,t_uint256)": {
						"encoding": "mapping",
						"key": "t_uint256",
						"label": "mapping(uint256 => uint256)",
						"numberOfBytes": "32",
						"value": "t_uint256"
					},
					"t_string_storage": {
						"encoding": "bytes",
						"label": "string",
						"numberOfBytes": "32"
					},
					"t_struct(Organization)8_storage": {
						"encoding": "inplace",
						"label": "struct Voting.Organization",
						"members": [
							{
								"astId": 3,
								"contract": "Voting.sol:Voting",
								"label": "id",
								"offset": 0,
								"slot": "0",
								"type": "t_uint256"
							},
							{
								"astId": 5,
								"contract": "Voting.sol:Voting",
								"label": "name",
								"offset": 0,
								"slot": "1",
								"type": "t_string_storage"
							},
							{
								"astId": 7,
								"contract": "Voting.sol:Voting",
								"label": "exists",
								"offset": 0,
								"slot": "2",
								"type": "t_bool"
							}
						],
						"numberOfBytes": "96"
					},
					"t_struct(Poll)37_storage": {
						"encoding": "inplace",
						"label": "struct Voting.Poll",
						"members": [
							{
								"astId": 10,
								"contract": "Voting.sol:Voting",
								"label": "id",
								"offset": 0,
								"slot": "0",
								"type": "t_uint256"
							},
							{
								"astId": 12,
								"contract": "Voting.sol:Voting",
								"label": "orgId",
								"offset": 0,
								"slot": "1",
								"type": "t_uint256"
							},
							{
								"astId": 14,
								"contract": "Voting.sol:Voting",
								"label": "title",
								"offset": 0,
								"slot": "2",
								"type": "t_string_storage"
							},
							{
								"astId": 16,
								"contract": "Voting.sol:Voting",
								"label": "description",
								"offset": 0,
								"slot": "3",
								"type": "t_string_storage"
							},
							{
								"astId": 19,
								"contract": "Voting.sol:Voting",
								"label": "options",
								"offset": 0,
								"slot": "4",
								"type": "t_array(t_string_storage)dyn_storage"
							},
							{
								"astId": 22,
								"contract": "Voting.sol:Voting",
								"label": "imageHashes",
								"offset": 0,
								"slot": "5",
								"type": "t_array(t_string_storage)dyn_storage"
							},
							{
								"astId": 24,
								"contract": "Voting.sol:Voting",
								"label": "startTime",
								"offset": 0,
								"slot": "6",
								"type": "t_uint256"
							},
							{
								"astId": 26,
								"contract": "Voting.sol:Voting",
								"label": "endTime",
								"offset": 0,
								"slot": "7",
								"type": "t_uint256"
							},
							{
								"astId": 28,
								"contract": "Voting.sol:Voting",
								"label": "exists",
								"offset": 0,
								"slot": "8",
								"type": "t_bool"
							},
							{
								"astId": 32,
								"contract": "Voting.sol:Voting",
								"label": "votes",
								"offset": 0,
								"slot": "9",
								"type": "t_mapping(t_uint256,t_uint256)"
							},
							{
								"astId": 36,
								"contract": "Voting.sol:Voting",
								"label": "hasVoted",
								"offset": 0,
								"slot": "10",
								"type": "t_mapping(t_address,t_bool)"
							}
						],
						"numberOfBytes": "352"
					},
					"t_uint256": {
						"encoding": "inplace",
						"label": "uint256",
						"numberOfBytes": "32"
					}
				}
			},
			"userdoc": {
				"kind": "user",
				"methods": {},
				"version": 1
			}
		}
	}
}